ARM GAS  C:\Users\tuanngu\AppData\Local\Temp\cckQ6cTy.s 			page 1


   1              		.syntax unified
   2              		.cpu cortex-m0
   3              		.fpu softvfp
   4              		.eabi_attribute 20, 1
   5              		.eabi_attribute 21, 1
   6              		.eabi_attribute 23, 3
   7              		.eabi_attribute 24, 1
   8              		.eabi_attribute 25, 1
   9              		.eabi_attribute 26, 1
  10              		.eabi_attribute 30, 1
  11              		.eabi_attribute 34, 0
  12              		.eabi_attribute 18, 4
  13              		.thumb
  14              		.syntax unified
  15              		.file	"CyLFClk.c"
  16              		.text
  17              	.Ltext0:
  18              		.cfi_sections	.debug_frame
  19              		.section	.text.CySysClkIloEnabled,"ax",%progbits
  20              		.align	2
  21              		.code	16
  22              		.thumb_func
  23              		.type	CySysClkIloEnabled, %function
  24              	CySysClkIloEnabled:
  25              	.LFB7:
  26              		.file 1 "Generated_Source\\PSoC4\\CyLFClk.c"
   1:Generated_Source\PSoC4/CyLFClk.c **** /***************************************************************************//**
   2:Generated_Source\PSoC4/CyLFClk.c **** * \file .c
   3:Generated_Source\PSoC4/CyLFClk.c **** * \version 1.20
   4:Generated_Source\PSoC4/CyLFClk.c **** *
   5:Generated_Source\PSoC4/CyLFClk.c **** * \brief
   6:Generated_Source\PSoC4/CyLFClk.c **** *  This file provides the source code for configuring watchdog timers WDTs, 
   7:Generated_Source\PSoC4/CyLFClk.c **** *  low frequency clocks (LFCLK) and the Real-time Clock (RTC) component in
   8:Generated_Source\PSoC4/CyLFClk.c **** *  PSoC Creator for the PSoC 4 families.
   9:Generated_Source\PSoC4/CyLFClk.c **** *
  10:Generated_Source\PSoC4/CyLFClk.c **** ********************************************************************************
  11:Generated_Source\PSoC4/CyLFClk.c **** * \copyright
  12:Generated_Source\PSoC4/CyLFClk.c **** * Copyright 2008-2017, Cypress Semiconductor Corporation.  All rights reserved.
  13:Generated_Source\PSoC4/CyLFClk.c **** * You may use this file only in accordance with the license, terms, conditions,
  14:Generated_Source\PSoC4/CyLFClk.c **** * disclaimers, and limitations in the end user license agreement accompanying
  15:Generated_Source\PSoC4/CyLFClk.c **** * the software package with which this file was provided.
  16:Generated_Source\PSoC4/CyLFClk.c **** *******************************************************************************/
  17:Generated_Source\PSoC4/CyLFClk.c **** 
  18:Generated_Source\PSoC4/CyLFClk.c **** 
  19:Generated_Source\PSoC4/CyLFClk.c **** #include "CyLFClk.h"
  20:Generated_Source\PSoC4/CyLFClk.c **** #include "CyLib.h"
  21:Generated_Source\PSoC4/CyLFClk.c **** 
  22:Generated_Source\PSoC4/CyLFClk.c **** #if (CY_IP_WCO && CY_IP_SRSSV2)
  23:Generated_Source\PSoC4/CyLFClk.c ****     static uint32 CySysClkGetLfclkSource(void);
  24:Generated_Source\PSoC4/CyLFClk.c **** #endif /* (CY_IP_WCO && CY_IP_SRSSV2) */
  25:Generated_Source\PSoC4/CyLFClk.c **** 
  26:Generated_Source\PSoC4/CyLFClk.c **** 
  27:Generated_Source\PSoC4/CyLFClk.c **** #if(CY_IP_SRSSV2 && (!CY_IP_CPUSS))
  28:Generated_Source\PSoC4/CyLFClk.c ****     /* Default Ilo Trim Register value for ILO trimming*/
  29:Generated_Source\PSoC4/CyLFClk.c ****     static volatile uint16 defaultIloTrimRegValue = CY_SYS_CLK_ILO_TRIM_DEFAULT_VALUE;
  30:Generated_Source\PSoC4/CyLFClk.c **** #endif /* (CY_IP_SRSSV2 && (!CY_IP_CPUSS)) */
  31:Generated_Source\PSoC4/CyLFClk.c **** 
ARM GAS  C:\Users\tuanngu\AppData\Local\Temp\cckQ6cTy.s 			page 2


  32:Generated_Source\PSoC4/CyLFClk.c **** #if(CY_IP_SRSSV2)
  33:Generated_Source\PSoC4/CyLFClk.c ****     /* CySysClkLfclkPosedgeCatch() / CySysClkLfclkPosedgeRestore() */
  34:Generated_Source\PSoC4/CyLFClk.c ****     static uint32 lfclkPosedgeWdtCounter0Enabled = 0u;
  35:Generated_Source\PSoC4/CyLFClk.c ****     static uint32 lfclkPosedgeWdtCounter0Mode    = CY_SYS_WDT_MODE_NONE;
  36:Generated_Source\PSoC4/CyLFClk.c **** 
  37:Generated_Source\PSoC4/CyLFClk.c ****     static volatile uint32 disableServicedIsr = 0uL;
  38:Generated_Source\PSoC4/CyLFClk.c ****     static volatile uint32 wdtIsrMask = CY_SYS_WDT_COUNTER0_INT |\
  39:Generated_Source\PSoC4/CyLFClk.c ****                                         CY_SYS_WDT_COUNTER1_INT |\
  40:Generated_Source\PSoC4/CyLFClk.c ****                                         CY_SYS_WDT_COUNTER2_INT;
  41:Generated_Source\PSoC4/CyLFClk.c **** 
  42:Generated_Source\PSoC4/CyLFClk.c ****     static const uint32 counterIntMaskTbl[CY_WDT_NUM_OF_WDT] = {CY_SYS_WDT_COUNTER0_INT,
  43:Generated_Source\PSoC4/CyLFClk.c ****                                                                 CY_SYS_WDT_COUNTER1_INT,
  44:Generated_Source\PSoC4/CyLFClk.c ****                                                                 CY_SYS_WDT_COUNTER2_INT};
  45:Generated_Source\PSoC4/CyLFClk.c **** 
  46:Generated_Source\PSoC4/CyLFClk.c ****     static void CySysClkLfclkPosedgeCatch(void);
  47:Generated_Source\PSoC4/CyLFClk.c ****     static void CySysClkLfclkPosedgeRestore(void);
  48:Generated_Source\PSoC4/CyLFClk.c **** 
  49:Generated_Source\PSoC4/CyLFClk.c ****     static uint32 CySysWdtLocked(void);
  50:Generated_Source\PSoC4/CyLFClk.c ****     static uint32 CySysClkIloEnabled(void);
  51:Generated_Source\PSoC4/CyLFClk.c **** #endif /* (CY_IP_SRSSV2) */
  52:Generated_Source\PSoC4/CyLFClk.c **** 
  53:Generated_Source\PSoC4/CyLFClk.c **** #if (CY_IP_SRSSLT && CY_IP_WCO && CY_IP_WCO_WDT_EN)
  54:Generated_Source\PSoC4/CyLFClk.c ****     static uint32 CySysClkGetTimerSource(void);
  55:Generated_Source\PSoC4/CyLFClk.c ****     static volatile uint32 disableTimerServicedIsr = 0uL;
  56:Generated_Source\PSoC4/CyLFClk.c ****     static volatile uint32 timerIsrMask = CY_SYS_TIMER0_INT |\
  57:Generated_Source\PSoC4/CyLFClk.c ****                                           CY_SYS_TIMER1_INT |\
  58:Generated_Source\PSoC4/CyLFClk.c ****                                           CY_SYS_TIMER2_INT;
  59:Generated_Source\PSoC4/CyLFClk.c **** 
  60:Generated_Source\PSoC4/CyLFClk.c ****     static const uint32 counterTimerIntMaskTbl[CY_SYS_NUM_OF_TIMERS] = {CY_SYS_TIMER0_INT,
  61:Generated_Source\PSoC4/CyLFClk.c ****                                                                         CY_SYS_TIMER1_INT,
  62:Generated_Source\PSoC4/CyLFClk.c ****                                                                         CY_SYS_TIMER2_INT};
  63:Generated_Source\PSoC4/CyLFClk.c **** 
  64:Generated_Source\PSoC4/CyLFClk.c ****     static cyTimerCallback cySysTimerCallback[CY_SYS_NUM_OF_TIMERS] = {(void *)0, (void *)0, (void 
  65:Generated_Source\PSoC4/CyLFClk.c **** #endif /* (CY_IP_SRSSLT && CY_IP_WCO && CY_IP_WCO_DWT_EN) */
  66:Generated_Source\PSoC4/CyLFClk.c **** 
  67:Generated_Source\PSoC4/CyLFClk.c **** #if(CY_IP_SRSSV2)
  68:Generated_Source\PSoC4/CyLFClk.c ****     static cyWdtCallback cySysWdtCallback[CY_WDT_NUM_OF_WDT] = {(void *)0, (void *)0, (void *)0};
  69:Generated_Source\PSoC4/CyLFClk.c **** #else
  70:Generated_Source\PSoC4/CyLFClk.c ****     static cyWdtCallback cySysWdtCallback = (void *)0;
  71:Generated_Source\PSoC4/CyLFClk.c **** #endif /* (CY_IP_SRSSV2) */
  72:Generated_Source\PSoC4/CyLFClk.c **** 
  73:Generated_Source\PSoC4/CyLFClk.c **** 
  74:Generated_Source\PSoC4/CyLFClk.c **** /*******************************************************************************
  75:Generated_Source\PSoC4/CyLFClk.c **** * Function Name: CySysClkIloStart
  76:Generated_Source\PSoC4/CyLFClk.c **** ****************************************************************************//**
  77:Generated_Source\PSoC4/CyLFClk.c **** * \brief
  78:Generated_Source\PSoC4/CyLFClk.c **** *  Enables ILO.
  79:Generated_Source\PSoC4/CyLFClk.c **** *
  80:Generated_Source\PSoC4/CyLFClk.c **** *  Refer to the device datasheet for the ILO startup time.
  81:Generated_Source\PSoC4/CyLFClk.c **** *
  82:Generated_Source\PSoC4/CyLFClk.c **** *******************************************************************************/
  83:Generated_Source\PSoC4/CyLFClk.c **** void CySysClkIloStart(void)
  84:Generated_Source\PSoC4/CyLFClk.c **** {
  85:Generated_Source\PSoC4/CyLFClk.c ****     CY_SYS_CLK_ILO_CONFIG_REG |= CY_SYS_CLK_ILO_CONFIG_ENABLE;
  86:Generated_Source\PSoC4/CyLFClk.c **** }
  87:Generated_Source\PSoC4/CyLFClk.c **** 
  88:Generated_Source\PSoC4/CyLFClk.c **** 
ARM GAS  C:\Users\tuanngu\AppData\Local\Temp\cckQ6cTy.s 			page 3


  89:Generated_Source\PSoC4/CyLFClk.c **** /*******************************************************************************
  90:Generated_Source\PSoC4/CyLFClk.c **** * Function Name: CySysClkIloStop
  91:Generated_Source\PSoC4/CyLFClk.c **** ****************************************************************************//**
  92:Generated_Source\PSoC4/CyLFClk.c **** * \brief
  93:Generated_Source\PSoC4/CyLFClk.c **** *  Disables the ILO.
  94:Generated_Source\PSoC4/CyLFClk.c **** *
  95:Generated_Source\PSoC4/CyLFClk.c **** *  This function has no effect if WDT is locked (CySysWdtLock() is
  96:Generated_Source\PSoC4/CyLFClk.c **** *  called). Call CySysWdtUnlock() to unlock WDT and stop ILO.
  97:Generated_Source\PSoC4/CyLFClk.c **** *
  98:Generated_Source\PSoC4/CyLFClk.c **** *  PSoC 4100 / PSoC 4200: Note that ILO is required for WDT's operation.
  99:Generated_Source\PSoC4/CyLFClk.c **** *
 100:Generated_Source\PSoC4/CyLFClk.c **** *  PSoC 4100 BLE / PSoC 4200 BLE / PSoC 4200L / PSoC 4100M / 
 101:Generated_Source\PSoC4/CyLFClk.c **** *  PSoC 4200M:
 102:Generated_Source\PSoC4/CyLFClk.c **** *  Stopping ILO affects the peripheral clocked by LFCLK, if
 103:Generated_Source\PSoC4/CyLFClk.c **** *  LFCLK is configured to be sourced by ILO.
 104:Generated_Source\PSoC4/CyLFClk.c **** *
 105:Generated_Source\PSoC4/CyLFClk.c **** *  If the ILO is disabled, all blocks run by ILO will stop functioning.
 106:Generated_Source\PSoC4/CyLFClk.c **** *
 107:Generated_Source\PSoC4/CyLFClk.c **** *******************************************************************************/
 108:Generated_Source\PSoC4/CyLFClk.c **** void CySysClkIloStop(void)
 109:Generated_Source\PSoC4/CyLFClk.c **** {
 110:Generated_Source\PSoC4/CyLFClk.c ****     #if(CY_IP_SRSSV2)
 111:Generated_Source\PSoC4/CyLFClk.c ****         uint8  interruptState;
 112:Generated_Source\PSoC4/CyLFClk.c **** 
 113:Generated_Source\PSoC4/CyLFClk.c ****         /* Do nothing if WDT is locked or ILO is disabled */
 114:Generated_Source\PSoC4/CyLFClk.c ****         if (0u == CySysWdtLocked())
 115:Generated_Source\PSoC4/CyLFClk.c ****         {
 116:Generated_Source\PSoC4/CyLFClk.c ****             if (0u != CySysClkIloEnabled())
 117:Generated_Source\PSoC4/CyLFClk.c ****             {
 118:Generated_Source\PSoC4/CyLFClk.c **** 
 119:Generated_Source\PSoC4/CyLFClk.c ****             #if (CY_IP_WCO)
 120:Generated_Source\PSoC4/CyLFClk.c ****                 if (CY_SYS_CLK_LFCLK_SRC_ILO == CySysClkGetLfclkSource())
 121:Generated_Source\PSoC4/CyLFClk.c ****                 {
 122:Generated_Source\PSoC4/CyLFClk.c ****             #endif /* (CY_IP_WCO) */
 123:Generated_Source\PSoC4/CyLFClk.c **** 
 124:Generated_Source\PSoC4/CyLFClk.c ****                 interruptState = CyEnterCriticalSection();
 125:Generated_Source\PSoC4/CyLFClk.c ****                 CySysClkLfclkPosedgeCatch();
 126:Generated_Source\PSoC4/CyLFClk.c ****                 CY_SYS_CLK_ILO_CONFIG_REG &= (uint32) ( ~(uint32)CY_SYS_CLK_ILO_CONFIG_ENABLE);
 127:Generated_Source\PSoC4/CyLFClk.c ****                 CySysClkLfclkPosedgeRestore();
 128:Generated_Source\PSoC4/CyLFClk.c ****                 CyExitCriticalSection(interruptState);
 129:Generated_Source\PSoC4/CyLFClk.c **** 
 130:Generated_Source\PSoC4/CyLFClk.c ****             #if (CY_IP_WCO)
 131:Generated_Source\PSoC4/CyLFClk.c ****                 }
 132:Generated_Source\PSoC4/CyLFClk.c ****                 else /* Safe to disable - shortened pulse does not impact peripheral */
 133:Generated_Source\PSoC4/CyLFClk.c ****                 {
 134:Generated_Source\PSoC4/CyLFClk.c ****                     CY_SYS_CLK_ILO_CONFIG_REG &= (uint32) ( ~(uint32)CY_SYS_CLK_ILO_CONFIG_ENABLE);
 135:Generated_Source\PSoC4/CyLFClk.c ****                 }
 136:Generated_Source\PSoC4/CyLFClk.c ****             #endif /* (CY_IP_WCO) */
 137:Generated_Source\PSoC4/CyLFClk.c **** 
 138:Generated_Source\PSoC4/CyLFClk.c ****             }
 139:Generated_Source\PSoC4/CyLFClk.c ****         }
 140:Generated_Source\PSoC4/CyLFClk.c ****     #else
 141:Generated_Source\PSoC4/CyLFClk.c ****         CY_SYS_CLK_ILO_CONFIG_REG &= ( uint32 ) ( ~( uint32 )CY_SYS_CLK_ILO_CONFIG_ENABLE);
 142:Generated_Source\PSoC4/CyLFClk.c ****     #endif /* (CY_IP_SRSSV2) */
 143:Generated_Source\PSoC4/CyLFClk.c **** }
 144:Generated_Source\PSoC4/CyLFClk.c **** 
 145:Generated_Source\PSoC4/CyLFClk.c **** 
ARM GAS  C:\Users\tuanngu\AppData\Local\Temp\cckQ6cTy.s 			page 4


 146:Generated_Source\PSoC4/CyLFClk.c **** /******************************************************************************
 147:Generated_Source\PSoC4/CyLFClk.c **** * Function Name: CySysClkIloStartMeasurement
 148:Generated_Source\PSoC4/CyLFClk.c **** ***************************************************************************//**
 149:Generated_Source\PSoC4/CyLFClk.c **** * \brief
 150:Generated_Source\PSoC4/CyLFClk.c **** * Starts the ILO accuracy measurement.
 151:Generated_Source\PSoC4/CyLFClk.c **** *
 152:Generated_Source\PSoC4/CyLFClk.c **** * This function is non-blocking and needs to be called before using the 
 153:Generated_Source\PSoC4/CyLFClk.c **** * CySysClkIloTrim() and CySysClkIloCompensate() API.
 154:Generated_Source\PSoC4/CyLFClk.c **** *
 155:Generated_Source\PSoC4/CyLFClk.c **** * This API configures measurement counters to be sourced by SysClk (Counter 1)
 156:Generated_Source\PSoC4/CyLFClk.c **** * and ILO (Counter 2). 
 157:Generated_Source\PSoC4/CyLFClk.c **** *
 158:Generated_Source\PSoC4/CyLFClk.c **** * \note SysClk should be sourced by IMO. Otherwise CySysClkIloTrim() and 
 159:Generated_Source\PSoC4/CyLFClk.c **** * CySysClkIloCompensate() API can give incorrect results.
 160:Generated_Source\PSoC4/CyLFClk.c **** *
 161:Generated_Source\PSoC4/CyLFClk.c **** * In addition, this API stores the factory ILO trim settings on the first call 
 162:Generated_Source\PSoC4/CyLFClk.c **** * after reset. This stored factory setting is used by the 
 163:Generated_Source\PSoC4/CyLFClk.c **** * CySysClkIloRestoreFactoryTrim() API to restore the ILO factory trim. 
 164:Generated_Source\PSoC4/CyLFClk.c **** * Hence, it is important to call this API before restoring the ILO 
 165:Generated_Source\PSoC4/CyLFClk.c **** * factory trim settings.
 166:Generated_Source\PSoC4/CyLFClk.c **** *
 167:Generated_Source\PSoC4/CyLFClk.c **** ******************************************************************************/
 168:Generated_Source\PSoC4/CyLFClk.c **** void CySysClkIloStartMeasurement(void)
 169:Generated_Source\PSoC4/CyLFClk.c **** {
 170:Generated_Source\PSoC4/CyLFClk.c **** #if(CY_IP_SRSSV2 && (!CY_IP_CPUSS))
 171:Generated_Source\PSoC4/CyLFClk.c ****     static uint8 iloTrimTrig = 0u;
 172:Generated_Source\PSoC4/CyLFClk.c **** 
 173:Generated_Source\PSoC4/CyLFClk.c ****     /* Write default ILO trim value while ILO starting ( Cypress ID 225244 )*/
 174:Generated_Source\PSoC4/CyLFClk.c ****     if (0u == iloTrimTrig)
 175:Generated_Source\PSoC4/CyLFClk.c ****     {
 176:Generated_Source\PSoC4/CyLFClk.c ****         defaultIloTrimRegValue = ((uint8)(CY_SYS_CLK_ILO_TRIM_REG & CY_SYS_CLK_ILO_TRIM_MASK));
 177:Generated_Source\PSoC4/CyLFClk.c ****         iloTrimTrig = 1u;
 178:Generated_Source\PSoC4/CyLFClk.c ****     }
 179:Generated_Source\PSoC4/CyLFClk.c **** #endif /* (CY_IP_SRSSV2 && (!CY_IP_CPUSS)) */
 180:Generated_Source\PSoC4/CyLFClk.c **** 
 181:Generated_Source\PSoC4/CyLFClk.c ****     /* Configure measurement counters to source by SysClk (Counter 1) and ILO (Counter 2)*/
 182:Generated_Source\PSoC4/CyLFClk.c ****     CY_SYS_CLK_DFT_REG = (CY_SYS_CLK_DFT_REG & (uint32) ~CY_SYS_CLK_DFT_SELECT_DEFAULT_MASK) |
 183:Generated_Source\PSoC4/CyLFClk.c ****                             CY_SYS_CLK_SEL_ILO_DFT_SOURCE; 
 184:Generated_Source\PSoC4/CyLFClk.c **** 
 185:Generated_Source\PSoC4/CyLFClk.c ****     CY_SYS_TST_DDFT_CTRL_REG = (CY_SYS_TST_DDFT_CTRL_REG & (uint32) ~ CY_SYS_TST_DDFT_CTRL_REG_DEFA
 186:Generated_Source\PSoC4/CyLFClk.c ****                             CY_SYS_TST_DDFT_CTRL_REG_SEL2_CLK1;
 187:Generated_Source\PSoC4/CyLFClk.c **** }
 188:Generated_Source\PSoC4/CyLFClk.c **** 
 189:Generated_Source\PSoC4/CyLFClk.c **** 
 190:Generated_Source\PSoC4/CyLFClk.c **** /******************************************************************************
 191:Generated_Source\PSoC4/CyLFClk.c **** * Function Name: CySysClkIloStopMeasurement
 192:Generated_Source\PSoC4/CyLFClk.c **** ***************************************************************************//**
 193:Generated_Source\PSoC4/CyLFClk.c **** * \brief
 194:Generated_Source\PSoC4/CyLFClk.c **** * Stops the ILO accuracy measurement.
 195:Generated_Source\PSoC4/CyLFClk.c **** *
 196:Generated_Source\PSoC4/CyLFClk.c **** * Calling this function immediately stops the the ILO frequency measurement.
 197:Generated_Source\PSoC4/CyLFClk.c **** * This function should be called before placing the device to deepsleep, if 
 198:Generated_Source\PSoC4/CyLFClk.c **** * CySysClkIloStartMeasurement() API was called before. 
 199:Generated_Source\PSoC4/CyLFClk.c **** *
 200:Generated_Source\PSoC4/CyLFClk.c **** ******************************************************************************/
 201:Generated_Source\PSoC4/CyLFClk.c **** void CySysClkIloStopMeasurement(void)
 202:Generated_Source\PSoC4/CyLFClk.c **** {
ARM GAS  C:\Users\tuanngu\AppData\Local\Temp\cckQ6cTy.s 			page 5


 203:Generated_Source\PSoC4/CyLFClk.c ****     /* Set default configurations in 11...8 DFT register bits to zero */
 204:Generated_Source\PSoC4/CyLFClk.c ****     CY_SYS_CLK_DFT_REG &= ~CY_SYS_CLK_DFT_SELECT_DEFAULT_MASK;
 205:Generated_Source\PSoC4/CyLFClk.c ****     #if(CY_IP_SRSSLT)
 206:Generated_Source\PSoC4/CyLFClk.c ****         CY_SYS_TST_DDFT_CTRL_REG &= ((uint32) CY_SYS_TST_DDFT_CTRL_REG_DEFAULT_MASK);
 207:Generated_Source\PSoC4/CyLFClk.c ****     #endif /* (CY_IP_SRSSLT) */
 208:Generated_Source\PSoC4/CyLFClk.c **** }
 209:Generated_Source\PSoC4/CyLFClk.c **** 
 210:Generated_Source\PSoC4/CyLFClk.c **** 
 211:Generated_Source\PSoC4/CyLFClk.c **** /******************************************************************************
 212:Generated_Source\PSoC4/CyLFClk.c **** * Function Name: CySysClkIloCompensate
 213:Generated_Source\PSoC4/CyLFClk.c **** ***************************************************************************//**
 214:Generated_Source\PSoC4/CyLFClk.c **** * \brief
 215:Generated_Source\PSoC4/CyLFClk.c **** * This API measures the current ILO accuracy.
 216:Generated_Source\PSoC4/CyLFClk.c **** *
 217:Generated_Source\PSoC4/CyLFClk.c **** * Basing on the measured frequency the required number of ILO cycles for a 
 218:Generated_Source\PSoC4/CyLFClk.c **** * given delay (in microseconds) is obtained. The desired delay that needs to 
 219:Generated_Source\PSoC4/CyLFClk.c **** * be compensated is passed through the desiredDelay parameter. The compensated 
 220:Generated_Source\PSoC4/CyLFClk.c **** * cycle count is returned through the compesatedCycles pointer.
 221:Generated_Source\PSoC4/CyLFClk.c **** * The compensated ILO cycles can then be used to define the WDT period value, 
 222:Generated_Source\PSoC4/CyLFClk.c **** * effectively compensating for the ILO inaccuracy and allowing a more 
 223:Generated_Source\PSoC4/CyLFClk.c **** * accurate WDT interrupt generation.
 224:Generated_Source\PSoC4/CyLFClk.c **** *
 225:Generated_Source\PSoC4/CyLFClk.c **** * CySysClkIloStartMeasurement() API should be called prior to calling this API. 
 226:Generated_Source\PSoC4/CyLFClk.c **** *
 227:Generated_Source\PSoC4/CyLFClk.c **** * \note SysClk should be sourced by IMO. Otherwise CySysClkIloTrim() and 
 228:Generated_Source\PSoC4/CyLFClk.c **** * CySysClkIloCompensate() API can give incorrect results.
 229:Generated_Source\PSoC4/CyLFClk.c **** *
 230:Generated_Source\PSoC4/CyLFClk.c **** * \note If the System clock frequency is changed in runtime, the CyDelayFreq() 
 231:Generated_Source\PSoC4/CyLFClk.c **** * with the appropriate parameter (Frequency of bus clock in Hertz) should be 
 232:Generated_Source\PSoC4/CyLFClk.c **** * called before calling a next CySysClkIloCompensate().
 233:Generated_Source\PSoC4/CyLFClk.c **** *
 234:Generated_Source\PSoC4/CyLFClk.c **** * \warning Do not enter deep sleep mode until the function returns CYRET_SUCCESS.
 235:Generated_Source\PSoC4/CyLFClk.c **** *
 236:Generated_Source\PSoC4/CyLFClk.c **** * \param desiredDelay Required delay in microseconds.
 237:Generated_Source\PSoC4/CyLFClk.c **** *
 238:Generated_Source\PSoC4/CyLFClk.c **** * \param *compensatedCycles The pointer to the variable in which the required
 239:Generated_Source\PSoC4/CyLFClk.c **** * number of ILO cycles for the given delay will be returned.
 240:Generated_Source\PSoC4/CyLFClk.c **** *
 241:Generated_Source\PSoC4/CyLFClk.c **** * \details
 242:Generated_Source\PSoC4/CyLFClk.c **** * The value returned in *compensatedCycles pointer is not valid until the 
 243:Generated_Source\PSoC4/CyLFClk.c **** * function returns CYRET_SUCCESS.
 244:Generated_Source\PSoC4/CyLFClk.c **** *
 245:Generated_Source\PSoC4/CyLFClk.c **** * The desiredDelay parameter value should be in next range: <br>From 100 to 
 246:Generated_Source\PSoC4/CyLFClk.c **** * 2 000 000 microseconds for PSoC 4000 / PSoC 4000S / PSoC 4100S / PSoC Analog 
 247:Generated_Source\PSoC4/CyLFClk.c **** * Coprocessor devices.<br>From 100 to 4 000 000 000 microseconds for 
 248:Generated_Source\PSoC4/CyLFClk.c **** * PSoC 4100 / PSoC 4200 / PSoC 4100 BLE / PSoC 4200 BLE / PRoC BLE /
 249:Generated_Source\PSoC4/CyLFClk.c **** * PSoC 4200L / PSoC 4100M /PSoC 4200M devices.
 250:Generated_Source\PSoC4/CyLFClk.c **** *
 251:Generated_Source\PSoC4/CyLFClk.c **** * \return CYRET_SUCCESS - The compensation process is complete and the 
 252:Generated_Source\PSoC4/CyLFClk.c **** * compensated cycles value is returned in the compensatedCycles pointer.
 253:Generated_Source\PSoC4/CyLFClk.c **** *
 254:Generated_Source\PSoC4/CyLFClk.c **** * \return CYRET_STARTED - Indicates measurement is in progress. It is 
 255:Generated_Source\PSoC4/CyLFClk.c **** * strongly recommended to do not make pauses between API calling. The 
 256:Generated_Source\PSoC4/CyLFClk.c **** * function should be called repeatedly until the API returns CYRET_SUCCESS.
 257:Generated_Source\PSoC4/CyLFClk.c **** *
 258:Generated_Source\PSoC4/CyLFClk.c **** * \return CYRET_INVALID_STATE - Indicates that measurement not started. 
 259:Generated_Source\PSoC4/CyLFClk.c **** * The user should call CySysClkIloStartMeasurement() API before calling 
ARM GAS  C:\Users\tuanngu\AppData\Local\Temp\cckQ6cTy.s 			page 6


 260:Generated_Source\PSoC4/CyLFClk.c **** * this API.
 261:Generated_Source\PSoC4/CyLFClk.c **** *
 262:Generated_Source\PSoC4/CyLFClk.c **** * \note For a correct WDT or DeepSleep Timers functioning with ILO compensating 
 263:Generated_Source\PSoC4/CyLFClk.c **** * the CySysClkIloCompensate() should be called before WDT or DeepSleep Timers 
 264:Generated_Source\PSoC4/CyLFClk.c **** * enabling.
 265:Generated_Source\PSoC4/CyLFClk.c **** *
 266:Generated_Source\PSoC4/CyLFClk.c **** *******************************************************************************/
 267:Generated_Source\PSoC4/CyLFClk.c **** cystatus CySysClkIloCompensate(uint32 desiredDelay , uint32* compensatedCycles)
 268:Generated_Source\PSoC4/CyLFClk.c **** {
 269:Generated_Source\PSoC4/CyLFClk.c ****     uint32 iloCompensatedCycles;
 270:Generated_Source\PSoC4/CyLFClk.c ****     uint32 desiredDelayInCounts;
 271:Generated_Source\PSoC4/CyLFClk.c ****     static uint32 compensateRunningStatus = CY_SYS_CLK_TRIM_OR_COMP_FINISHED;
 272:Generated_Source\PSoC4/CyLFClk.c ****     uint32 checkStatus;
 273:Generated_Source\PSoC4/CyLFClk.c ****     cystatus returnStatus;
 274:Generated_Source\PSoC4/CyLFClk.c **** 
 275:Generated_Source\PSoC4/CyLFClk.c ****     checkStatus = (uint32) (CY_SYS_CLK_DFT_REG & (uint32) CY_SYS_TST_DDFT_CTRL_REG_DEFAULT_MASK);
 276:Generated_Source\PSoC4/CyLFClk.c **** 
 277:Generated_Source\PSoC4/CyLFClk.c ****     /* Check if CySysStartMeasurement was called before */
 278:Generated_Source\PSoC4/CyLFClk.c ****     if((checkStatus == CY_SYS_CLK_SEL_ILO_DFT_SOURCE) && 
 279:Generated_Source\PSoC4/CyLFClk.c ****        (CY_SYS_TST_DDFT_CTRL_REG == CY_SYS_TST_DDFT_CTRL_REG_SEL2_CLK1) &&
 280:Generated_Source\PSoC4/CyLFClk.c ****        (CY_SYS_CLK_MAX_DELAY_US >= desiredDelay) &&
 281:Generated_Source\PSoC4/CyLFClk.c ****        (CY_SYS_CLK_MIN_DELAY_US <= desiredDelay) &&
 282:Generated_Source\PSoC4/CyLFClk.c ****        (compensatedCycles !=  NULL))
 283:Generated_Source\PSoC4/CyLFClk.c ****     {
 284:Generated_Source\PSoC4/CyLFClk.c ****         if(CY_SYS_CLK_TRIM_OR_COMP_FINISHED != compensateRunningStatus)
 285:Generated_Source\PSoC4/CyLFClk.c ****         {
 286:Generated_Source\PSoC4/CyLFClk.c ****             /* Wait until counter 1 stopped counting and after it calculate compensated cycles */
 287:Generated_Source\PSoC4/CyLFClk.c ****             if(0u != (CY_SYS_CNT_REG1_REG & CY_SYS_CLK_ILO_CALIBR_COMPLETE_MASK))
 288:Generated_Source\PSoC4/CyLFClk.c ****             {
 289:Generated_Source\PSoC4/CyLFClk.c ****                 if (0u != CY_SYS_CNT_REG2_REG)
 290:Generated_Source\PSoC4/CyLFClk.c ****                 {
 291:Generated_Source\PSoC4/CyLFClk.c ****                     /* Calculate required number of ILO cycles for given delay */
 292:Generated_Source\PSoC4/CyLFClk.c ****                     #if(CY_IP_SRSSV2)
 293:Generated_Source\PSoC4/CyLFClk.c ****                         if (CY_SYS_CLK_DELAY_COUNTS_LIMIT < desiredDelay)
 294:Generated_Source\PSoC4/CyLFClk.c ****                         {
 295:Generated_Source\PSoC4/CyLFClk.c ****                             desiredDelayInCounts = (desiredDelay / CY_SYS_CLK_ILO_PERIOD);
 296:Generated_Source\PSoC4/CyLFClk.c ****                             iloCompensatedCycles = 
 297:Generated_Source\PSoC4/CyLFClk.c ****                             (((CY_SYS_CNT_REG2_REG * cydelayFreqHz) / (cydelayFreqHz >> CY_SYS_CLK_
 298:Generated_Source\PSoC4/CyLFClk.c ****                                 CY_SYS_CLK_ILO_FREQ_2MSB) * (desiredDelayInCounts / CY_SYS_CLK_ILO_
 299:Generated_Source\PSoC4/CyLFClk.c ****                         }
 300:Generated_Source\PSoC4/CyLFClk.c ****                         else
 301:Generated_Source\PSoC4/CyLFClk.c ****                         {
 302:Generated_Source\PSoC4/CyLFClk.c ****                             desiredDelayInCounts = ((desiredDelay * CY_SYS_CLK_COEF_PHUNDRED) + 
 303:Generated_Source\PSoC4/CyLFClk.c ****                                                      CY_SYS_CLK_HALF_OF_CLOCK) / CY_SYS_CLK_ILO_PER
 304:Generated_Source\PSoC4/CyLFClk.c **** 
 305:Generated_Source\PSoC4/CyLFClk.c ****                             iloCompensatedCycles = (((CY_SYS_CNT_REG2_REG * cydelayFreqHz) / 
 306:Generated_Source\PSoC4/CyLFClk.c ****                                                      (cydelayFreqHz >> CY_SYS_CLK_SYS_CLK_DEVIDER))
 307:Generated_Source\PSoC4/CyLFClk.c ****                                                      desiredDelayInCounts) / CY_SYS_CLK_ILO_DESIRED
 308:Generated_Source\PSoC4/CyLFClk.c ****                         }
 309:Generated_Source\PSoC4/CyLFClk.c ****                     #else /* (CY_IP_SRSSLT) */
 310:Generated_Source\PSoC4/CyLFClk.c ****                         desiredDelayInCounts = ((desiredDelay * CY_SYS_CLK_COEF_PHUNDRED) + CY_SYS_
 311:Generated_Source\PSoC4/CyLFClk.c ****                                                                                            CY_SYS_C
 312:Generated_Source\PSoC4/CyLFClk.c ****                         if(CY_SYS_CLK_MAX_LITE_NUMBER < desiredDelayInCounts)
 313:Generated_Source\PSoC4/CyLFClk.c ****                         {
 314:Generated_Source\PSoC4/CyLFClk.c ****                             iloCompensatedCycles = (((CY_SYS_CNT_REG2_REG * cydelayFreqHz) / (cydel
 315:Generated_Source\PSoC4/CyLFClk.c ****                                                    CY_SYS_CLK_SYS_CLK_DEVIDER)) / CY_SYS_CLK_ILO_FR
 316:Generated_Source\PSoC4/CyLFClk.c ****                                                    (desiredDelayInCounts / CY_SYS_CLK_ILO_FREQ_3LSB
ARM GAS  C:\Users\tuanngu\AppData\Local\Temp\cckQ6cTy.s 			page 7


 317:Generated_Source\PSoC4/CyLFClk.c ****                         }
 318:Generated_Source\PSoC4/CyLFClk.c ****                         else
 319:Generated_Source\PSoC4/CyLFClk.c ****                         {
 320:Generated_Source\PSoC4/CyLFClk.c ****                             iloCompensatedCycles = (((CY_SYS_CNT_REG2_REG * cydelayFreqHz) / 
 321:Generated_Source\PSoC4/CyLFClk.c ****                                                      (cydelayFreqHz >> CY_SYS_CLK_SYS_CLK_DEVIDER))
 322:Generated_Source\PSoC4/CyLFClk.c ****                                                      desiredDelayInCounts) / CY_SYS_CLK_ILO_DESIRED
 323:Generated_Source\PSoC4/CyLFClk.c ****                         }
 324:Generated_Source\PSoC4/CyLFClk.c ****                     #endif /* (CY_IP_SRSSV2) */
 325:Generated_Source\PSoC4/CyLFClk.c **** 
 326:Generated_Source\PSoC4/CyLFClk.c ****                     *compensatedCycles = iloCompensatedCycles;
 327:Generated_Source\PSoC4/CyLFClk.c ****                     compensateRunningStatus = CY_SYS_CLK_TRIM_OR_COMP_FINISHED;
 328:Generated_Source\PSoC4/CyLFClk.c ****                     returnStatus = CYRET_SUCCESS;
 329:Generated_Source\PSoC4/CyLFClk.c ****                 }
 330:Generated_Source\PSoC4/CyLFClk.c ****                 else
 331:Generated_Source\PSoC4/CyLFClk.c ****                 {
 332:Generated_Source\PSoC4/CyLFClk.c ****                     returnStatus  = CYRET_INVALID_STATE;
 333:Generated_Source\PSoC4/CyLFClk.c ****                 }
 334:Generated_Source\PSoC4/CyLFClk.c ****             }
 335:Generated_Source\PSoC4/CyLFClk.c ****             else
 336:Generated_Source\PSoC4/CyLFClk.c ****             {
 337:Generated_Source\PSoC4/CyLFClk.c ****                 returnStatus = CYRET_STARTED;
 338:Generated_Source\PSoC4/CyLFClk.c ****             }
 339:Generated_Source\PSoC4/CyLFClk.c ****         }
 340:Generated_Source\PSoC4/CyLFClk.c ****         else
 341:Generated_Source\PSoC4/CyLFClk.c ****         {
 342:Generated_Source\PSoC4/CyLFClk.c ****             /* Reload CNTR 1 count value for next measurement cycle*/
 343:Generated_Source\PSoC4/CyLFClk.c ****             CY_SYS_CNT_REG1_REG = (cydelayFreqHz >> CY_SYS_CLK_SYS_CLK_DEVIDER);
 344:Generated_Source\PSoC4/CyLFClk.c ****             compensateRunningStatus = CY_SYS_CLK_TRIM_OR_COMP_STARTED;
 345:Generated_Source\PSoC4/CyLFClk.c ****             returnStatus = CYRET_STARTED;
 346:Generated_Source\PSoC4/CyLFClk.c ****         }
 347:Generated_Source\PSoC4/CyLFClk.c ****     }
 348:Generated_Source\PSoC4/CyLFClk.c ****     else
 349:Generated_Source\PSoC4/CyLFClk.c ****     {
 350:Generated_Source\PSoC4/CyLFClk.c ****         returnStatus = CYRET_INVALID_STATE;
 351:Generated_Source\PSoC4/CyLFClk.c ****     }
 352:Generated_Source\PSoC4/CyLFClk.c **** 
 353:Generated_Source\PSoC4/CyLFClk.c ****     return (returnStatus);
 354:Generated_Source\PSoC4/CyLFClk.c **** }
 355:Generated_Source\PSoC4/CyLFClk.c **** 
 356:Generated_Source\PSoC4/CyLFClk.c **** 
 357:Generated_Source\PSoC4/CyLFClk.c **** #if(CY_IP_SRSSV2)
 358:Generated_Source\PSoC4/CyLFClk.c ****     /*******************************************************************************
 359:Generated_Source\PSoC4/CyLFClk.c ****     * Function Name: CySysClkIloEnabled
 360:Generated_Source\PSoC4/CyLFClk.c ****     ****************************************************************************//**
 361:Generated_Source\PSoC4/CyLFClk.c ****     *
 362:Generated_Source\PSoC4/CyLFClk.c ****     * \internal
 363:Generated_Source\PSoC4/CyLFClk.c ****     * Reports the ILO enable state.
 364:Generated_Source\PSoC4/CyLFClk.c ****     *
 365:Generated_Source\PSoC4/CyLFClk.c ****     * \return
 366:Generated_Source\PSoC4/CyLFClk.c ****     * 1 if ILO is enabled, and 0 if ILO is disabled.
 367:Generated_Source\PSoC4/CyLFClk.c ****     *
 368:Generated_Source\PSoC4/CyLFClk.c ****     * \endinternal
 369:Generated_Source\PSoC4/CyLFClk.c ****     ********************************************************************************/
 370:Generated_Source\PSoC4/CyLFClk.c ****     static uint32 CySysClkIloEnabled(void)
 371:Generated_Source\PSoC4/CyLFClk.c ****     {
  27              		.loc 1 371 0
  28              		.cfi_startproc
ARM GAS  C:\Users\tuanngu\AppData\Local\Temp\cckQ6cTy.s 			page 8


  29              		@ args = 0, pretend = 0, frame = 0
  30              		@ frame_needed = 0, uses_anonymous_args = 0
  31              		@ link register save eliminated.
 372:Generated_Source\PSoC4/CyLFClk.c ****         /* Prohibits writing to WDT registers and ILO/WCO registers when not equal to 0 */
 373:Generated_Source\PSoC4/CyLFClk.c ****         return ((0u != (CY_SYS_CLK_ILO_CONFIG_REG & (uint32)(CY_SYS_CLK_ILO_CONFIG_ENABLE))) ?
  32              		.loc 1 373 0
  33 0000 034B     		ldr	r3, .L4
  34 0002 1B68     		ldr	r3, [r3]
 374:Generated_Source\PSoC4/CyLFClk.c ****             (uint32) 1u :
  35              		.loc 1 374 0
  36 0004 002B     		cmp	r3, #0
  37 0006 01DA     		bge	.L3
  38 0008 0120     		movs	r0, #1
  39 000a 00E0     		b	.L2
  40              	.L3:
  41 000c 0020     		movs	r0, #0
  42              	.L2:
 375:Generated_Source\PSoC4/CyLFClk.c ****             (uint32) 0u);
 376:Generated_Source\PSoC4/CyLFClk.c ****     }
  43              		.loc 1 376 0
  44              		@ sp needed
  45 000e 7047     		bx	lr
  46              	.L5:
  47              		.align	2
  48              	.L4:
  49 0010 04010B40 		.word	1074462980
  50              		.cfi_endproc
  51              	.LFE7:
  52              		.size	CySysClkIloEnabled, .-CySysClkIloEnabled
  53              		.section	.text.CySysClkGetLfclkSource,"ax",%progbits
  54              		.align	2
  55              		.code	16
  56              		.thumb_func
  57              		.type	CySysClkGetLfclkSource, %function
  58              	CySysClkGetLfclkSource:
  59              	.LFB11:
 377:Generated_Source\PSoC4/CyLFClk.c **** #endif /* (CY_IP_SRSSV2) */
 378:Generated_Source\PSoC4/CyLFClk.c **** 
 379:Generated_Source\PSoC4/CyLFClk.c **** 
 380:Generated_Source\PSoC4/CyLFClk.c **** #if(CY_IP_SRSSV2 && (!CY_IP_CPUSS))
 381:Generated_Source\PSoC4/CyLFClk.c **** /********************************************************************************
 382:Generated_Source\PSoC4/CyLFClk.c **** * Function Name: CySysClkIloTrim
 383:Generated_Source\PSoC4/CyLFClk.c **** *****************************************************************************//**
 384:Generated_Source\PSoC4/CyLFClk.c **** * \brief
 385:Generated_Source\PSoC4/CyLFClk.c **** * The API trims the ILO frequency to +/- 10% accuracy range using accurate 
 386:Generated_Source\PSoC4/CyLFClk.c **** * SysClk.
 387:Generated_Source\PSoC4/CyLFClk.c **** *
 388:Generated_Source\PSoC4/CyLFClk.c **** * The API can be blocking or non-blocking depending on the value of the mode 
 389:Generated_Source\PSoC4/CyLFClk.c **** * parameter passed. The accuracy of ILO after trimming in parts per thousand 
 390:Generated_Source\PSoC4/CyLFClk.c **** * is returned through the iloAccuracyInPPT pointer. A positive number indicates 
 391:Generated_Source\PSoC4/CyLFClk.c **** * that the ILO is running fast and a negative number indicates that the ILO is 
 392:Generated_Source\PSoC4/CyLFClk.c **** * running slowly. This error is relative to the error in the reference clock 
 393:Generated_Source\PSoC4/CyLFClk.c **** * (SysClk), so the absolute error will be higher and depends on the accuracy 
 394:Generated_Source\PSoC4/CyLFClk.c **** * of the reference.
 395:Generated_Source\PSoC4/CyLFClk.c **** *
 396:Generated_Source\PSoC4/CyLFClk.c **** * The CySysClkIloStartMeasurement() API should be called prior to calling this 
 397:Generated_Source\PSoC4/CyLFClk.c **** * API. Otherwise it will return CYRET_INVALID_STATE as the measurement was not 
ARM GAS  C:\Users\tuanngu\AppData\Local\Temp\cckQ6cTy.s 			page 9


 398:Generated_Source\PSoC4/CyLFClk.c **** * started.
 399:Generated_Source\PSoC4/CyLFClk.c **** *
 400:Generated_Source\PSoC4/CyLFClk.c **** * \note SysClk should be sourced by IMO. Otherwise CySysClkIloTrim() and 
 401:Generated_Source\PSoC4/CyLFClk.c **** * CySysClkIloCompensate() API can give incorrect results.
 402:Generated_Source\PSoC4/CyLFClk.c **** *
 403:Generated_Source\PSoC4/CyLFClk.c **** * \note If System clock frequency is changed in runtime, the CyDelayFreq() 
 404:Generated_Source\PSoC4/CyLFClk.c **** * with the appropriate parameter (Frequency of bus clock in Hertz) should be 
 405:Generated_Source\PSoC4/CyLFClk.c **** * called before next CySysClkIloCompensate() usage.
 406:Generated_Source\PSoC4/CyLFClk.c **** *
 407:Generated_Source\PSoC4/CyLFClk.c **** * \warning Do not enter deep sleep mode until the function returns CYRET_SUCCESS
 408:Generated_Source\PSoC4/CyLFClk.c **** * or CYRET_TIMEOUT.
 409:Generated_Source\PSoC4/CyLFClk.c **** *
 410:Generated_Source\PSoC4/CyLFClk.c **** * Available for all PSoC 4 devices with ILO trim capability. This excludes 
 411:Generated_Source\PSoC4/CyLFClk.c **** * PSoC 4000 / PSoC 4100 / PSoC 4200 / PSoC 4000S / PSoC 4100S / PSoC
 412:Generated_Source\PSoC4/CyLFClk.c **** * Analog Coprocessor devices.
 413:Generated_Source\PSoC4/CyLFClk.c **** *
 414:Generated_Source\PSoC4/CyLFClk.c **** * \param mode
 415:Generated_Source\PSoC4/CyLFClk.c **** *  CY_SYS_CLK_BLOCKING -  The function does not return until the ILO is 
 416:Generated_Source\PSoC4/CyLFClk.c **** * within +/-10% accuracy range or time out has occurred.<br>
 417:Generated_Source\PSoC4/CyLFClk.c **** * CY_SYS_CLK_NON_BLOCKING - The function returns immediately after 
 418:Generated_Source\PSoC4/CyLFClk.c **** * performing a single iteration of the trim process. The function should be 
 419:Generated_Source\PSoC4/CyLFClk.c **** * called repeatedly until the trimming is completed successfully.
 420:Generated_Source\PSoC4/CyLFClk.c **** *
 421:Generated_Source\PSoC4/CyLFClk.c **** * \param *iloAccuracyInPPT Pointer to an integer in which the trimmed ILO 
 422:Generated_Source\PSoC4/CyLFClk.c **** * accuracy will be returned.
 423:Generated_Source\PSoC4/CyLFClk.c **** *
 424:Generated_Source\PSoC4/CyLFClk.c **** * \details The value returned in *iloAccuracyInPPT pointer is not valid 
 425:Generated_Source\PSoC4/CyLFClk.c **** * until the function returns CYRET_SUCCESS. ILO accuracy in PPT is given by:
 426:Generated_Source\PSoC4/CyLFClk.c **** *
 427:Generated_Source\PSoC4/CyLFClk.c **** * IloAccuracyInPPT = ((MeasuredIloFreq - DesiredIloFreq) * 
 428:Generated_Source\PSoC4/CyLFClk.c **** * CY_SYS_CLK_PERTHOUSAND) / DesiredIloFreq);
 429:Generated_Source\PSoC4/CyLFClk.c **** *
 430:Generated_Source\PSoC4/CyLFClk.c **** * DesiredIloFreq  = 32000, CY_SYS_CLK_PERTHOUSAND = 1000;
 431:Generated_Source\PSoC4/CyLFClk.c **** *
 432:Generated_Source\PSoC4/CyLFClk.c **** * \return CYRET_SUCCESS - Indicates trimming is complete. This value indicates 
 433:Generated_Source\PSoC4/CyLFClk.c **** * trimming is successful and iloAccuracyInPPT is within +/- 10%.
 434:Generated_Source\PSoC4/CyLFClk.c **** *
 435:Generated_Source\PSoC4/CyLFClk.c **** * \return CYRET_STARTED - Indicates measurement is in progress. This is applicable 
 436:Generated_Source\PSoC4/CyLFClk.c **** * only for non-blocking mode.
 437:Generated_Source\PSoC4/CyLFClk.c **** *
 438:Generated_Source\PSoC4/CyLFClk.c **** * \return CYRET_INVALID_STATE - Indicates trimming was unsuccessful. You should 
 439:Generated_Source\PSoC4/CyLFClk.c **** * call CySysClkIloStartMeasurement() before calling this API.
 440:Generated_Source\PSoC4/CyLFClk.c **** *
 441:Generated_Source\PSoC4/CyLFClk.c **** * \return CYRET_TIMEOUT - Indicates trimming was unsuccessful. This is applicable 
 442:Generated_Source\PSoC4/CyLFClk.c **** * only for blocking mode. Timeout means the trimming was tried 5 times without 
 443:Generated_Source\PSoC4/CyLFClk.c **** * success (i.e. ILO accuracy > +/- 10%). The user can call the API again for 
 444:Generated_Source\PSoC4/CyLFClk.c **** * another try or wait for some time before calling it again (to let the system 
 445:Generated_Source\PSoC4/CyLFClk.c **** * to settle to another operating point change in temperature etc.) and continue 
 446:Generated_Source\PSoC4/CyLFClk.c **** * using the previous trim value till the next call.
 447:Generated_Source\PSoC4/CyLFClk.c **** *
 448:Generated_Source\PSoC4/CyLFClk.c **** **********************************************************************************/
 449:Generated_Source\PSoC4/CyLFClk.c **** cystatus CySysClkIloTrim(uint32 mode, int32* iloAccuracyInPPT)
 450:Generated_Source\PSoC4/CyLFClk.c **** {
 451:Generated_Source\PSoC4/CyLFClk.c ****     uint32 timeOutClocks = CY_SYS_CLK_TIMEOUT;
 452:Generated_Source\PSoC4/CyLFClk.c ****     uint32 waitUntilCntr1Stops;
 453:Generated_Source\PSoC4/CyLFClk.c ****     static uint32 trimRunningStatus = CY_SYS_CLK_TRIM_OR_COMP_FINISHED;
 454:Generated_Source\PSoC4/CyLFClk.c ****     uint32 checkStatus;
ARM GAS  C:\Users\tuanngu\AppData\Local\Temp\cckQ6cTy.s 			page 10


 455:Generated_Source\PSoC4/CyLFClk.c ****     cystatus returnStatus;
 456:Generated_Source\PSoC4/CyLFClk.c **** 
 457:Generated_Source\PSoC4/CyLFClk.c ****     checkStatus = (uint32) (CY_SYS_CLK_DFT_REG & (uint32) CY_SYS_TST_DDFT_CTRL_REG_DEFAULT_MASK);
 458:Generated_Source\PSoC4/CyLFClk.c **** 
 459:Generated_Source\PSoC4/CyLFClk.c ****     /* Check if DFT and CTRL registers were configures in CySysStartMeasurement*/
 460:Generated_Source\PSoC4/CyLFClk.c ****     if((checkStatus == CY_SYS_CLK_SEL_ILO_DFT_SOURCE) &&
 461:Generated_Source\PSoC4/CyLFClk.c ****        (CY_SYS_TST_DDFT_CTRL_REG == CY_SYS_TST_DDFT_CTRL_REG_SEL2_CLK1) &&
 462:Generated_Source\PSoC4/CyLFClk.c ****        (iloAccuracyInPPT != NULL))
 463:Generated_Source\PSoC4/CyLFClk.c ****     {
 464:Generated_Source\PSoC4/CyLFClk.c ****         if(CY_SYS_CLK_BLOCKING == mode)
 465:Generated_Source\PSoC4/CyLFClk.c ****         {
 466:Generated_Source\PSoC4/CyLFClk.c ****             waitUntilCntr1Stops = cydelayFreqHz >> CY_SYS_CLK_SYS_CLK_DEVIDER;
 467:Generated_Source\PSoC4/CyLFClk.c ****             do
 468:Generated_Source\PSoC4/CyLFClk.c ****             {
 469:Generated_Source\PSoC4/CyLFClk.c ****                 /* Reload CNTR 1 count value for measuring cycle*/
 470:Generated_Source\PSoC4/CyLFClk.c ****                 CY_SYS_CNT_REG1_REG = cydelayFreqHz >> CY_SYS_CLK_SYS_CLK_DEVIDER; 
 471:Generated_Source\PSoC4/CyLFClk.c **** 
 472:Generated_Source\PSoC4/CyLFClk.c ****                 /* Wait until counter CNTR 1 will finish down-counting */
 473:Generated_Source\PSoC4/CyLFClk.c ****                 while (0u == (CY_SYS_CNT_REG1_REG & CY_SYS_CLK_ILO_CALIBR_COMPLETE_MASK))
 474:Generated_Source\PSoC4/CyLFClk.c ****                 {
 475:Generated_Source\PSoC4/CyLFClk.c ****                     waitUntilCntr1Stops--;
 476:Generated_Source\PSoC4/CyLFClk.c ****                     if (0u == waitUntilCntr1Stops)
 477:Generated_Source\PSoC4/CyLFClk.c ****                     {
 478:Generated_Source\PSoC4/CyLFClk.c ****                         break;
 479:Generated_Source\PSoC4/CyLFClk.c ****                     }
 480:Generated_Source\PSoC4/CyLFClk.c ****                 }
 481:Generated_Source\PSoC4/CyLFClk.c ****                 trimRunningStatus = CySysClkIloUpdateTrimReg(iloAccuracyInPPT);
 482:Generated_Source\PSoC4/CyLFClk.c ****                 timeOutClocks--;
 483:Generated_Source\PSoC4/CyLFClk.c **** 
 484:Generated_Source\PSoC4/CyLFClk.c ****             /* Untill ILO accuracy will be in range less than +/- 10% or timeout occurs*/
 485:Generated_Source\PSoC4/CyLFClk.c ****             } while((CYRET_SUCCESS != trimRunningStatus) && 
 486:Generated_Source\PSoC4/CyLFClk.c ****               (CYRET_INVALID_STATE != trimRunningStatus) && 
 487:Generated_Source\PSoC4/CyLFClk.c ****                                (0u != timeOutClocks));
 488:Generated_Source\PSoC4/CyLFClk.c **** 
 489:Generated_Source\PSoC4/CyLFClk.c ****             if (CYRET_SUCCESS == trimRunningStatus)
 490:Generated_Source\PSoC4/CyLFClk.c ****             {
 491:Generated_Source\PSoC4/CyLFClk.c ****                 returnStatus = CYRET_SUCCESS;
 492:Generated_Source\PSoC4/CyLFClk.c ****             }
 493:Generated_Source\PSoC4/CyLFClk.c ****             else
 494:Generated_Source\PSoC4/CyLFClk.c ****             {
 495:Generated_Source\PSoC4/CyLFClk.c ****                 if(0u == timeOutClocks)
 496:Generated_Source\PSoC4/CyLFClk.c ****                 {
 497:Generated_Source\PSoC4/CyLFClk.c ****                     trimRunningStatus = CY_SYS_CLK_TRIM_OR_COMP_FINISHED;
 498:Generated_Source\PSoC4/CyLFClk.c ****                     returnStatus = CYRET_TIMEOUT;
 499:Generated_Source\PSoC4/CyLFClk.c ****                 }
 500:Generated_Source\PSoC4/CyLFClk.c ****                 else
 501:Generated_Source\PSoC4/CyLFClk.c ****                 {
 502:Generated_Source\PSoC4/CyLFClk.c ****                     returnStatus = CYRET_INVALID_STATE;
 503:Generated_Source\PSoC4/CyLFClk.c ****                 }
 504:Generated_Source\PSoC4/CyLFClk.c ****             }
 505:Generated_Source\PSoC4/CyLFClk.c ****         }
 506:Generated_Source\PSoC4/CyLFClk.c ****         /* Non - blocking mode */
 507:Generated_Source\PSoC4/CyLFClk.c ****         else
 508:Generated_Source\PSoC4/CyLFClk.c ****         {
 509:Generated_Source\PSoC4/CyLFClk.c ****             if (CY_SYS_CLK_TRIM_OR_COMP_FINISHED != trimRunningStatus)
 510:Generated_Source\PSoC4/CyLFClk.c ****             {
 511:Generated_Source\PSoC4/CyLFClk.c ****                 /* Checking if the counter CNTR 1 finished down-counting */
ARM GAS  C:\Users\tuanngu\AppData\Local\Temp\cckQ6cTy.s 			page 11


 512:Generated_Source\PSoC4/CyLFClk.c ****                 if(0u != (CY_SYS_CNT_REG1_REG & CY_SYS_CLK_ILO_CALIBR_COMPLETE_MASK))
 513:Generated_Source\PSoC4/CyLFClk.c ****                 {
 514:Generated_Source\PSoC4/CyLFClk.c ****                     returnStatus = CySysClkIloUpdateTrimReg(iloAccuracyInPPT);
 515:Generated_Source\PSoC4/CyLFClk.c ****                     trimRunningStatus = CY_SYS_CLK_TRIM_OR_COMP_FINISHED;
 516:Generated_Source\PSoC4/CyLFClk.c ****                 }
 517:Generated_Source\PSoC4/CyLFClk.c ****                 else
 518:Generated_Source\PSoC4/CyLFClk.c ****                 {
 519:Generated_Source\PSoC4/CyLFClk.c ****                     returnStatus = CYRET_STARTED;
 520:Generated_Source\PSoC4/CyLFClk.c ****                 }
 521:Generated_Source\PSoC4/CyLFClk.c ****             }
 522:Generated_Source\PSoC4/CyLFClk.c ****             else
 523:Generated_Source\PSoC4/CyLFClk.c ****             {
 524:Generated_Source\PSoC4/CyLFClk.c ****                 /* Reload CNTR 1 count value for next measuring */
 525:Generated_Source\PSoC4/CyLFClk.c ****                 CY_SYS_CNT_REG1_REG = cydelayFreqHz >> CY_SYS_CLK_SYS_CLK_DEVIDER;
 526:Generated_Source\PSoC4/CyLFClk.c ****                 trimRunningStatus = CY_SYS_CLK_TRIM_OR_COMP_STARTED;
 527:Generated_Source\PSoC4/CyLFClk.c ****                 returnStatus = CYRET_STARTED;
 528:Generated_Source\PSoC4/CyLFClk.c ****             }
 529:Generated_Source\PSoC4/CyLFClk.c ****         }
 530:Generated_Source\PSoC4/CyLFClk.c ****     }
 531:Generated_Source\PSoC4/CyLFClk.c ****     else
 532:Generated_Source\PSoC4/CyLFClk.c ****     {
 533:Generated_Source\PSoC4/CyLFClk.c ****         returnStatus = CYRET_INVALID_STATE;
 534:Generated_Source\PSoC4/CyLFClk.c ****     }
 535:Generated_Source\PSoC4/CyLFClk.c **** 
 536:Generated_Source\PSoC4/CyLFClk.c ****     return (returnStatus);
 537:Generated_Source\PSoC4/CyLFClk.c **** }
 538:Generated_Source\PSoC4/CyLFClk.c **** 
 539:Generated_Source\PSoC4/CyLFClk.c **** 
 540:Generated_Source\PSoC4/CyLFClk.c **** /********************************************************************************
 541:Generated_Source\PSoC4/CyLFClk.c **** * Function Name: CySysClkIloUpdateTrimReg
 542:Generated_Source\PSoC4/CyLFClk.c **** *********************************************************************************
 543:Generated_Source\PSoC4/CyLFClk.c **** *
 544:Generated_Source\PSoC4/CyLFClk.c **** * \internal
 545:Generated_Source\PSoC4/CyLFClk.c **** * Function calculates ILO accuracy and check is error range is higher than 
 546:Generated_Source\PSoC4/CyLFClk.c **** * +/- 10%. If Measured frequency is higher than +/- 10% function updates 
 547:Generated_Source\PSoC4/CyLFClk.c **** * ILO Trim register.
 548:Generated_Source\PSoC4/CyLFClk.c **** *
 549:Generated_Source\PSoC4/CyLFClk.c **** * \param
 550:Generated_Source\PSoC4/CyLFClk.c **** * iloAccuracyInPPT Pointer to an integer in which the trimmed ILO 
 551:Generated_Source\PSoC4/CyLFClk.c **** * accuracy will be returned. The value returned in this pointer is not valid 
 552:Generated_Source\PSoC4/CyLFClk.c **** * until the function returns CYRET_SUCCESS. If ILO frequency error is lower 
 553:Generated_Source\PSoC4/CyLFClk.c **** * than +/- 10% then the value returned in this pointer will be updated.
 554:Generated_Source\PSoC4/CyLFClk.c **** *
 555:Generated_Source\PSoC4/CyLFClk.c **** * \return CYRET_SUCCESS - Indicates that ILO frequency error is lower than 
 556:Generated_Source\PSoC4/CyLFClk.c **** * +/- 10% and no actions are required.
 557:Generated_Source\PSoC4/CyLFClk.c **** *
 558:Generated_Source\PSoC4/CyLFClk.c **** * \return  CYRET_STARTED - Indicates that ILO frequency error is higher than 
 559:Generated_Source\PSoC4/CyLFClk.c **** * +/- 10% and ILO Trim register was updated.
 560:Generated_Source\PSoC4/CyLFClk.c **** *
 561:Generated_Source\PSoC4/CyLFClk.c **** * \return CYRET_INVALID_STATE - Indicates trimming was unsuccessful.
 562:Generated_Source\PSoC4/CyLFClk.c **** *
 563:Generated_Source\PSoC4/CyLFClk.c **** * Post #1 - To obtain 10% ILO accuracy the calculated accuracy should be equal 
 564:Generated_Source\PSoC4/CyLFClk.c **** * CY_SYS_CLK_ERROR_RANGE = 5.6%. Error value should take to account IMO error of 
 565:Generated_Source\PSoC4/CyLFClk.c **** * +/-2% (+/-0.64kHz), trim step of 2.36kHz (+/-1.18kHz) and error while ILO 
 566:Generated_Source\PSoC4/CyLFClk.c **** * frequency measuring.
 567:Generated_Source\PSoC4/CyLFClk.c **** *
 568:Generated_Source\PSoC4/CyLFClk.c **** * \endinternal
ARM GAS  C:\Users\tuanngu\AppData\Local\Temp\cckQ6cTy.s 			page 12


 569:Generated_Source\PSoC4/CyLFClk.c **** *
 570:Generated_Source\PSoC4/CyLFClk.c **** **********************************************************************************/
 571:Generated_Source\PSoC4/CyLFClk.c **** cystatus CySysClkIloUpdateTrimReg(int32* iloAccuracyInPPT)
 572:Generated_Source\PSoC4/CyLFClk.c **** {
 573:Generated_Source\PSoC4/CyLFClk.c ****     uint32 measuredIloFreq;
 574:Generated_Source\PSoC4/CyLFClk.c ****     uint32 currentIloTrimValue;
 575:Generated_Source\PSoC4/CyLFClk.c ****     int32 iloAccuracyValue;
 576:Generated_Source\PSoC4/CyLFClk.c ****     int32 trimStep;
 577:Generated_Source\PSoC4/CyLFClk.c ****     cystatus errorRangeStatus;
 578:Generated_Source\PSoC4/CyLFClk.c **** 
 579:Generated_Source\PSoC4/CyLFClk.c ****     if(0u != CY_SYS_CNT_REG2_REG)
 580:Generated_Source\PSoC4/CyLFClk.c ****     {
 581:Generated_Source\PSoC4/CyLFClk.c ****         measuredIloFreq = (CY_SYS_CNT_REG2_REG * cydelayFreqHz) / (cydelayFreqHz >> CY_SYS_CLK_SYS_
 582:Generated_Source\PSoC4/CyLFClk.c **** 
 583:Generated_Source\PSoC4/CyLFClk.c ****         /* Calculate value of error in PPT according to formula - 
 584:Generated_Source\PSoC4/CyLFClk.c ****         *       ((measuredIlofrequency - iloDesired frequency) * 1000 / iloDesired frequency) */
 585:Generated_Source\PSoC4/CyLFClk.c ****         iloAccuracyValue = (((int32) measuredIloFreq - (int32) CY_SYS_CLK_ILO_DESIRED_FREQ_HZ) * \
 586:Generated_Source\PSoC4/CyLFClk.c ****                             ((int32) CY_SYS_CLK_PERTHOUSAND)) / ((int32) CY_SYS_CLK_ILO_DESIRED_FRE
 587:Generated_Source\PSoC4/CyLFClk.c **** 
 588:Generated_Source\PSoC4/CyLFClk.c ****         /* Check if ILO accuracy is more than +/- CY_SYS_CLK_ERROR_RANGE. See post #1 of API descri
 589:Generated_Source\PSoC4/CyLFClk.c ****         if(CY_SYS_CLK_ERROR_RANGE < (uint32) (CY_SYS_CLK_ABS_MACRO(iloAccuracyValue)))
 590:Generated_Source\PSoC4/CyLFClk.c ****         {
 591:Generated_Source\PSoC4/CyLFClk.c ****             if (0 < iloAccuracyValue)
 592:Generated_Source\PSoC4/CyLFClk.c ****             {
 593:Generated_Source\PSoC4/CyLFClk.c ****                 trimStep = (int32) (((iloAccuracyValue * (int32) CY_SYS_CLK_ERROR_COEF) + 
 594:Generated_Source\PSoC4/CyLFClk.c ****                 CY_SYS_CLK_HALF_OF_STEP) / CY_SYS_CLK_ERROR_STEP);
 595:Generated_Source\PSoC4/CyLFClk.c ****             }
 596:Generated_Source\PSoC4/CyLFClk.c ****             else
 597:Generated_Source\PSoC4/CyLFClk.c ****             {
 598:Generated_Source\PSoC4/CyLFClk.c ****                 trimStep = (int32) (((iloAccuracyValue * (int32) CY_SYS_CLK_ERROR_COEF) - 
 599:Generated_Source\PSoC4/CyLFClk.c ****                 CY_SYS_CLK_HALF_OF_STEP) / CY_SYS_CLK_ERROR_STEP);
 600:Generated_Source\PSoC4/CyLFClk.c ****             }
 601:Generated_Source\PSoC4/CyLFClk.c ****             currentIloTrimValue = (CY_SYS_CLK_ILO_TRIM_REG & CY_SYS_CLK_ILO_TRIM_MASK);
 602:Generated_Source\PSoC4/CyLFClk.c ****             trimStep = (int32) currentIloTrimValue - trimStep;
 603:Generated_Source\PSoC4/CyLFClk.c **** 
 604:Generated_Source\PSoC4/CyLFClk.c ****             if(trimStep > CY_SYS_CLK_FOURBITS_MAX)
 605:Generated_Source\PSoC4/CyLFClk.c ****             {
 606:Generated_Source\PSoC4/CyLFClk.c ****                 trimStep = CY_SYS_CLK_FOURBITS_MAX;
 607:Generated_Source\PSoC4/CyLFClk.c ****             }
 608:Generated_Source\PSoC4/CyLFClk.c ****             if(trimStep < 0)
 609:Generated_Source\PSoC4/CyLFClk.c ****             {
 610:Generated_Source\PSoC4/CyLFClk.c ****                 trimStep = 0;
 611:Generated_Source\PSoC4/CyLFClk.c ****             }
 612:Generated_Source\PSoC4/CyLFClk.c ****             CY_SYS_CLK_ILO_TRIM_REG = (CY_SYS_CLK_ILO_TRIM_REG & (uint32)(~CY_SYS_CLK_ILO_TRIM_MASK
 613:Generated_Source\PSoC4/CyLFClk.c ****                                                                  ((uint32) trimStep);
 614:Generated_Source\PSoC4/CyLFClk.c ****             errorRangeStatus = CYRET_STARTED;
 615:Generated_Source\PSoC4/CyLFClk.c ****         } /* Else return success because error is in +/- 10% range*/
 616:Generated_Source\PSoC4/CyLFClk.c ****         else
 617:Generated_Source\PSoC4/CyLFClk.c ****         {
 618:Generated_Source\PSoC4/CyLFClk.c ****             /* Write trimmed ILO accuracy through pointer. */
 619:Generated_Source\PSoC4/CyLFClk.c ****             *iloAccuracyInPPT = iloAccuracyValue;
 620:Generated_Source\PSoC4/CyLFClk.c ****             errorRangeStatus = CYRET_SUCCESS;
 621:Generated_Source\PSoC4/CyLFClk.c ****         }
 622:Generated_Source\PSoC4/CyLFClk.c ****     }
 623:Generated_Source\PSoC4/CyLFClk.c ****     else
 624:Generated_Source\PSoC4/CyLFClk.c ****     {
 625:Generated_Source\PSoC4/CyLFClk.c ****         errorRangeStatus = CYRET_INVALID_STATE;
ARM GAS  C:\Users\tuanngu\AppData\Local\Temp\cckQ6cTy.s 			page 13


 626:Generated_Source\PSoC4/CyLFClk.c ****     }
 627:Generated_Source\PSoC4/CyLFClk.c **** return (errorRangeStatus);
 628:Generated_Source\PSoC4/CyLFClk.c **** }
 629:Generated_Source\PSoC4/CyLFClk.c **** 
 630:Generated_Source\PSoC4/CyLFClk.c **** 
 631:Generated_Source\PSoC4/CyLFClk.c **** /*******************************************************************************
 632:Generated_Source\PSoC4/CyLFClk.c **** * Function Name: CySysClkIloRestoreFactoryTrim
 633:Generated_Source\PSoC4/CyLFClk.c **** ****************************************************************************//**
 634:Generated_Source\PSoC4/CyLFClk.c **** * \brief
 635:Generated_Source\PSoC4/CyLFClk.c **** * Restores the ILO Trim Register to factory value.
 636:Generated_Source\PSoC4/CyLFClk.c **** *
 637:Generated_Source\PSoC4/CyLFClk.c **** * The CySysClkIloStartMeasurement() API should be called prior to 
 638:Generated_Source\PSoC4/CyLFClk.c **** * calling this API. Otherwise CYRET_UNKNOWN will be returned.
 639:Generated_Source\PSoC4/CyLFClk.c **** *
 640:Generated_Source\PSoC4/CyLFClk.c **** * Available for all PSoC 4 devices except for PSoC 4000 / PSoC 4100 / PSoC 4200 
 641:Generated_Source\PSoC4/CyLFClk.c **** * / PSoC 4000S / PSoC 4100S / PSoC Analog Coprocessor devices.
 642:Generated_Source\PSoC4/CyLFClk.c **** *
 643:Generated_Source\PSoC4/CyLFClk.c **** * \return CYRET_SUCCESS - Operation was successful. 
 644:Generated_Source\PSoC4/CyLFClk.c **** * \return CYRET_UNKNOWN - CySysClkIloStartMeasurement() was not called 
 645:Generated_Source\PSoC4/CyLFClk.c **** * before this API. Hence the trim value cannot be updated.
 646:Generated_Source\PSoC4/CyLFClk.c **** *
 647:Generated_Source\PSoC4/CyLFClk.c **** ******************************************************************************/
 648:Generated_Source\PSoC4/CyLFClk.c **** cystatus CySysClkIloRestoreFactoryTrim(void)
 649:Generated_Source\PSoC4/CyLFClk.c **** {
 650:Generated_Source\PSoC4/CyLFClk.c ****     cystatus returnStatus = CYRET_SUCCESS;
 651:Generated_Source\PSoC4/CyLFClk.c **** 
 652:Generated_Source\PSoC4/CyLFClk.c ****     /* Check was defaultIloTrimRegValue modified in CySysClkIloStartMeasurement */
 653:Generated_Source\PSoC4/CyLFClk.c ****     if(CY_SYS_CLK_ILO_TRIM_DEFAULT_VALUE != defaultIloTrimRegValue)
 654:Generated_Source\PSoC4/CyLFClk.c ****         {
 655:Generated_Source\PSoC4/CyLFClk.c ****             CY_SYS_CLK_ILO_TRIM_REG = ((CY_SYS_CLK_ILO_TRIM_REG & (uint32)(~CY_SYS_CLK_ILO_TRIM_MAS
 656:Generated_Source\PSoC4/CyLFClk.c ****                                        (defaultIloTrimRegValue & CY_SYS_CLK_ILO_TRIM_MASK));
 657:Generated_Source\PSoC4/CyLFClk.c ****         }
 658:Generated_Source\PSoC4/CyLFClk.c ****         else
 659:Generated_Source\PSoC4/CyLFClk.c ****         {
 660:Generated_Source\PSoC4/CyLFClk.c ****             returnStatus = CYRET_UNKNOWN;
 661:Generated_Source\PSoC4/CyLFClk.c ****         }
 662:Generated_Source\PSoC4/CyLFClk.c **** 
 663:Generated_Source\PSoC4/CyLFClk.c ****         return (returnStatus);
 664:Generated_Source\PSoC4/CyLFClk.c **** }
 665:Generated_Source\PSoC4/CyLFClk.c **** #endif /* (CY_IP_SRSSV2 && (!CY_IP_CPUSS)) */
 666:Generated_Source\PSoC4/CyLFClk.c **** 
 667:Generated_Source\PSoC4/CyLFClk.c **** 
 668:Generated_Source\PSoC4/CyLFClk.c **** #if (CY_IP_WCO && CY_IP_SRSSV2)
 669:Generated_Source\PSoC4/CyLFClk.c ****     /*******************************************************************************
 670:Generated_Source\PSoC4/CyLFClk.c ****     * Function Name: CySysClkGetLfclkSource
 671:Generated_Source\PSoC4/CyLFClk.c ****     ********************************************************************************
 672:Generated_Source\PSoC4/CyLFClk.c ****     *
 673:Generated_Source\PSoC4/CyLFClk.c ****     * \internal
 674:Generated_Source\PSoC4/CyLFClk.c ****     *  Gets the clock source for the LFCLK clock.
 675:Generated_Source\PSoC4/CyLFClk.c ****     *  The function is applicable only for PSoC 4100 BLE / PSoC 4200 BLE / 
 676:Generated_Source\PSoC4/CyLFClk.c ****     *  PSoC 4100M / PSoC 4200M / PSoC 4200L.
 677:Generated_Source\PSoC4/CyLFClk.c ****     *
 678:Generated_Source\PSoC4/CyLFClk.c ****     * \return The LFCLK source:
 679:Generated_Source\PSoC4/CyLFClk.c ****     * CY_SYS_CLK_LFCLK_SRC_ILO Internal Low Frequency (32 kHz) Oscillator (ILO)
 680:Generated_Source\PSoC4/CyLFClk.c ****     * CY_SYS_CLK_LFCLK_SRC_WCO Low Frequency Watch Crystal Oscillator (WCO)
 681:Generated_Source\PSoC4/CyLFClk.c ****     *
 682:Generated_Source\PSoC4/CyLFClk.c ****     * \endinternal
ARM GAS  C:\Users\tuanngu\AppData\Local\Temp\cckQ6cTy.s 			page 14


 683:Generated_Source\PSoC4/CyLFClk.c ****     *
 684:Generated_Source\PSoC4/CyLFClk.c ****     *******************************************************************************/
 685:Generated_Source\PSoC4/CyLFClk.c ****     static uint32 CySysClkGetLfclkSource(void)
 686:Generated_Source\PSoC4/CyLFClk.c ****     {
  60              		.loc 1 686 0
  61              		.cfi_startproc
  62              		@ args = 0, pretend = 0, frame = 0
  63              		@ frame_needed = 0, uses_anonymous_args = 0
  64              		@ link register save eliminated.
 687:Generated_Source\PSoC4/CyLFClk.c ****         uint32 lfclkSource;
 688:Generated_Source\PSoC4/CyLFClk.c ****         lfclkSource = CY_SYS_WDT_CONFIG_REG & CY_SYS_CLK_LFCLK_SEL_MASK;
  65              		.loc 1 688 0
  66 0000 024B     		ldr	r3, .L7
  67 0002 1868     		ldr	r0, [r3]
  68 0004 800F     		lsrs	r0, r0, #30
  69 0006 8007     		lsls	r0, r0, #30
  70              	.LVL0:
 689:Generated_Source\PSoC4/CyLFClk.c ****         return (lfclkSource);
 690:Generated_Source\PSoC4/CyLFClk.c ****     }
  71              		.loc 1 690 0
  72              		@ sp needed
  73 0008 7047     		bx	lr
  74              	.L8:
  75 000a C046     		.align	2
  76              	.L7:
  77 000c 0C020B40 		.word	1074463244
  78              		.cfi_endproc
  79              	.LFE11:
  80              		.size	CySysClkGetLfclkSource, .-CySysClkGetLfclkSource
  81              		.section	.text.CySysWdtLocked,"ax",%progbits
  82              		.align	2
  83              		.code	16
  84              		.thumb_func
  85              		.type	CySysWdtLocked, %function
  86              	CySysWdtLocked:
  87              	.LFB19:
 691:Generated_Source\PSoC4/CyLFClk.c **** 
 692:Generated_Source\PSoC4/CyLFClk.c **** 
 693:Generated_Source\PSoC4/CyLFClk.c ****     /*******************************************************************************
 694:Generated_Source\PSoC4/CyLFClk.c ****     * Function Name: CySysClkSetLfclkSource
 695:Generated_Source\PSoC4/CyLFClk.c ****     ****************************************************************************//**
 696:Generated_Source\PSoC4/CyLFClk.c ****     * \brief
 697:Generated_Source\PSoC4/CyLFClk.c ****     *  Sets the clock source for the LFCLK clock.
 698:Generated_Source\PSoC4/CyLFClk.c ****     *
 699:Generated_Source\PSoC4/CyLFClk.c ****     * The switch between LFCLK sources must be done between the positive edges of
 700:Generated_Source\PSoC4/CyLFClk.c ****     * LFCLK, because the glitch risk is around the LFCLK positive edge. To ensure
 701:Generated_Source\PSoC4/CyLFClk.c ****     * that the switch can be done safely, the WDT counter value is read until it
 702:Generated_Source\PSoC4/CyLFClk.c ****     * changes.
 703:Generated_Source\PSoC4/CyLFClk.c ****     *
 704:Generated_Source\PSoC4/CyLFClk.c ****     * That means that the positive edge just finished and the switch is performed.
 705:Generated_Source\PSoC4/CyLFClk.c ****     * The enabled WDT counter is used for that purpose. If no counters are enabled,
 706:Generated_Source\PSoC4/CyLFClk.c ****     * counter 0 is enabled. And after the LFCLK source is switched, counter 0
 707:Generated_Source\PSoC4/CyLFClk.c ****     * configuration is restored.
 708:Generated_Source\PSoC4/CyLFClk.c ****     *
 709:Generated_Source\PSoC4/CyLFClk.c ****     *  The function is applicable only for devices with more than one source for 
 710:Generated_Source\PSoC4/CyLFClk.c ****     * LFCLK - PSoC 4100 BLE / PSoC 4200 BLE / PRoC BLE / PSoC 4100M / PSoC 4200M / 
 711:Generated_Source\PSoC4/CyLFClk.c ****     * PSoC 4200L.
ARM GAS  C:\Users\tuanngu\AppData\Local\Temp\cckQ6cTy.s 			page 15


 712:Generated_Source\PSoC4/CyLFClk.c ****     *
 713:Generated_Source\PSoC4/CyLFClk.c ****     * \note For PSoC 4000S / PSoC 4100S / PSoC Analog Coprocessor devices LFCLK can
 714:Generated_Source\PSoC4/CyLFClk.c ****     * only be sourced from ILO even though WCO is available.
 715:Generated_Source\PSoC4/CyLFClk.c ****     *
 716:Generated_Source\PSoC4/CyLFClk.c ****     * \param
 717:Generated_Source\PSoC4/CyLFClk.c ****     * source
 718:Generated_Source\PSoC4/CyLFClk.c ****     * CY_SYS_CLK_LFCLK_SRC_ILO - Internal Low Frequency (32 kHz) 
 719:Generated_Source\PSoC4/CyLFClk.c ****     * Oscillator (ILO).<br>
 720:Generated_Source\PSoC4/CyLFClk.c ****     * CY_SYS_CLK_LFCLK_SRC_WCO - Low Frequency Watch Crystal Oscillator (WCO).
 721:Generated_Source\PSoC4/CyLFClk.c ****     *
 722:Generated_Source\PSoC4/CyLFClk.c ****     * \details
 723:Generated_Source\PSoC4/CyLFClk.c ****     * This function has no effect if WDT is locked (CySysWdtLock() is called). 
 724:Generated_Source\PSoC4/CyLFClk.c ****     * Call CySysWdtUnlock() to unlock WDT.
 725:Generated_Source\PSoC4/CyLFClk.c ****     *
 726:Generated_Source\PSoC4/CyLFClk.c ****     * Both the current source and the new source must be running and stable before
 727:Generated_Source\PSoC4/CyLFClk.c ****     * calling this function.
 728:Generated_Source\PSoC4/CyLFClk.c ****     *
 729:Generated_Source\PSoC4/CyLFClk.c ****     * Changing the LFCLK clock source may change the LFCLK clock frequency and
 730:Generated_Source\PSoC4/CyLFClk.c ****     * affect the functionality that uses this clock. For example, watchdog timer
 731:Generated_Source\PSoC4/CyLFClk.c ****     * "uses this clock" or "this clock uses" (WDT) is clocked by LFCLK.
 732:Generated_Source\PSoC4/CyLFClk.c ****     *
 733:Generated_Source\PSoC4/CyLFClk.c ****     *******************************************************************************/
 734:Generated_Source\PSoC4/CyLFClk.c ****     void CySysClkSetLfclkSource(uint32 source)
 735:Generated_Source\PSoC4/CyLFClk.c ****     {
 736:Generated_Source\PSoC4/CyLFClk.c ****         uint8  interruptState;
 737:Generated_Source\PSoC4/CyLFClk.c **** 
 738:Generated_Source\PSoC4/CyLFClk.c ****         if (CySysClkGetLfclkSource() != source)
 739:Generated_Source\PSoC4/CyLFClk.c ****         {
 740:Generated_Source\PSoC4/CyLFClk.c ****             interruptState = CyEnterCriticalSection();
 741:Generated_Source\PSoC4/CyLFClk.c ****             CySysClkLfclkPosedgeCatch();
 742:Generated_Source\PSoC4/CyLFClk.c ****             CY_SYS_WDT_CONFIG_REG = (CY_SYS_WDT_CONFIG_REG & (uint32)(~CY_SYS_CLK_LFCLK_SEL_MASK)) 
 743:Generated_Source\PSoC4/CyLFClk.c ****                                     (source & CY_SYS_CLK_LFCLK_SEL_MASK);
 744:Generated_Source\PSoC4/CyLFClk.c ****             CySysClkLfclkPosedgeRestore();
 745:Generated_Source\PSoC4/CyLFClk.c ****             CyExitCriticalSection(interruptState);
 746:Generated_Source\PSoC4/CyLFClk.c ****         }
 747:Generated_Source\PSoC4/CyLFClk.c ****     }
 748:Generated_Source\PSoC4/CyLFClk.c **** #endif /* (CY_IP_WCO && CY_IP_SRSSV2) */
 749:Generated_Source\PSoC4/CyLFClk.c **** 
 750:Generated_Source\PSoC4/CyLFClk.c **** 
 751:Generated_Source\PSoC4/CyLFClk.c **** #if (CY_IP_WCO)
 752:Generated_Source\PSoC4/CyLFClk.c ****     /*******************************************************************************
 753:Generated_Source\PSoC4/CyLFClk.c ****     * Function Name: CySysClkWcoStart
 754:Generated_Source\PSoC4/CyLFClk.c ****     ****************************************************************************//**
 755:Generated_Source\PSoC4/CyLFClk.c ****     * \brief
 756:Generated_Source\PSoC4/CyLFClk.c ****     *  Enables Watch Crystal Oscillator (WCO).
 757:Generated_Source\PSoC4/CyLFClk.c ****     * 
 758:Generated_Source\PSoC4/CyLFClk.c ****     * This API enables WCO which is used as a source for LFCLK. Similar to ILO, 
 759:Generated_Source\PSoC4/CyLFClk.c ****     * WCO is also available in all modes except Hibernate and Stop modes.
 760:Generated_Source\PSoC4/CyLFClk.c ****     * \note In PSoC 4000S / PSoC 4100S / PSoC Analog Coprocessor devices
 761:Generated_Source\PSoC4/CyLFClk.c ****     * WCO cannot be a source for the LFCLK. 
 762:Generated_Source\PSoC4/CyLFClk.c ****     *
 763:Generated_Source\PSoC4/CyLFClk.c ****     *  WCO is always enabled in High Power Mode (HPM). Refer to the device
 764:Generated_Source\PSoC4/CyLFClk.c ****     *  datasheet for the  WCO startup time. Once WCO becomes stable it can be
 765:Generated_Source\PSoC4/CyLFClk.c ****     *  switched to Low Power Mode (LPM). Note that oscillator can be unstable
 766:Generated_Source\PSoC4/CyLFClk.c ****     *  during a switch and hence its output should not be used at that moment.
 767:Generated_Source\PSoC4/CyLFClk.c ****     *
 768:Generated_Source\PSoC4/CyLFClk.c ****     *  The CySysClkWcoSetPowerMode() function configures the WCO power mode.
ARM GAS  C:\Users\tuanngu\AppData\Local\Temp\cckQ6cTy.s 			page 16


 769:Generated_Source\PSoC4/CyLFClk.c ****     *
 770:Generated_Source\PSoC4/CyLFClk.c ****     *******************************************************************************/
 771:Generated_Source\PSoC4/CyLFClk.c ****     void CySysClkWcoStart(void)
 772:Generated_Source\PSoC4/CyLFClk.c ****     {
 773:Generated_Source\PSoC4/CyLFClk.c ****         CySysClkWcoSetHighPowerMode();
 774:Generated_Source\PSoC4/CyLFClk.c ****         CY_SYS_CLK_WCO_CONFIG_REG |= CY_SYS_CLK_WCO_CONFIG_LPM_ENABLE;
 775:Generated_Source\PSoC4/CyLFClk.c ****     }
 776:Generated_Source\PSoC4/CyLFClk.c **** 
 777:Generated_Source\PSoC4/CyLFClk.c **** 
 778:Generated_Source\PSoC4/CyLFClk.c ****     /*******************************************************************************
 779:Generated_Source\PSoC4/CyLFClk.c ****     * Function Name: CySysClkWcoStop
 780:Generated_Source\PSoC4/CyLFClk.c ****     ****************************************************************************//**
 781:Generated_Source\PSoC4/CyLFClk.c ****     * \brief
 782:Generated_Source\PSoC4/CyLFClk.c ****     * Disables the 32 KHz Crystal Oscillator.
 783:Generated_Source\PSoC4/CyLFClk.c ****     *
 784:Generated_Source\PSoC4/CyLFClk.c ****     * API switch of WCO.
 785:Generated_Source\PSoC4/CyLFClk.c ****     * \note PSoC 4100S / PSoC Analog Coprocessor: WCO is required for DeepSleep 
 786:Generated_Source\PSoC4/CyLFClk.c ****     * Timer's operation.
 787:Generated_Source\PSoC4/CyLFClk.c ****     *
 788:Generated_Source\PSoC4/CyLFClk.c ****     *******************************************************************************/
 789:Generated_Source\PSoC4/CyLFClk.c ****     void  CySysClkWcoStop(void)
 790:Generated_Source\PSoC4/CyLFClk.c ****     {
 791:Generated_Source\PSoC4/CyLFClk.c ****         #if (CY_IP_SRSSV2)
 792:Generated_Source\PSoC4/CyLFClk.c ****             uint8  interruptState;
 793:Generated_Source\PSoC4/CyLFClk.c ****         #endif /* (CY_IP_SRSSV2) */
 794:Generated_Source\PSoC4/CyLFClk.c **** 
 795:Generated_Source\PSoC4/CyLFClk.c ****         if (0u != CySysClkWcoEnabled())
 796:Generated_Source\PSoC4/CyLFClk.c ****         {
 797:Generated_Source\PSoC4/CyLFClk.c ****             #if (CY_IP_SRSSV2)
 798:Generated_Source\PSoC4/CyLFClk.c ****                 if (CY_SYS_CLK_LFCLK_SRC_WCO == CySysClkGetLfclkSource())
 799:Generated_Source\PSoC4/CyLFClk.c ****                 {
 800:Generated_Source\PSoC4/CyLFClk.c ****                     interruptState = CyEnterCriticalSection();
 801:Generated_Source\PSoC4/CyLFClk.c ****                     CySysClkLfclkPosedgeCatch();
 802:Generated_Source\PSoC4/CyLFClk.c ****                     CY_SYS_CLK_WCO_CONFIG_REG &= (uint32) ~CY_SYS_CLK_WCO_CONFIG_LPM_ENABLE;
 803:Generated_Source\PSoC4/CyLFClk.c ****                     CySysClkLfclkPosedgeRestore();
 804:Generated_Source\PSoC4/CyLFClk.c ****                     CyExitCriticalSection(interruptState);
 805:Generated_Source\PSoC4/CyLFClk.c ****                 }
 806:Generated_Source\PSoC4/CyLFClk.c ****                 else /* Safe to disable - shortened pulse does not impact peripheral */
 807:Generated_Source\PSoC4/CyLFClk.c ****             #endif /* (CY_IP_SRSSV2) */
 808:Generated_Source\PSoC4/CyLFClk.c ****             {
 809:Generated_Source\PSoC4/CyLFClk.c ****                 CY_SYS_CLK_WCO_CONFIG_REG &= (uint32) ~CY_SYS_CLK_WCO_CONFIG_LPM_ENABLE;
 810:Generated_Source\PSoC4/CyLFClk.c ****             }
 811:Generated_Source\PSoC4/CyLFClk.c ****         } /* Otherwise do nothing. WCO configuration cannot be changed. */
 812:Generated_Source\PSoC4/CyLFClk.c ****     }
 813:Generated_Source\PSoC4/CyLFClk.c **** 
 814:Generated_Source\PSoC4/CyLFClk.c **** 
 815:Generated_Source\PSoC4/CyLFClk.c ****     /*******************************************************************************
 816:Generated_Source\PSoC4/CyLFClk.c ****     * Function Name: CySysClkWcoEnabled
 817:Generated_Source\PSoC4/CyLFClk.c ****     ****************************************************************************//**
 818:Generated_Source\PSoC4/CyLFClk.c ****     * \internal Reports the WCO enable state.
 819:Generated_Source\PSoC4/CyLFClk.c ****     *
 820:Generated_Source\PSoC4/CyLFClk.c ****     * \return 1 if WCO is enabled
 821:Generated_Source\PSoC4/CyLFClk.c ****     * \return 0 if WCO is disabled.
 822:Generated_Source\PSoC4/CyLFClk.c ****     * \endinternal
 823:Generated_Source\PSoC4/CyLFClk.c ****     *******************************************************************************/
 824:Generated_Source\PSoC4/CyLFClk.c ****     uint32 CySysClkWcoEnabled(void)
 825:Generated_Source\PSoC4/CyLFClk.c ****     {
ARM GAS  C:\Users\tuanngu\AppData\Local\Temp\cckQ6cTy.s 			page 17


 826:Generated_Source\PSoC4/CyLFClk.c ****         return ((0u != (CY_SYS_CLK_WCO_CONFIG_REG & (uint32)(CY_SYS_CLK_WCO_CONFIG_LPM_ENABLE))) ?
 827:Generated_Source\PSoC4/CyLFClk.c ****                 (uint32) 1u :
 828:Generated_Source\PSoC4/CyLFClk.c ****                 (uint32) 0u);
 829:Generated_Source\PSoC4/CyLFClk.c ****     }
 830:Generated_Source\PSoC4/CyLFClk.c **** 
 831:Generated_Source\PSoC4/CyLFClk.c **** 
 832:Generated_Source\PSoC4/CyLFClk.c ****     /*******************************************************************************
 833:Generated_Source\PSoC4/CyLFClk.c ****     * Function Name: CySysClkWcoSetPowerMode
 834:Generated_Source\PSoC4/CyLFClk.c ****     ****************************************************************************//**
 835:Generated_Source\PSoC4/CyLFClk.c ****     * \brief
 836:Generated_Source\PSoC4/CyLFClk.c ****     * Sets the power mode for the 32 KHz WCO.
 837:Generated_Source\PSoC4/CyLFClk.c ****     *
 838:Generated_Source\PSoC4/CyLFClk.c ****     * By default (if this function is not called), the WCO is in High power mode 
 839:Generated_Source\PSoC4/CyLFClk.c ****     * during Active and device's low power modes
 840:Generated_Source\PSoC4/CyLFClk.c ****     *
 841:Generated_Source\PSoC4/CyLFClk.c ****     * \param mode
 842:Generated_Source\PSoC4/CyLFClk.c ****     * CY_SYS_CLK_WCO_HPM - The High Power mode.<br>
 843:Generated_Source\PSoC4/CyLFClk.c ****     * CY_SYS_CLK_WCO_LPM - The Low Power mode.
 844:Generated_Source\PSoC4/CyLFClk.c ****     *
 845:Generated_Source\PSoC4/CyLFClk.c ****     * \return A previous power mode. The same as the parameters.
 846:Generated_Source\PSoC4/CyLFClk.c ****     *
 847:Generated_Source\PSoC4/CyLFClk.c ****     * \note
 848:Generated_Source\PSoC4/CyLFClk.c ****     * The WCO Low Power mode is applicable for PSoC 4100 BLE / PSoC 4200 BLE devices.
 849:Generated_Source\PSoC4/CyLFClk.c ****     *
 850:Generated_Source\PSoC4/CyLFClk.c ****     *******************************************************************************/
 851:Generated_Source\PSoC4/CyLFClk.c ****     uint32 CySysClkWcoSetPowerMode(uint32 mode)
 852:Generated_Source\PSoC4/CyLFClk.c ****     {
 853:Generated_Source\PSoC4/CyLFClk.c ****         uint32 powerModeStatus;
 854:Generated_Source\PSoC4/CyLFClk.c **** 
 855:Generated_Source\PSoC4/CyLFClk.c ****         powerModeStatus = CY_SYS_CLK_WCO_CONFIG_REG & CY_SYS_CLK_WCO_CONFIG_LPM_EN;
 856:Generated_Source\PSoC4/CyLFClk.c **** 
 857:Generated_Source\PSoC4/CyLFClk.c ****         switch(mode)
 858:Generated_Source\PSoC4/CyLFClk.c ****         {
 859:Generated_Source\PSoC4/CyLFClk.c ****         case CY_SYS_CLK_WCO_HPM:
 860:Generated_Source\PSoC4/CyLFClk.c ****                 CySysClkWcoSetHighPowerMode();
 861:Generated_Source\PSoC4/CyLFClk.c ****             break;
 862:Generated_Source\PSoC4/CyLFClk.c **** 
 863:Generated_Source\PSoC4/CyLFClk.c ****         #if(CY_IP_BLESS)
 864:Generated_Source\PSoC4/CyLFClk.c ****             case CY_SYS_CLK_WCO_LPM:
 865:Generated_Source\PSoC4/CyLFClk.c ****                     CySysClkWcoSetLowPowerMode();
 866:Generated_Source\PSoC4/CyLFClk.c ****                 break;
 867:Generated_Source\PSoC4/CyLFClk.c ****         #endif /* (CY_IP_BLESS) */
 868:Generated_Source\PSoC4/CyLFClk.c **** 
 869:Generated_Source\PSoC4/CyLFClk.c ****         default:
 870:Generated_Source\PSoC4/CyLFClk.c ****             CYASSERT(0u != 0u);
 871:Generated_Source\PSoC4/CyLFClk.c ****             break;
 872:Generated_Source\PSoC4/CyLFClk.c ****         }
 873:Generated_Source\PSoC4/CyLFClk.c **** 
 874:Generated_Source\PSoC4/CyLFClk.c ****         return (powerModeStatus);
 875:Generated_Source\PSoC4/CyLFClk.c ****     }
 876:Generated_Source\PSoC4/CyLFClk.c **** 
 877:Generated_Source\PSoC4/CyLFClk.c **** 
 878:Generated_Source\PSoC4/CyLFClk.c ****     /*******************************************************************************
 879:Generated_Source\PSoC4/CyLFClk.c ****     * Function Name: CySysClkWcoClockOutSelect
 880:Generated_Source\PSoC4/CyLFClk.c ****     ****************************************************************************//**
 881:Generated_Source\PSoC4/CyLFClk.c ****     * \brief
 882:Generated_Source\PSoC4/CyLFClk.c ****     * Selects the WCO block output source.
ARM GAS  C:\Users\tuanngu\AppData\Local\Temp\cckQ6cTy.s 			page 18


 883:Generated_Source\PSoC4/CyLFClk.c ****     *
 884:Generated_Source\PSoC4/CyLFClk.c ****     * In addition to generating 32.768 kHz clock from external crystals, WCO 
 885:Generated_Source\PSoC4/CyLFClk.c ****     * can be sourced by external clock source using wco_out pin. The API help to
 886:Generated_Source\PSoC4/CyLFClk.c ****     * lets you select between the sources: External crystal or external pin.
 887:Generated_Source\PSoC4/CyLFClk.c ****     *
 888:Generated_Source\PSoC4/CyLFClk.c ****     * If you want to use external pin to drive WCO the next procedure is required:
 889:Generated_Source\PSoC4/CyLFClk.c ****     * <br> 1) Disable the WCO.
 890:Generated_Source\PSoC4/CyLFClk.c ****     * <br> 2) Drive the wco_out pin to an external signal source.
 891:Generated_Source\PSoC4/CyLFClk.c ****     * <br> 3) Call CySysClkWcoClockOutSelect(CY_SYS_CLK_WCO_SEL_PIN).
 892:Generated_Source\PSoC4/CyLFClk.c ****     * <br> 4) Enable the WCO and wait for 15 us before clocking the XO pad at the high 
 893:Generated_Source\PSoC4/CyLFClk.c ****     * potential. Let's assume you are using the 1.6v clock amplitude, then the
 894:Generated_Source\PSoC4/CyLFClk.c ****     * sequence would start at 1.6v, then 0v, then 1.6v etc at a chosen frequency.
 895:Generated_Source\PSoC4/CyLFClk.c ****     *
 896:Generated_Source\PSoC4/CyLFClk.c ****     * If you want to use WCO after using an external pin source:
 897:Generated_Source\PSoC4/CyLFClk.c ****     * <br> 1) Disable the WCO.
 898:Generated_Source\PSoC4/CyLFClk.c ****     * <br> 2) Drive off wco_out pin with external signal source.
 899:Generated_Source\PSoC4/CyLFClk.c ****     * <br> 3) Call CySysClkWcoClockOutSelect(CY_SYS_CLK_WCO_SEL_CRYSTAL).
 900:Generated_Source\PSoC4/CyLFClk.c ****     * <br> 4) Enable the WCO.
 901:Generated_Source\PSoC4/CyLFClk.c ****     *
 902:Generated_Source\PSoC4/CyLFClk.c ****     * \warning 
 903:Generated_Source\PSoC4/CyLFClk.c ****     * Do not use the oscillator output clock prior to a 15uS delay in your system.
 904:Generated_Source\PSoC4/CyLFClk.c ****     * There are no limitations on the external clock frequency.
 905:Generated_Source\PSoC4/CyLFClk.c ****     * \warning 
 906:Generated_Source\PSoC4/CyLFClk.c ****     * When external clock source was selected to drive WCO block the IMO can be 
 907:Generated_Source\PSoC4/CyLFClk.c ****     * trimmed only when external clock source period is equal to WCO external
 908:Generated_Source\PSoC4/CyLFClk.c ****     * crystal period. Also external clock source accuracy should be higher 
 909:Generated_Source\PSoC4/CyLFClk.c ****     * or equal to WCO external crystal accuracy.
 910:Generated_Source\PSoC4/CyLFClk.c ****     *
 911:Generated_Source\PSoC4/CyLFClk.c ****     * \param clockSel
 912:Generated_Source\PSoC4/CyLFClk.c ****     * CY_SYS_CLK_WCO_SEL_CRYSTAL - Selects External crystal as clock 
 913:Generated_Source\PSoC4/CyLFClk.c ****     * source of WCO.<br>
 914:Generated_Source\PSoC4/CyLFClk.c ****     * CY_SYS_CLK_WCO_SEL_PIN - Selects External clock input on wco_in pin as 
 915:Generated_Source\PSoC4/CyLFClk.c ****     * clock source of WCO.
 916:Generated_Source\PSoC4/CyLFClk.c ****     *
 917:Generated_Source\PSoC4/CyLFClk.c ****     *******************************************************************************/
 918:Generated_Source\PSoC4/CyLFClk.c ****     void CySysClkWcoClockOutSelect(uint32 clockSel)
 919:Generated_Source\PSoC4/CyLFClk.c ****     {
 920:Generated_Source\PSoC4/CyLFClk.c ****         if (0u != CySysClkWcoEnabled())
 921:Generated_Source\PSoC4/CyLFClk.c ****         {
 922:Generated_Source\PSoC4/CyLFClk.c ****             if (1u >= clockSel)
 923:Generated_Source\PSoC4/CyLFClk.c ****             {
 924:Generated_Source\PSoC4/CyLFClk.c ****                 CY_SYS_CLK_WCO_CONFIG_REG = (CY_SYS_CLK_WCO_CONFIG_REG & (uint32)(~CY_SYS_CLK_WCO_S
 925:Generated_Source\PSoC4/CyLFClk.c ****                                         (clockSel << CY_SYS_CLK_WCO_SELECT_PIN_OFFSET);
 926:Generated_Source\PSoC4/CyLFClk.c ****             }
 927:Generated_Source\PSoC4/CyLFClk.c ****             else
 928:Generated_Source\PSoC4/CyLFClk.c ****             {
 929:Generated_Source\PSoC4/CyLFClk.c ****                 CYASSERT(0u != 0u);
 930:Generated_Source\PSoC4/CyLFClk.c ****             }
 931:Generated_Source\PSoC4/CyLFClk.c ****         }
 932:Generated_Source\PSoC4/CyLFClk.c ****     }
 933:Generated_Source\PSoC4/CyLFClk.c **** #endif  /* (CY_IP_WCO) */
 934:Generated_Source\PSoC4/CyLFClk.c **** 
 935:Generated_Source\PSoC4/CyLFClk.c **** 
 936:Generated_Source\PSoC4/CyLFClk.c **** #if(CY_IP_SRSSV2)
 937:Generated_Source\PSoC4/CyLFClk.c ****     /*******************************************************************************
 938:Generated_Source\PSoC4/CyLFClk.c ****     * Function Name: CySysWdtLock
 939:Generated_Source\PSoC4/CyLFClk.c ****     ****************************************************************************//**
ARM GAS  C:\Users\tuanngu\AppData\Local\Temp\cckQ6cTy.s 			page 19


 940:Generated_Source\PSoC4/CyLFClk.c ****     * \brief
 941:Generated_Source\PSoC4/CyLFClk.c ****     * Locks out configuration changes to the Watchdog timer registers and ILO
 942:Generated_Source\PSoC4/CyLFClk.c ****     * configuration register.
 943:Generated_Source\PSoC4/CyLFClk.c ****     *
 944:Generated_Source\PSoC4/CyLFClk.c ****     * After this function is called, ILO clock can't be disabled until
 945:Generated_Source\PSoC4/CyLFClk.c ****     * CySysWdtUnlock() is called.
 946:Generated_Source\PSoC4/CyLFClk.c ****     *
 947:Generated_Source\PSoC4/CyLFClk.c ****     *******************************************************************************/
 948:Generated_Source\PSoC4/CyLFClk.c ****     void CySysWdtLock(void)
 949:Generated_Source\PSoC4/CyLFClk.c ****     {
 950:Generated_Source\PSoC4/CyLFClk.c ****         uint8 interruptState;
 951:Generated_Source\PSoC4/CyLFClk.c ****         interruptState = CyEnterCriticalSection();
 952:Generated_Source\PSoC4/CyLFClk.c **** 
 953:Generated_Source\PSoC4/CyLFClk.c ****         CY_SYS_CLK_SELECT_REG = (CY_SYS_CLK_SELECT_REG & (uint32)(~CY_SYS_WDT_CLK_LOCK_BITS_MASK)) 
 954:Generated_Source\PSoC4/CyLFClk.c ****                  CY_SYS_WDT_CLK_LOCK_BITS_MASK;
 955:Generated_Source\PSoC4/CyLFClk.c **** 
 956:Generated_Source\PSoC4/CyLFClk.c ****         CyExitCriticalSection(interruptState);
 957:Generated_Source\PSoC4/CyLFClk.c ****     }
 958:Generated_Source\PSoC4/CyLFClk.c **** 
 959:Generated_Source\PSoC4/CyLFClk.c **** 
 960:Generated_Source\PSoC4/CyLFClk.c ****     /*******************************************************************************
 961:Generated_Source\PSoC4/CyLFClk.c ****     * Function Name: CySysWdtLocked
 962:Generated_Source\PSoC4/CyLFClk.c ****     ****************************************************************************//**
 963:Generated_Source\PSoC4/CyLFClk.c ****     * \internal
 964:Generated_Source\PSoC4/CyLFClk.c ****     * Reports the WDT lock state.
 965:Generated_Source\PSoC4/CyLFClk.c ****     *
 966:Generated_Source\PSoC4/CyLFClk.c ****     * \return 1 - WDT is locked, and 0 - WDT is unlocked.
 967:Generated_Source\PSoC4/CyLFClk.c ****     * \endinternal
 968:Generated_Source\PSoC4/CyLFClk.c ****     *******************************************************************************/
 969:Generated_Source\PSoC4/CyLFClk.c ****     static uint32 CySysWdtLocked(void)
 970:Generated_Source\PSoC4/CyLFClk.c ****     {
  88              		.loc 1 970 0
  89              		.cfi_startproc
  90              		@ args = 0, pretend = 0, frame = 0
  91              		@ frame_needed = 0, uses_anonymous_args = 0
  92              		@ link register save eliminated.
 971:Generated_Source\PSoC4/CyLFClk.c ****         /* Prohibits writing to WDT registers and ILO/WCO registers when not equal 0 */
 972:Generated_Source\PSoC4/CyLFClk.c ****         return ((0u != (CY_SYS_CLK_SELECT_REG & (uint32)(CY_SYS_WDT_CLK_LOCK_BITS_MASK))) ? (uint32
  93              		.loc 1 972 0
  94 0000 034B     		ldr	r3, .L11
  95 0002 1868     		ldr	r0, [r3]
  96 0004 C023     		movs	r3, #192
  97 0006 1B02     		lsls	r3, r3, #8
  98 0008 1840     		ands	r0, r3
  99 000a 00D0     		beq	.L10
 100 000c 0120     		movs	r0, #1
 101              	.L10:
 973:Generated_Source\PSoC4/CyLFClk.c ****     }
 102              		.loc 1 973 0 discriminator 4
 103              		@ sp needed
 104 000e 7047     		bx	lr
 105              	.L12:
 106              		.align	2
 107              	.L11:
 108 0010 00010B40 		.word	1074462976
 109              		.cfi_endproc
 110              	.LFE19:
ARM GAS  C:\Users\tuanngu\AppData\Local\Temp\cckQ6cTy.s 			page 20


 111              		.size	CySysWdtLocked, .-CySysWdtLocked
 112              		.section	.text.CySysClkIloStart,"ax",%progbits
 113              		.align	2
 114              		.global	CySysClkIloStart
 115              		.code	16
 116              		.thumb_func
 117              		.type	CySysClkIloStart, %function
 118              	CySysClkIloStart:
 119              	.LFB2:
  84:Generated_Source\PSoC4/CyLFClk.c ****     CY_SYS_CLK_ILO_CONFIG_REG |= CY_SYS_CLK_ILO_CONFIG_ENABLE;
 120              		.loc 1 84 0
 121              		.cfi_startproc
 122              		@ args = 0, pretend = 0, frame = 0
 123              		@ frame_needed = 0, uses_anonymous_args = 0
 124              		@ link register save eliminated.
  85:Generated_Source\PSoC4/CyLFClk.c **** }
 125              		.loc 1 85 0
 126 0000 034A     		ldr	r2, .L14
 127 0002 1368     		ldr	r3, [r2]
 128 0004 8021     		movs	r1, #128
 129 0006 0906     		lsls	r1, r1, #24
 130 0008 0B43     		orrs	r3, r1
 131 000a 1360     		str	r3, [r2]
  86:Generated_Source\PSoC4/CyLFClk.c **** 
 132              		.loc 1 86 0
 133              		@ sp needed
 134 000c 7047     		bx	lr
 135              	.L15:
 136 000e C046     		.align	2
 137              	.L14:
 138 0010 04010B40 		.word	1074462980
 139              		.cfi_endproc
 140              	.LFE2:
 141              		.size	CySysClkIloStart, .-CySysClkIloStart
 142              		.section	.text.CySysClkIloStartMeasurement,"ax",%progbits
 143              		.align	2
 144              		.global	CySysClkIloStartMeasurement
 145              		.code	16
 146              		.thumb_func
 147              		.type	CySysClkIloStartMeasurement, %function
 148              	CySysClkIloStartMeasurement:
 149              	.LFB4:
 169:Generated_Source\PSoC4/CyLFClk.c **** #if(CY_IP_SRSSV2 && (!CY_IP_CPUSS))
 150              		.loc 1 169 0
 151              		.cfi_startproc
 152              		@ args = 0, pretend = 0, frame = 0
 153              		@ frame_needed = 0, uses_anonymous_args = 0
 154              		@ link register save eliminated.
 174:Generated_Source\PSoC4/CyLFClk.c ****     {
 155              		.loc 1 174 0
 156 0000 0E4B     		ldr	r3, .L18
 157 0002 1B78     		ldrb	r3, [r3]
 158 0004 002B     		cmp	r3, #0
 159 0006 08D1     		bne	.L17
 176:Generated_Source\PSoC4/CyLFClk.c ****         iloTrimTrig = 1u;
 160              		.loc 1 176 0
 161 0008 0D4B     		ldr	r3, .L18+4
ARM GAS  C:\Users\tuanngu\AppData\Local\Temp\cckQ6cTy.s 			page 21


 162 000a 1A68     		ldr	r2, [r3]
 163 000c 0F23     		movs	r3, #15
 164 000e 1340     		ands	r3, r2
 165 0010 0C4A     		ldr	r2, .L18+8
 166 0012 1380     		strh	r3, [r2]
 177:Generated_Source\PSoC4/CyLFClk.c ****     }
 167              		.loc 1 177 0
 168 0014 0122     		movs	r2, #1
 169 0016 094B     		ldr	r3, .L18
 170 0018 1A70     		strb	r2, [r3]
 171              	.L17:
 182:Generated_Source\PSoC4/CyLFClk.c ****                             CY_SYS_CLK_SEL_ILO_DFT_SOURCE; 
 172              		.loc 1 182 0
 173 001a 0B4A     		ldr	r2, .L18+12
 174 001c 1168     		ldr	r1, [r2]
 175 001e 0B4B     		ldr	r3, .L18+16
 176 0020 0B40     		ands	r3, r1
 177 0022 8021     		movs	r1, #128
 178 0024 4900     		lsls	r1, r1, #1
 179 0026 0B43     		orrs	r3, r1
 180 0028 1360     		str	r3, [r2]
 185:Generated_Source\PSoC4/CyLFClk.c ****                             CY_SYS_TST_DDFT_CTRL_REG_SEL2_CLK1;
 181              		.loc 1 185 0
 182 002a 094A     		ldr	r2, .L18+20
 183 002c 1168     		ldr	r1, [r2]
 184 002e 094B     		ldr	r3, .L18+24
 185 0030 0B40     		ands	r3, r1
 186 0032 0949     		ldr	r1, .L18+28
 187 0034 0B43     		orrs	r3, r1
 188 0036 1360     		str	r3, [r2]
 187:Generated_Source\PSoC4/CyLFClk.c **** 
 189              		.loc 1 187 0
 190              		@ sp needed
 191 0038 7047     		bx	lr
 192              	.L19:
 193 003a C046     		.align	2
 194              	.L18:
 195 003c 00000000 		.word	.LANCHOR0
 196 0040 24FF0B40 		.word	1074528036
 197 0044 00000000 		.word	.LANCHOR1
 198 0048 10010B40 		.word	1074462992
 199 004c FFF0FFFF 		.word	-3841
 200 0050 08000340 		.word	1073938440
 201 0054 C0C0FFFF 		.word	-16192
 202 0058 0A0B0000 		.word	2826
 203              		.cfi_endproc
 204              	.LFE4:
 205              		.size	CySysClkIloStartMeasurement, .-CySysClkIloStartMeasurement
 206              		.section	.text.CySysClkIloStopMeasurement,"ax",%progbits
 207              		.align	2
 208              		.global	CySysClkIloStopMeasurement
 209              		.code	16
 210              		.thumb_func
 211              		.type	CySysClkIloStopMeasurement, %function
 212              	CySysClkIloStopMeasurement:
 213              	.LFB5:
 202:Generated_Source\PSoC4/CyLFClk.c ****     /* Set default configurations in 11...8 DFT register bits to zero */
ARM GAS  C:\Users\tuanngu\AppData\Local\Temp\cckQ6cTy.s 			page 22


 214              		.loc 1 202 0
 215              		.cfi_startproc
 216              		@ args = 0, pretend = 0, frame = 0
 217              		@ frame_needed = 0, uses_anonymous_args = 0
 218              		@ link register save eliminated.
 204:Generated_Source\PSoC4/CyLFClk.c ****     #if(CY_IP_SRSSLT)
 219              		.loc 1 204 0
 220 0000 024A     		ldr	r2, .L21
 221 0002 1168     		ldr	r1, [r2]
 222 0004 024B     		ldr	r3, .L21+4
 223 0006 0B40     		ands	r3, r1
 224 0008 1360     		str	r3, [r2]
 208:Generated_Source\PSoC4/CyLFClk.c **** 
 225              		.loc 1 208 0
 226              		@ sp needed
 227 000a 7047     		bx	lr
 228              	.L22:
 229              		.align	2
 230              	.L21:
 231 000c 10010B40 		.word	1074462992
 232 0010 FFF0FFFF 		.word	-3841
 233              		.cfi_endproc
 234              	.LFE5:
 235              		.size	CySysClkIloStopMeasurement, .-CySysClkIloStopMeasurement
 236              		.global	__aeabi_uidiv
 237              		.section	.text.CySysClkIloCompensate,"ax",%progbits
 238              		.align	2
 239              		.global	CySysClkIloCompensate
 240              		.code	16
 241              		.thumb_func
 242              		.type	CySysClkIloCompensate, %function
 243              	CySysClkIloCompensate:
 244              	.LFB6:
 268:Generated_Source\PSoC4/CyLFClk.c ****     uint32 iloCompensatedCycles;
 245              		.loc 1 268 0
 246              		.cfi_startproc
 247              		@ args = 0, pretend = 0, frame = 0
 248              		@ frame_needed = 0, uses_anonymous_args = 0
 249              	.LVL1:
 250 0000 70B5     		push	{r4, r5, r6, lr}
 251              		.cfi_def_cfa_offset 16
 252              		.cfi_offset 4, -16
 253              		.cfi_offset 5, -12
 254              		.cfi_offset 6, -8
 255              		.cfi_offset 14, -4
 256 0002 0400     		movs	r4, r0
 257 0004 0D00     		movs	r5, r1
 275:Generated_Source\PSoC4/CyLFClk.c **** 
 258              		.loc 1 275 0
 259 0006 324B     		ldr	r3, .L35
 260 0008 1A68     		ldr	r2, [r3]
 261 000a 324B     		ldr	r3, .L35+4
 262 000c 1340     		ands	r3, r2
 263              	.LVL2:
 278:Generated_Source\PSoC4/CyLFClk.c ****        (CY_SYS_TST_DDFT_CTRL_REG == CY_SYS_TST_DDFT_CTRL_REG_SEL2_CLK1) &&
 264              		.loc 1 278 0
 265 000e 8022     		movs	r2, #128
ARM GAS  C:\Users\tuanngu\AppData\Local\Temp\cckQ6cTy.s 			page 23


 266 0010 5200     		lsls	r2, r2, #1
 267 0012 9342     		cmp	r3, r2
 268 0014 4ED1     		bne	.L28
 279:Generated_Source\PSoC4/CyLFClk.c ****        (CY_SYS_CLK_MAX_DELAY_US >= desiredDelay) &&
 269              		.loc 1 279 0 discriminator 1
 270 0016 304B     		ldr	r3, .L35+8
 271              	.LVL3:
 272 0018 1A68     		ldr	r2, [r3]
 278:Generated_Source\PSoC4/CyLFClk.c ****        (CY_SYS_TST_DDFT_CTRL_REG == CY_SYS_TST_DDFT_CTRL_REG_SEL2_CLK1) &&
 273              		.loc 1 278 0 discriminator 1
 274 001a 304B     		ldr	r3, .L35+12
 275 001c 9A42     		cmp	r2, r3
 276 001e 4BD1     		bne	.L29
 279:Generated_Source\PSoC4/CyLFClk.c ****        (CY_SYS_CLK_MAX_DELAY_US >= desiredDelay) &&
 277              		.loc 1 279 0
 278 0020 2F4B     		ldr	r3, .L35+16
 279 0022 9842     		cmp	r0, r3
 280 0024 4AD8     		bhi	.L30
 280:Generated_Source\PSoC4/CyLFClk.c ****        (CY_SYS_CLK_MIN_DELAY_US <= desiredDelay) &&
 281              		.loc 1 280 0
 282 0026 6328     		cmp	r0, #99
 283 0028 4AD9     		bls	.L31
 281:Generated_Source\PSoC4/CyLFClk.c ****        (compensatedCycles !=  NULL))
 284              		.loc 1 281 0
 285 002a 0029     		cmp	r1, #0
 286 002c 4AD0     		beq	.L32
 284:Generated_Source\PSoC4/CyLFClk.c ****         {
 287              		.loc 1 284 0
 288 002e 2D4B     		ldr	r3, .L35+20
 289 0030 5B68     		ldr	r3, [r3, #4]
 290 0032 002B     		cmp	r3, #0
 291 0034 34D0     		beq	.L25
 287:Generated_Source\PSoC4/CyLFClk.c ****             {
 292              		.loc 1 287 0
 293 0036 2C4B     		ldr	r3, .L35+24
 294 0038 1B68     		ldr	r3, [r3]
 295 003a 002B     		cmp	r3, #0
 296 003c 44DA     		bge	.L33
 289:Generated_Source\PSoC4/CyLFClk.c ****                 {
 297              		.loc 1 289 0
 298 003e 2B4B     		ldr	r3, .L35+28
 299 0040 1B68     		ldr	r3, [r3]
 300 0042 002B     		cmp	r3, #0
 301 0044 42D0     		beq	.L34
 293:Generated_Source\PSoC4/CyLFClk.c ****                         {
 302              		.loc 1 293 0
 303 0046 2A4B     		ldr	r3, .L35+32
 304 0048 9842     		cmp	r0, r3
 305 004a 0ED9     		bls	.L26
 306              	.LVL4:
 297:Generated_Source\PSoC4/CyLFClk.c ****                                 CY_SYS_CLK_ILO_FREQ_2MSB) * (desiredDelayInCounts / CY_SYS_CLK_ILO_
 307              		.loc 1 297 0
 308 004c 274B     		ldr	r3, .L35+28
 309 004e 1868     		ldr	r0, [r3]
 310              	.LVL5:
 311 0050 284B     		ldr	r3, .L35+36
 312 0052 1968     		ldr	r1, [r3]
ARM GAS  C:\Users\tuanngu\AppData\Local\Temp\cckQ6cTy.s 			page 24


 313              	.LVL6:
 314 0054 4843     		muls	r0, r1
 315 0056 890A     		lsrs	r1, r1, #10
 316 0058 FFF7FEFF 		bl	__aeabi_uidiv
 317              	.LVL7:
 318 005c 4609     		lsrs	r6, r0, #5
 298:Generated_Source\PSoC4/CyLFClk.c ****                         }
 319              		.loc 1 298 0
 320 005e 2649     		ldr	r1, .L35+40
 321 0060 2000     		movs	r0, r4
 322 0062 FFF7FEFF 		bl	__aeabi_uidiv
 323              	.LVL8:
 296:Generated_Source\PSoC4/CyLFClk.c ****                             (((CY_SYS_CNT_REG2_REG * cydelayFreqHz) / (cydelayFreqHz >> CY_SYS_CLK_
 324              		.loc 1 296 0
 325 0066 7043     		muls	r0, r6
 326              	.LVL9:
 327 0068 15E0     		b	.L27
 328              	.LVL10:
 329              	.L26:
 302:Generated_Source\PSoC4/CyLFClk.c ****                                                      CY_SYS_CLK_HALF_OF_CLOCK) / CY_SYS_CLK_ILO_PER
 330              		.loc 1 302 0
 331 006a 6420     		movs	r0, #100
 332              	.LVL11:
 333 006c 6043     		muls	r0, r4
 334 006e 234B     		ldr	r3, .L35+44
 335 0070 9C46     		mov	ip, r3
 336 0072 6044     		add	r0, r0, ip
 337 0074 2249     		ldr	r1, .L35+48
 338              	.LVL12:
 339 0076 FFF7FEFF 		bl	__aeabi_uidiv
 340              	.LVL13:
 341 007a 0400     		movs	r4, r0
 342              	.LVL14:
 305:Generated_Source\PSoC4/CyLFClk.c ****                                                      (cydelayFreqHz >> CY_SYS_CLK_SYS_CLK_DEVIDER))
 343              		.loc 1 305 0
 344 007c 1B4B     		ldr	r3, .L35+28
 345 007e 1868     		ldr	r0, [r3]
 346              	.LVL15:
 347 0080 1C4B     		ldr	r3, .L35+36
 348 0082 1968     		ldr	r1, [r3]
 349 0084 4843     		muls	r0, r1
 306:Generated_Source\PSoC4/CyLFClk.c ****                                                      desiredDelayInCounts) / CY_SYS_CLK_ILO_DESIRED
 350              		.loc 1 306 0
 351 0086 890A     		lsrs	r1, r1, #10
 305:Generated_Source\PSoC4/CyLFClk.c ****                                                      (cydelayFreqHz >> CY_SYS_CLK_SYS_CLK_DEVIDER))
 352              		.loc 1 305 0
 353 0088 FFF7FEFF 		bl	__aeabi_uidiv
 354              	.LVL16:
 306:Generated_Source\PSoC4/CyLFClk.c ****                                                      desiredDelayInCounts) / CY_SYS_CLK_ILO_DESIRED
 355              		.loc 1 306 0
 356 008c 6043     		muls	r0, r4
 305:Generated_Source\PSoC4/CyLFClk.c ****                                                      (cydelayFreqHz >> CY_SYS_CLK_SYS_CLK_DEVIDER))
 357              		.loc 1 305 0
 358 008e FA21     		movs	r1, #250
 359 0090 C901     		lsls	r1, r1, #7
 360 0092 FFF7FEFF 		bl	__aeabi_uidiv
 361              	.LVL17:
ARM GAS  C:\Users\tuanngu\AppData\Local\Temp\cckQ6cTy.s 			page 25


 362              	.L27:
 326:Generated_Source\PSoC4/CyLFClk.c ****                     compensateRunningStatus = CY_SYS_CLK_TRIM_OR_COMP_FINISHED;
 363              		.loc 1 326 0
 364 0096 2860     		str	r0, [r5]
 327:Generated_Source\PSoC4/CyLFClk.c ****                     returnStatus = CYRET_SUCCESS;
 365              		.loc 1 327 0
 366 0098 0020     		movs	r0, #0
 367              	.LVL18:
 368 009a 124B     		ldr	r3, .L35+20
 369 009c 5860     		str	r0, [r3, #4]
 370              	.LVL19:
 371 009e 16E0     		b	.L24
 372              	.LVL20:
 373              	.L25:
 343:Generated_Source\PSoC4/CyLFClk.c ****             compensateRunningStatus = CY_SYS_CLK_TRIM_OR_COMP_STARTED;
 374              		.loc 1 343 0
 375 00a0 144B     		ldr	r3, .L35+36
 376 00a2 1B68     		ldr	r3, [r3]
 377 00a4 9B0A     		lsrs	r3, r3, #10
 378 00a6 104A     		ldr	r2, .L35+24
 379 00a8 1360     		str	r3, [r2]
 344:Generated_Source\PSoC4/CyLFClk.c ****             returnStatus = CYRET_STARTED;
 380              		.loc 1 344 0
 381 00aa 0122     		movs	r2, #1
 382 00ac 0D4B     		ldr	r3, .L35+20
 383 00ae 5A60     		str	r2, [r3, #4]
 384              	.LVL21:
 345:Generated_Source\PSoC4/CyLFClk.c ****         }
 385              		.loc 1 345 0
 386 00b0 0720     		movs	r0, #7
 387              	.LVL22:
 388 00b2 0CE0     		b	.L24
 389              	.LVL23:
 390              	.L28:
 350:Generated_Source\PSoC4/CyLFClk.c ****     }
 391              		.loc 1 350 0
 392 00b4 1120     		movs	r0, #17
 393              	.LVL24:
 394 00b6 0AE0     		b	.L24
 395              	.LVL25:
 396              	.L29:
 397 00b8 1120     		movs	r0, #17
 398              	.LVL26:
 399 00ba 08E0     		b	.L24
 400              	.LVL27:
 401              	.L30:
 402 00bc 1120     		movs	r0, #17
 403              	.LVL28:
 404 00be 06E0     		b	.L24
 405              	.LVL29:
 406              	.L31:
 407 00c0 1120     		movs	r0, #17
 408              	.LVL30:
 409 00c2 04E0     		b	.L24
 410              	.LVL31:
 411              	.L32:
 412 00c4 1120     		movs	r0, #17
ARM GAS  C:\Users\tuanngu\AppData\Local\Temp\cckQ6cTy.s 			page 26


 413              	.LVL32:
 414 00c6 02E0     		b	.L24
 415              	.LVL33:
 416              	.L33:
 337:Generated_Source\PSoC4/CyLFClk.c ****             }
 417              		.loc 1 337 0
 418 00c8 0720     		movs	r0, #7
 419              	.LVL34:
 420 00ca 00E0     		b	.L24
 421              	.LVL35:
 422              	.L34:
 332:Generated_Source\PSoC4/CyLFClk.c ****                 }
 423              		.loc 1 332 0
 424 00cc 1120     		movs	r0, #17
 425              	.LVL36:
 426              	.L24:
 354:Generated_Source\PSoC4/CyLFClk.c **** 
 427              		.loc 1 354 0
 428              		@ sp needed
 429              	.LVL37:
 430 00ce 70BD     		pop	{r4, r5, r6, pc}
 431              	.L36:
 432              		.align	2
 433              	.L35:
 434 00d0 10010B40 		.word	1074462992
 435 00d4 3F3F0000 		.word	16191
 436 00d8 08000340 		.word	1073938440
 437 00dc 0A0B0000 		.word	2826
 438 00e0 00286BEE 		.word	-294967296
 439 00e4 00000000 		.word	.LANCHOR0
 440 00e8 18000340 		.word	1073938456
 441 00ec 1C000340 		.word	1073938460
 442 00f0 60D10000 		.word	53600
 443 00f4 00000000 		.word	cydelayFreqHz
 444 00f8 18790000 		.word	31000
 445 00fc 0D030000 		.word	781
 446 0100 350C0000 		.word	3125
 447              		.cfi_endproc
 448              	.LFE6:
 449              		.size	CySysClkIloCompensate, .-CySysClkIloCompensate
 450              		.global	__aeabi_idiv
 451              		.section	.text.CySysClkIloUpdateTrimReg,"ax",%progbits
 452              		.align	2
 453              		.global	CySysClkIloUpdateTrimReg
 454              		.code	16
 455              		.thumb_func
 456              		.type	CySysClkIloUpdateTrimReg, %function
 457              	CySysClkIloUpdateTrimReg:
 458              	.LFB9:
 572:Generated_Source\PSoC4/CyLFClk.c ****     uint32 measuredIloFreq;
 459              		.loc 1 572 0
 460              		.cfi_startproc
 461              		@ args = 0, pretend = 0, frame = 0
 462              		@ frame_needed = 0, uses_anonymous_args = 0
 463              	.LVL38:
 464 0000 10B5     		push	{r4, lr}
 465              		.cfi_def_cfa_offset 8
ARM GAS  C:\Users\tuanngu\AppData\Local\Temp\cckQ6cTy.s 			page 27


 466              		.cfi_offset 4, -8
 467              		.cfi_offset 14, -4
 468 0002 0400     		movs	r4, r0
 579:Generated_Source\PSoC4/CyLFClk.c ****     {
 469              		.loc 1 579 0
 470 0004 234B     		ldr	r3, .L47
 471 0006 1B68     		ldr	r3, [r3]
 472 0008 002B     		cmp	r3, #0
 473 000a 41D0     		beq	.L44
 581:Generated_Source\PSoC4/CyLFClk.c **** 
 474              		.loc 1 581 0
 475 000c 214B     		ldr	r3, .L47
 476 000e 1868     		ldr	r0, [r3]
 477              	.LVL39:
 478 0010 214B     		ldr	r3, .L47+4
 479 0012 1968     		ldr	r1, [r3]
 480 0014 4843     		muls	r0, r1
 481 0016 890A     		lsrs	r1, r1, #10
 482 0018 FFF7FEFF 		bl	__aeabi_uidiv
 483              	.LVL40:
 585:Generated_Source\PSoC4/CyLFClk.c ****                             ((int32) CY_SYS_CLK_PERTHOUSAND)) / ((int32) CY_SYS_CLK_ILO_DESIRED_FRE
 484              		.loc 1 585 0
 485 001c 1F4B     		ldr	r3, .L47+8
 486 001e 9C46     		mov	ip, r3
 487 0020 6044     		add	r0, r0, ip
 488              	.LVL41:
 489 0022 FA23     		movs	r3, #250
 490 0024 9B00     		lsls	r3, r3, #2
 491 0026 5843     		muls	r0, r3
 492              	.LVL42:
 493 0028 FA21     		movs	r1, #250
 494 002a C901     		lsls	r1, r1, #7
 495 002c FFF7FEFF 		bl	__aeabi_idiv
 496              	.LVL43:
 589:Generated_Source\PSoC4/CyLFClk.c ****         {
 497              		.loc 1 589 0
 498 0030 C217     		asrs	r2, r0, #31
 499 0032 8318     		adds	r3, r0, r2
 500 0034 5340     		eors	r3, r2
 501 0036 382B     		cmp	r3, #56
 502 0038 27D9     		bls	.L39
 591:Generated_Source\PSoC4/CyLFClk.c ****             {
 503              		.loc 1 591 0
 504 003a 0028     		cmp	r0, #0
 505 003c 09DD     		ble	.L40
 593:Generated_Source\PSoC4/CyLFClk.c ****                 CY_SYS_CLK_HALF_OF_STEP) / CY_SYS_CLK_ERROR_STEP);
 506              		.loc 1 593 0
 507 003e 8300     		lsls	r3, r0, #2
 508 0040 1818     		adds	r0, r3, r0
 509              	.LVL44:
 510 0042 4300     		lsls	r3, r0, #1
 511 0044 7133     		adds	r3, r3, #113
 512 0046 FF33     		adds	r3, r3, #255
 513 0048 1800     		movs	r0, r3
 514 004a 1549     		ldr	r1, .L47+12
 515 004c FFF7FEFF 		bl	__aeabi_idiv
 516              	.LVL45:
ARM GAS  C:\Users\tuanngu\AppData\Local\Temp\cckQ6cTy.s 			page 28


 517 0050 08E0     		b	.L41
 518              	.LVL46:
 519              	.L40:
 598:Generated_Source\PSoC4/CyLFClk.c ****                 CY_SYS_CLK_HALF_OF_STEP) / CY_SYS_CLK_ERROR_STEP);
 520              		.loc 1 598 0
 521 0052 8300     		lsls	r3, r0, #2
 522 0054 1818     		adds	r0, r3, r0
 523              	.LVL47:
 524 0056 4300     		lsls	r3, r0, #1
 525 0058 713B     		subs	r3, r3, #113
 526 005a FF3B     		subs	r3, r3, #255
 527 005c 1800     		movs	r0, r3
 528 005e 1049     		ldr	r1, .L47+12
 529 0060 FFF7FEFF 		bl	__aeabi_idiv
 530              	.LVL48:
 531              	.L41:
 601:Generated_Source\PSoC4/CyLFClk.c ****             trimStep = (int32) currentIloTrimValue - trimStep;
 532              		.loc 1 601 0
 533 0064 0F4B     		ldr	r3, .L47+16
 534 0066 1B68     		ldr	r3, [r3]
 535 0068 0F22     		movs	r2, #15
 536 006a 1340     		ands	r3, r2
 537              	.LVL49:
 602:Generated_Source\PSoC4/CyLFClk.c **** 
 538              		.loc 1 602 0
 539 006c 181A     		subs	r0, r3, r0
 540              	.LVL50:
 604:Generated_Source\PSoC4/CyLFClk.c ****             {
 541              		.loc 1 604 0
 542 006e 0F28     		cmp	r0, #15
 543 0070 00DD     		ble	.L42
 606:Generated_Source\PSoC4/CyLFClk.c ****             }
 544              		.loc 1 606 0
 545 0072 0F20     		movs	r0, #15
 546              	.LVL51:
 547              	.L42:
 608:Generated_Source\PSoC4/CyLFClk.c ****             {
 548              		.loc 1 608 0
 549 0074 0028     		cmp	r0, #0
 550 0076 00DA     		bge	.L43
 610:Generated_Source\PSoC4/CyLFClk.c ****             }
 551              		.loc 1 610 0
 552 0078 0020     		movs	r0, #0
 553              	.LVL52:
 554              	.L43:
 612:Generated_Source\PSoC4/CyLFClk.c ****                                                                  ((uint32) trimStep);
 555              		.loc 1 612 0
 556 007a 0A4A     		ldr	r2, .L47+16
 557 007c 1368     		ldr	r3, [r2]
 558              	.LVL53:
 559 007e 0F21     		movs	r1, #15
 560 0080 8B43     		bics	r3, r1
 561 0082 1843     		orrs	r0, r3
 562              	.LVL54:
 563 0084 1060     		str	r0, [r2]
 564              	.LVL55:
 614:Generated_Source\PSoC4/CyLFClk.c ****         } /* Else return success because error is in +/- 10% range*/
ARM GAS  C:\Users\tuanngu\AppData\Local\Temp\cckQ6cTy.s 			page 29


 565              		.loc 1 614 0
 566 0086 0720     		movs	r0, #7
 567 0088 03E0     		b	.L38
 568              	.LVL56:
 569              	.L39:
 619:Generated_Source\PSoC4/CyLFClk.c ****             errorRangeStatus = CYRET_SUCCESS;
 570              		.loc 1 619 0
 571 008a 2060     		str	r0, [r4]
 572              	.LVL57:
 620:Generated_Source\PSoC4/CyLFClk.c ****         }
 573              		.loc 1 620 0
 574 008c 0020     		movs	r0, #0
 575              	.LVL58:
 576 008e 00E0     		b	.L38
 577              	.LVL59:
 578              	.L44:
 625:Generated_Source\PSoC4/CyLFClk.c ****     }
 579              		.loc 1 625 0
 580 0090 1120     		movs	r0, #17
 581              	.LVL60:
 582              	.L38:
 628:Generated_Source\PSoC4/CyLFClk.c **** 
 583              		.loc 1 628 0
 584              		@ sp needed
 585              	.LVL61:
 586 0092 10BD     		pop	{r4, pc}
 587              	.L48:
 588              		.align	2
 589              	.L47:
 590 0094 1C000340 		.word	1073938460
 591 0098 00000000 		.word	cydelayFreqHz
 592 009c 0083FFFF 		.word	-32000
 593 00a0 E1020000 		.word	737
 594 00a4 24FF0B40 		.word	1074528036
 595              		.cfi_endproc
 596              	.LFE9:
 597              		.size	CySysClkIloUpdateTrimReg, .-CySysClkIloUpdateTrimReg
 598              		.section	.text.CySysClkIloTrim,"ax",%progbits
 599              		.align	2
 600              		.global	CySysClkIloTrim
 601              		.code	16
 602              		.thumb_func
 603              		.type	CySysClkIloTrim, %function
 604              	CySysClkIloTrim:
 605              	.LFB8:
 450:Generated_Source\PSoC4/CyLFClk.c ****     uint32 timeOutClocks = CY_SYS_CLK_TIMEOUT;
 606              		.loc 1 450 0
 607              		.cfi_startproc
 608              		@ args = 0, pretend = 0, frame = 0
 609              		@ frame_needed = 0, uses_anonymous_args = 0
 610              	.LVL62:
 611 0000 70B5     		push	{r4, r5, r6, lr}
 612              		.cfi_def_cfa_offset 16
 613              		.cfi_offset 4, -16
 614              		.cfi_offset 5, -12
 615              		.cfi_offset 6, -8
 616              		.cfi_offset 14, -4
ARM GAS  C:\Users\tuanngu\AppData\Local\Temp\cckQ6cTy.s 			page 30


 617 0002 0C00     		movs	r4, r1
 618              	.LVL63:
 457:Generated_Source\PSoC4/CyLFClk.c **** 
 619              		.loc 1 457 0
 620 0004 2D4B     		ldr	r3, .L64
 621 0006 1A68     		ldr	r2, [r3]
 622 0008 2D4B     		ldr	r3, .L64+4
 623 000a 1340     		ands	r3, r2
 624              	.LVL64:
 460:Generated_Source\PSoC4/CyLFClk.c ****        (CY_SYS_TST_DDFT_CTRL_REG == CY_SYS_TST_DDFT_CTRL_REG_SEL2_CLK1) &&
 625              		.loc 1 460 0
 626 000c 8022     		movs	r2, #128
 627 000e 5200     		lsls	r2, r2, #1
 628 0010 9342     		cmp	r3, r2
 629 0012 47D1     		bne	.L58
 461:Generated_Source\PSoC4/CyLFClk.c ****        (iloAccuracyInPPT != NULL))
 630              		.loc 1 461 0 discriminator 1
 631 0014 2B4B     		ldr	r3, .L64+8
 632              	.LVL65:
 633 0016 1A68     		ldr	r2, [r3]
 460:Generated_Source\PSoC4/CyLFClk.c ****        (CY_SYS_TST_DDFT_CTRL_REG == CY_SYS_TST_DDFT_CTRL_REG_SEL2_CLK1) &&
 634              		.loc 1 460 0 discriminator 1
 635 0018 2B4B     		ldr	r3, .L64+12
 636 001a 9A42     		cmp	r2, r3
 637 001c 44D1     		bne	.L59
 461:Generated_Source\PSoC4/CyLFClk.c ****        (iloAccuracyInPPT != NULL))
 638              		.loc 1 461 0
 639 001e 0029     		cmp	r1, #0
 640 0020 44D0     		beq	.L60
 464:Generated_Source\PSoC4/CyLFClk.c ****         {
 641              		.loc 1 464 0
 642 0022 0028     		cmp	r0, #0
 643 0024 25D1     		bne	.L51
 466:Generated_Source\PSoC4/CyLFClk.c ****             do
 644              		.loc 1 466 0
 645 0026 294B     		ldr	r3, .L64+16
 646 0028 1D68     		ldr	r5, [r3]
 647 002a AD0A     		lsrs	r5, r5, #10
 648              	.LVL66:
 451:Generated_Source\PSoC4/CyLFClk.c ****     uint32 waitUntilCntr1Stops;
 649              		.loc 1 451 0
 650 002c 0526     		movs	r6, #5
 651              	.LVL67:
 652              	.L56:
 470:Generated_Source\PSoC4/CyLFClk.c **** 
 653              		.loc 1 470 0
 654 002e 274B     		ldr	r3, .L64+16
 655 0030 1B68     		ldr	r3, [r3]
 656 0032 9B0A     		lsrs	r3, r3, #10
 657 0034 264A     		ldr	r2, .L64+20
 658 0036 1360     		str	r3, [r2]
 473:Generated_Source\PSoC4/CyLFClk.c ****                 {
 659              		.loc 1 473 0
 660 0038 02E0     		b	.L52
 661              	.L54:
 475:Generated_Source\PSoC4/CyLFClk.c ****                     if (0u == waitUntilCntr1Stops)
 662              		.loc 1 475 0
ARM GAS  C:\Users\tuanngu\AppData\Local\Temp\cckQ6cTy.s 			page 31


 663 003a 013D     		subs	r5, r5, #1
 664              	.LVL68:
 476:Generated_Source\PSoC4/CyLFClk.c ****                     {
 665              		.loc 1 476 0
 666 003c 002D     		cmp	r5, #0
 667 003e 03D0     		beq	.L53
 668              	.L52:
 473:Generated_Source\PSoC4/CyLFClk.c ****                 {
 669              		.loc 1 473 0
 670 0040 234B     		ldr	r3, .L64+20
 671 0042 1B68     		ldr	r3, [r3]
 672 0044 002B     		cmp	r3, #0
 673 0046 F8DA     		bge	.L54
 674              	.L53:
 481:Generated_Source\PSoC4/CyLFClk.c ****                 timeOutClocks--;
 675              		.loc 1 481 0
 676 0048 2000     		movs	r0, r4
 677 004a FFF7FEFF 		bl	CySysClkIloUpdateTrimReg
 678              	.LVL69:
 679 004e 214B     		ldr	r3, .L64+24
 680 0050 9860     		str	r0, [r3, #8]
 482:Generated_Source\PSoC4/CyLFClk.c **** 
 681              		.loc 1 482 0
 682 0052 013E     		subs	r6, r6, #1
 683              	.LVL70:
 487:Generated_Source\PSoC4/CyLFClk.c **** 
 684              		.loc 1 487 0
 685 0054 0028     		cmp	r0, #0
 686 0056 03D0     		beq	.L55
 485:Generated_Source\PSoC4/CyLFClk.c ****               (CYRET_INVALID_STATE != trimRunningStatus) && 
 687              		.loc 1 485 0
 688 0058 1128     		cmp	r0, #17
 689 005a 01D0     		beq	.L55
 486:Generated_Source\PSoC4/CyLFClk.c ****                                (0u != timeOutClocks));
 690              		.loc 1 486 0
 691 005c 002E     		cmp	r6, #0
 692 005e E6D1     		bne	.L56
 693              	.L55:
 489:Generated_Source\PSoC4/CyLFClk.c ****             {
 694              		.loc 1 489 0
 695 0060 0028     		cmp	r0, #0
 696 0062 25D0     		beq	.L61
 495:Generated_Source\PSoC4/CyLFClk.c ****                 {
 697              		.loc 1 495 0
 698 0064 002E     		cmp	r6, #0
 699 0066 25D1     		bne	.L62
 497:Generated_Source\PSoC4/CyLFClk.c ****                     returnStatus = CYRET_TIMEOUT;
 700              		.loc 1 497 0
 701 0068 0022     		movs	r2, #0
 702 006a 1A4B     		ldr	r3, .L64+24
 703 006c 9A60     		str	r2, [r3, #8]
 704              	.LVL71:
 498:Generated_Source\PSoC4/CyLFClk.c ****                 }
 705              		.loc 1 498 0
 706 006e 1020     		movs	r0, #16
 707 0070 23E0     		b	.L50
 708              	.LVL72:
ARM GAS  C:\Users\tuanngu\AppData\Local\Temp\cckQ6cTy.s 			page 32


 709              	.L51:
 509:Generated_Source\PSoC4/CyLFClk.c ****             {
 710              		.loc 1 509 0
 711 0072 184B     		ldr	r3, .L64+24
 712 0074 9B68     		ldr	r3, [r3, #8]
 713 0076 002B     		cmp	r3, #0
 714 0078 0AD0     		beq	.L57
 512:Generated_Source\PSoC4/CyLFClk.c ****                 {
 715              		.loc 1 512 0
 716 007a 154B     		ldr	r3, .L64+20
 717 007c 1B68     		ldr	r3, [r3]
 718 007e 002B     		cmp	r3, #0
 719 0080 1ADA     		bge	.L63
 514:Generated_Source\PSoC4/CyLFClk.c ****                     trimRunningStatus = CY_SYS_CLK_TRIM_OR_COMP_FINISHED;
 720              		.loc 1 514 0
 721 0082 0800     		movs	r0, r1
 722              	.LVL73:
 723 0084 FFF7FEFF 		bl	CySysClkIloUpdateTrimReg
 724              	.LVL74:
 515:Generated_Source\PSoC4/CyLFClk.c ****                 }
 725              		.loc 1 515 0
 726 0088 0022     		movs	r2, #0
 727 008a 124B     		ldr	r3, .L64+24
 728 008c 9A60     		str	r2, [r3, #8]
 729 008e 14E0     		b	.L50
 730              	.LVL75:
 731              	.L57:
 525:Generated_Source\PSoC4/CyLFClk.c ****                 trimRunningStatus = CY_SYS_CLK_TRIM_OR_COMP_STARTED;
 732              		.loc 1 525 0
 733 0090 0E4B     		ldr	r3, .L64+16
 734 0092 1B68     		ldr	r3, [r3]
 735 0094 9B0A     		lsrs	r3, r3, #10
 736 0096 0E4A     		ldr	r2, .L64+20
 737 0098 1360     		str	r3, [r2]
 526:Generated_Source\PSoC4/CyLFClk.c ****                 returnStatus = CYRET_STARTED;
 738              		.loc 1 526 0
 739 009a 0122     		movs	r2, #1
 740 009c 0D4B     		ldr	r3, .L64+24
 741 009e 9A60     		str	r2, [r3, #8]
 742              	.LVL76:
 527:Generated_Source\PSoC4/CyLFClk.c ****             }
 743              		.loc 1 527 0
 744 00a0 0720     		movs	r0, #7
 745              	.LVL77:
 746 00a2 0AE0     		b	.L50
 747              	.LVL78:
 748              	.L58:
 533:Generated_Source\PSoC4/CyLFClk.c ****     }
 749              		.loc 1 533 0
 750 00a4 1120     		movs	r0, #17
 751              	.LVL79:
 752 00a6 08E0     		b	.L50
 753              	.LVL80:
 754              	.L59:
 755 00a8 1120     		movs	r0, #17
 756              	.LVL81:
 757 00aa 06E0     		b	.L50
ARM GAS  C:\Users\tuanngu\AppData\Local\Temp\cckQ6cTy.s 			page 33


 758              	.LVL82:
 759              	.L60:
 760 00ac 1120     		movs	r0, #17
 761              	.LVL83:
 762 00ae 04E0     		b	.L50
 763              	.LVL84:
 764              	.L61:
 491:Generated_Source\PSoC4/CyLFClk.c ****             }
 765              		.loc 1 491 0
 766 00b0 0020     		movs	r0, #0
 767 00b2 02E0     		b	.L50
 768              	.L62:
 502:Generated_Source\PSoC4/CyLFClk.c ****                 }
 769              		.loc 1 502 0
 770 00b4 1120     		movs	r0, #17
 771 00b6 00E0     		b	.L50
 772              	.LVL85:
 773              	.L63:
 519:Generated_Source\PSoC4/CyLFClk.c ****                 }
 774              		.loc 1 519 0
 775 00b8 0720     		movs	r0, #7
 776              	.LVL86:
 777              	.L50:
 537:Generated_Source\PSoC4/CyLFClk.c **** 
 778              		.loc 1 537 0
 779              		@ sp needed
 780              	.LVL87:
 781 00ba 70BD     		pop	{r4, r5, r6, pc}
 782              	.L65:
 783              		.align	2
 784              	.L64:
 785 00bc 10010B40 		.word	1074462992
 786 00c0 3F3F0000 		.word	16191
 787 00c4 08000340 		.word	1073938440
 788 00c8 0A0B0000 		.word	2826
 789 00cc 00000000 		.word	cydelayFreqHz
 790 00d0 18000340 		.word	1073938456
 791 00d4 00000000 		.word	.LANCHOR0
 792              		.cfi_endproc
 793              	.LFE8:
 794              		.size	CySysClkIloTrim, .-CySysClkIloTrim
 795              		.section	.text.CySysClkIloRestoreFactoryTrim,"ax",%progbits
 796              		.align	2
 797              		.global	CySysClkIloRestoreFactoryTrim
 798              		.code	16
 799              		.thumb_func
 800              		.type	CySysClkIloRestoreFactoryTrim, %function
 801              	CySysClkIloRestoreFactoryTrim:
 802              	.LFB10:
 649:Generated_Source\PSoC4/CyLFClk.c ****     cystatus returnStatus = CYRET_SUCCESS;
 803              		.loc 1 649 0
 804              		.cfi_startproc
 805              		@ args = 0, pretend = 0, frame = 0
 806              		@ frame_needed = 0, uses_anonymous_args = 0
 807              		@ link register save eliminated.
 808              	.LVL88:
 653:Generated_Source\PSoC4/CyLFClk.c ****         {
ARM GAS  C:\Users\tuanngu\AppData\Local\Temp\cckQ6cTy.s 			page 34


 809              		.loc 1 653 0
 810 0000 094B     		ldr	r3, .L69
 811 0002 1B88     		ldrh	r3, [r3]
 812 0004 9BB2     		uxth	r3, r3
 813 0006 F02B     		cmp	r3, #240
 814 0008 0BD0     		beq	.L68
 655:Generated_Source\PSoC4/CyLFClk.c ****                                        (defaultIloTrimRegValue & CY_SYS_CLK_ILO_TRIM_MASK));
 815              		.loc 1 655 0
 816 000a 0848     		ldr	r0, .L69+4
 817 000c 0368     		ldr	r3, [r0]
 818 000e 0F22     		movs	r2, #15
 819 0010 9343     		bics	r3, r2
 820 0012 1900     		movs	r1, r3
 656:Generated_Source\PSoC4/CyLFClk.c ****         }
 821              		.loc 1 656 0
 822 0014 044B     		ldr	r3, .L69
 823 0016 1B88     		ldrh	r3, [r3]
 824 0018 1340     		ands	r3, r2
 655:Generated_Source\PSoC4/CyLFClk.c ****                                        (defaultIloTrimRegValue & CY_SYS_CLK_ILO_TRIM_MASK));
 825              		.loc 1 655 0
 826 001a 0B43     		orrs	r3, r1
 827 001c 0360     		str	r3, [r0]
 650:Generated_Source\PSoC4/CyLFClk.c **** 
 828              		.loc 1 650 0
 829 001e 0020     		movs	r0, #0
 830 0020 01E0     		b	.L67
 831              	.L68:
 660:Generated_Source\PSoC4/CyLFClk.c ****         }
 832              		.loc 1 660 0
 833 0022 0120     		movs	r0, #1
 834 0024 4042     		rsbs	r0, r0, #0
 835              	.L67:
 836              	.LVL89:
 664:Generated_Source\PSoC4/CyLFClk.c **** #endif /* (CY_IP_SRSSV2 && (!CY_IP_CPUSS)) */
 837              		.loc 1 664 0
 838              		@ sp needed
 839 0026 7047     		bx	lr
 840              	.L70:
 841              		.align	2
 842              	.L69:
 843 0028 00000000 		.word	.LANCHOR1
 844 002c 24FF0B40 		.word	1074528036
 845              		.cfi_endproc
 846              	.LFE10:
 847              		.size	CySysClkIloRestoreFactoryTrim, .-CySysClkIloRestoreFactoryTrim
 848              		.section	.text.CySysClkWcoStart,"ax",%progbits
 849              		.align	2
 850              		.global	CySysClkWcoStart
 851              		.code	16
 852              		.thumb_func
 853              		.type	CySysClkWcoStart, %function
 854              	CySysClkWcoStart:
 855              	.LFB13:
 772:Generated_Source\PSoC4/CyLFClk.c ****         CySysClkWcoSetHighPowerMode();
 856              		.loc 1 772 0
 857              		.cfi_startproc
 858              		@ args = 0, pretend = 0, frame = 0
ARM GAS  C:\Users\tuanngu\AppData\Local\Temp\cckQ6cTy.s 			page 35


 859              		@ frame_needed = 0, uses_anonymous_args = 0
 860 0000 10B5     		push	{r4, lr}
 861              		.cfi_def_cfa_offset 8
 862              		.cfi_offset 4, -8
 863              		.cfi_offset 14, -4
 864              	.LBB8:
 865              	.LBB9:
 866              		.file 2 "Generated_Source\\PSoC4\\CyLFClk.h"
   1:Generated_Source\PSoC4/CyLFClk.h **** /***************************************************************************//**
   2:Generated_Source\PSoC4/CyLFClk.h **** * \file .h
   3:Generated_Source\PSoC4/CyLFClk.h **** * \version 1.20
   4:Generated_Source\PSoC4/CyLFClk.h **** *
   5:Generated_Source\PSoC4/CyLFClk.h **** * \brief
   6:Generated_Source\PSoC4/CyLFClk.h **** *  This file provides the source code to API for the lfclk and wdt.
   7:Generated_Source\PSoC4/CyLFClk.h **** *
   8:Generated_Source\PSoC4/CyLFClk.h **** ********************************************************************************
   9:Generated_Source\PSoC4/CyLFClk.h **** * \copyright
  10:Generated_Source\PSoC4/CyLFClk.h **** * Copyright 2008-2017, Cypress Semiconductor Corporation.  All rights reserved.
  11:Generated_Source\PSoC4/CyLFClk.h **** * You may use this file only in accordance with the license, terms, conditions,
  12:Generated_Source\PSoC4/CyLFClk.h **** * disclaimers, and limitations in the end user license agreement accompanying
  13:Generated_Source\PSoC4/CyLFClk.h **** * the software package with which this file was provided.
  14:Generated_Source\PSoC4/CyLFClk.h **** *******************************************************************************/
  15:Generated_Source\PSoC4/CyLFClk.h **** 
  16:Generated_Source\PSoC4/CyLFClk.h **** 
  17:Generated_Source\PSoC4/CyLFClk.h **** #if !defined(CY_LFCLK_CYLIB_H)
  18:Generated_Source\PSoC4/CyLFClk.h **** #define CY_LFCLK_CYLIB_H
  19:Generated_Source\PSoC4/CyLFClk.h **** 
  20:Generated_Source\PSoC4/CyLFClk.h **** #include "cytypes.h"
  21:Generated_Source\PSoC4/CyLFClk.h **** #include "cydevice_trm.h"
  22:Generated_Source\PSoC4/CyLFClk.h **** 
  23:Generated_Source\PSoC4/CyLFClk.h **** #define CY_IP_WCO_WDT_EN           (-1 == 1)
  24:Generated_Source\PSoC4/CyLFClk.h **** 
  25:Generated_Source\PSoC4/CyLFClk.h **** typedef enum
  26:Generated_Source\PSoC4/CyLFClk.h **** {
  27:Generated_Source\PSoC4/CyLFClk.h ****     CY_SYS_TIMER_WAIT = 0u,
  28:Generated_Source\PSoC4/CyLFClk.h ****     CY_SYS_TIMER_INTERRUPT = 1u
  29:Generated_Source\PSoC4/CyLFClk.h **** } cy_sys_timer_delaytype_enum;
  30:Generated_Source\PSoC4/CyLFClk.h **** 
  31:Generated_Source\PSoC4/CyLFClk.h **** 
  32:Generated_Source\PSoC4/CyLFClk.h **** /***************************************
  33:Generated_Source\PSoC4/CyLFClk.h **** *    Function Prototypes
  34:Generated_Source\PSoC4/CyLFClk.h **** ***************************************/
  35:Generated_Source\PSoC4/CyLFClk.h **** /**
  36:Generated_Source\PSoC4/CyLFClk.h **** * \addtogroup group_general
  37:Generated_Source\PSoC4/CyLFClk.h **** * @{
  38:Generated_Source\PSoC4/CyLFClk.h **** */
  39:Generated_Source\PSoC4/CyLFClk.h **** /* Clocks API */
  40:Generated_Source\PSoC4/CyLFClk.h **** void CySysClkIloStart(void);
  41:Generated_Source\PSoC4/CyLFClk.h **** void CySysClkIloStop(void);
  42:Generated_Source\PSoC4/CyLFClk.h **** /** @} general */
  43:Generated_Source\PSoC4/CyLFClk.h **** 
  44:Generated_Source\PSoC4/CyLFClk.h **** /**
  45:Generated_Source\PSoC4/CyLFClk.h **** * \addtogroup group_compensate
  46:Generated_Source\PSoC4/CyLFClk.h **** * @{
  47:Generated_Source\PSoC4/CyLFClk.h **** */
  48:Generated_Source\PSoC4/CyLFClk.h **** cystatus CySysClkIloCompensate(uint32 desiredDelay, uint32 *compensatedCycles);
  49:Generated_Source\PSoC4/CyLFClk.h **** void CySysClkIloStartMeasurement(void);
ARM GAS  C:\Users\tuanngu\AppData\Local\Temp\cckQ6cTy.s 			page 36


  50:Generated_Source\PSoC4/CyLFClk.h **** void CySysClkIloStopMeasurement(void);
  51:Generated_Source\PSoC4/CyLFClk.h **** /** @} compensate */
  52:Generated_Source\PSoC4/CyLFClk.h **** 
  53:Generated_Source\PSoC4/CyLFClk.h **** #if(CY_IP_SRSSV2 && (!CY_IP_CPUSS))
  54:Generated_Source\PSoC4/CyLFClk.h ****     /**
  55:Generated_Source\PSoC4/CyLFClk.h ****     * \addtogroup group_compensate
  56:Generated_Source\PSoC4/CyLFClk.h ****     * @{
  57:Generated_Source\PSoC4/CyLFClk.h ****     */
  58:Generated_Source\PSoC4/CyLFClk.h ****     cystatus CySysClkIloTrim(uint32 mode, int32 *iloAccuracyInPPT);
  59:Generated_Source\PSoC4/CyLFClk.h ****     cystatus CySysClkIloRestoreFactoryTrim(void);
  60:Generated_Source\PSoC4/CyLFClk.h ****     /** @} compensate */
  61:Generated_Source\PSoC4/CyLFClk.h ****     cystatus CySysClkIloUpdateTrimReg(int32* iloAccuracyInPPT);
  62:Generated_Source\PSoC4/CyLFClk.h **** #endif /* (CY_IP_SRSSV2 && (!CY_IP_CPUSS)) */
  63:Generated_Source\PSoC4/CyLFClk.h **** 
  64:Generated_Source\PSoC4/CyLFClk.h **** #if(CY_IP_SRSSV2 && CY_IP_WCO)
  65:Generated_Source\PSoC4/CyLFClk.h ****     /**
  66:Generated_Source\PSoC4/CyLFClk.h ****     * \addtogroup group_general
  67:Generated_Source\PSoC4/CyLFClk.h ****     * @{
  68:Generated_Source\PSoC4/CyLFClk.h ****     */
  69:Generated_Source\PSoC4/CyLFClk.h ****     void CySysClkSetLfclkSource(uint32 source);
  70:Generated_Source\PSoC4/CyLFClk.h ****     /** @} group_general */
  71:Generated_Source\PSoC4/CyLFClk.h **** #endif /* (CY_IP_SRSSV2 && CY_IP_WCO) */
  72:Generated_Source\PSoC4/CyLFClk.h **** 
  73:Generated_Source\PSoC4/CyLFClk.h **** #if (CY_IP_WCO)
  74:Generated_Source\PSoC4/CyLFClk.h ****     /**
  75:Generated_Source\PSoC4/CyLFClk.h ****     * \addtogroup group_wco
  76:Generated_Source\PSoC4/CyLFClk.h ****     * @{
  77:Generated_Source\PSoC4/CyLFClk.h ****     */
  78:Generated_Source\PSoC4/CyLFClk.h ****     void   CySysClkWcoStart(void);
  79:Generated_Source\PSoC4/CyLFClk.h ****     void   CySysClkWcoStop(void);
  80:Generated_Source\PSoC4/CyLFClk.h ****     uint32 CySysClkWcoSetPowerMode(uint32 mode);
  81:Generated_Source\PSoC4/CyLFClk.h ****     void CySysClkWcoClockOutSelect(uint32 clockSel);
  82:Generated_Source\PSoC4/CyLFClk.h ****     /** @} wco */
  83:Generated_Source\PSoC4/CyLFClk.h **** 
  84:Generated_Source\PSoC4/CyLFClk.h ****     uint32 CySysClkWcoEnabled(void);
  85:Generated_Source\PSoC4/CyLFClk.h **** 
  86:Generated_Source\PSoC4/CyLFClk.h **** #endif /* (CY_IP_WCO) */
  87:Generated_Source\PSoC4/CyLFClk.h **** 
  88:Generated_Source\PSoC4/CyLFClk.h **** typedef void (*cyWdtCallback)(void);
  89:Generated_Source\PSoC4/CyLFClk.h **** 
  90:Generated_Source\PSoC4/CyLFClk.h **** #if (CY_IP_SRSSLT && CY_IP_WCO && CY_IP_WCO_WDT_EN)
  91:Generated_Source\PSoC4/CyLFClk.h **** 
  92:Generated_Source\PSoC4/CyLFClk.h ****     typedef void (*cyTimerCallback)(void);
  93:Generated_Source\PSoC4/CyLFClk.h **** #endif /* (CY_IP_SRSSLT && CY_IP_WCO && CY_IP_WCO_WDT_EN) */
  94:Generated_Source\PSoC4/CyLFClk.h **** 
  95:Generated_Source\PSoC4/CyLFClk.h **** #if(CY_IP_SRSSV2)
  96:Generated_Source\PSoC4/CyLFClk.h ****     /**
  97:Generated_Source\PSoC4/CyLFClk.h ****     * \addtogroup group_wdtsrssv2
  98:Generated_Source\PSoC4/CyLFClk.h ****     * @{
  99:Generated_Source\PSoC4/CyLFClk.h ****     */
 100:Generated_Source\PSoC4/CyLFClk.h ****     /* WDT API */
 101:Generated_Source\PSoC4/CyLFClk.h ****     void   CySysWdtLock(void);
 102:Generated_Source\PSoC4/CyLFClk.h ****     void   CySysWdtUnlock(void);
 103:Generated_Source\PSoC4/CyLFClk.h ****     void   CySysWdtSetMode(uint32 counterNum, uint32 mode);
 104:Generated_Source\PSoC4/CyLFClk.h ****     uint32 CySysWdtGetMode(uint32 counterNum);
 105:Generated_Source\PSoC4/CyLFClk.h ****     uint32 CySysWdtGetEnabledStatus(uint32 counterNum);
 106:Generated_Source\PSoC4/CyLFClk.h ****     void   CySysWdtSetClearOnMatch(uint32 counterNum, uint32 enable);
ARM GAS  C:\Users\tuanngu\AppData\Local\Temp\cckQ6cTy.s 			page 37


 107:Generated_Source\PSoC4/CyLFClk.h ****     uint32 CySysWdtGetClearOnMatch(uint32 counterNum);
 108:Generated_Source\PSoC4/CyLFClk.h ****     void   CySysWdtEnable(uint32 counterMask);
 109:Generated_Source\PSoC4/CyLFClk.h ****     void   CySysWdtDisable(uint32 counterMask);
 110:Generated_Source\PSoC4/CyLFClk.h ****     void   CySysWdtSetCascade(uint32 cascadeMask);
 111:Generated_Source\PSoC4/CyLFClk.h ****     uint32 CySysWdtGetCascade(void);
 112:Generated_Source\PSoC4/CyLFClk.h ****     void   CySysWdtSetMatch(uint32 counterNum, uint32 match);
 113:Generated_Source\PSoC4/CyLFClk.h ****     void   CySysWdtSetToggleBit(uint32 bits);
 114:Generated_Source\PSoC4/CyLFClk.h ****     uint32 CySysWdtGetToggleBit(void);
 115:Generated_Source\PSoC4/CyLFClk.h ****     uint32 CySysWdtGetMatch(uint32 counterNum);
 116:Generated_Source\PSoC4/CyLFClk.h ****     uint32 CySysWdtGetCount(uint32 counterNum);
 117:Generated_Source\PSoC4/CyLFClk.h ****     uint32 CySysWdtGetInterruptSource(void);
 118:Generated_Source\PSoC4/CyLFClk.h ****     void   CySysWdtClearInterrupt(uint32 counterMask);
 119:Generated_Source\PSoC4/CyLFClk.h ****     void   CySysWdtResetCounters(uint32 countersMask);
 120:Generated_Source\PSoC4/CyLFClk.h ****     cyWdtCallback  CySysWdtSetInterruptCallback(uint32 counterNum, cyWdtCallback function);
 121:Generated_Source\PSoC4/CyLFClk.h ****     cyWdtCallback  CySysWdtGetInterruptCallback(uint32 counterNum);
 122:Generated_Source\PSoC4/CyLFClk.h ****     void   CySysTimerDelay(uint32 counterNum, cy_sys_timer_delaytype_enum delayType, uint32 delay);
 123:Generated_Source\PSoC4/CyLFClk.h ****     void   CySysTimerDelayUntilMatch(uint32 counterNum, cy_sys_timer_delaytype_enum delayType, uint
 124:Generated_Source\PSoC4/CyLFClk.h ****     void   CySysWatchdogFeed(uint32 counterNum);
 125:Generated_Source\PSoC4/CyLFClk.h ****     void   CySysWdtEnableCounterIsr(uint32 counterNum);
 126:Generated_Source\PSoC4/CyLFClk.h ****     void   CySysWdtDisableCounterIsr(uint32 counterNum);
 127:Generated_Source\PSoC4/CyLFClk.h ****     void   CySysWdtIsr(void);
 128:Generated_Source\PSoC4/CyLFClk.h ****     /** @} wdtsrssv2 */
 129:Generated_Source\PSoC4/CyLFClk.h **** #else
 130:Generated_Source\PSoC4/CyLFClk.h ****     /**
 131:Generated_Source\PSoC4/CyLFClk.h ****     * \addtogroup group_wdtsrsslite
 132:Generated_Source\PSoC4/CyLFClk.h ****     * @{
 133:Generated_Source\PSoC4/CyLFClk.h ****     */
 134:Generated_Source\PSoC4/CyLFClk.h ****     /* WDT API */
 135:Generated_Source\PSoC4/CyLFClk.h ****     uint32 CySysWdtGetEnabledStatus(void);
 136:Generated_Source\PSoC4/CyLFClk.h ****     void   CySysWdtEnable(void);
 137:Generated_Source\PSoC4/CyLFClk.h ****     void   CySysWdtDisable(void);
 138:Generated_Source\PSoC4/CyLFClk.h ****     void   CySysWdtSetMatch(uint32 match);
 139:Generated_Source\PSoC4/CyLFClk.h ****     uint32 CySysWdtGetMatch(void);
 140:Generated_Source\PSoC4/CyLFClk.h ****     uint32 CySysWdtGetCount(void);
 141:Generated_Source\PSoC4/CyLFClk.h ****     void   CySysWdtSetIgnoreBits(uint32 bitsNum);
 142:Generated_Source\PSoC4/CyLFClk.h ****     uint32 CySysWdtGetIgnoreBits(void);
 143:Generated_Source\PSoC4/CyLFClk.h ****     void   CySysWdtClearInterrupt(void);
 144:Generated_Source\PSoC4/CyLFClk.h ****     void   CySysWdtMaskInterrupt(void);
 145:Generated_Source\PSoC4/CyLFClk.h ****     void   CySysWdtUnmaskInterrupt(void);
 146:Generated_Source\PSoC4/CyLFClk.h ****     cyWdtCallback CySysWdtSetInterruptCallback(cyWdtCallback function);
 147:Generated_Source\PSoC4/CyLFClk.h ****     cyWdtCallback CySysWdtGetInterruptCallback(void);
 148:Generated_Source\PSoC4/CyLFClk.h ****     void   CySysWdtIsr(void);
 149:Generated_Source\PSoC4/CyLFClk.h ****     /** @} wdtsrsslite*/
 150:Generated_Source\PSoC4/CyLFClk.h **** #endif  /* (CY_IP_SRSSV2) */
 151:Generated_Source\PSoC4/CyLFClk.h **** 
 152:Generated_Source\PSoC4/CyLFClk.h **** 
 153:Generated_Source\PSoC4/CyLFClk.h **** #if(CY_IP_SRSSLT && CY_IP_WCO && CY_IP_WCO_WDT_EN)
 154:Generated_Source\PSoC4/CyLFClk.h ****     /**
 155:Generated_Source\PSoC4/CyLFClk.h ****     * \addtogroup group_deepsleepwdt
 156:Generated_Source\PSoC4/CyLFClk.h ****     * @{
 157:Generated_Source\PSoC4/CyLFClk.h ****     */
 158:Generated_Source\PSoC4/CyLFClk.h ****     /* WCO WDT APIs */
 159:Generated_Source\PSoC4/CyLFClk.h ****     void   CySysClkSetTimerSource(uint32 source);
 160:Generated_Source\PSoC4/CyLFClk.h ****     void   CySysTimerSetMode(uint32 counterNum, uint32 mode);
 161:Generated_Source\PSoC4/CyLFClk.h ****     uint32 CySysTimerGetMode(uint32 counterNum);
 162:Generated_Source\PSoC4/CyLFClk.h ****     uint32 CySysTimerGetEnabledStatus(uint32 counterNum);
 163:Generated_Source\PSoC4/CyLFClk.h ****     void   CySysTimerSetClearOnMatch(uint32 counterNum, uint32 enable);
ARM GAS  C:\Users\tuanngu\AppData\Local\Temp\cckQ6cTy.s 			page 38


 164:Generated_Source\PSoC4/CyLFClk.h ****     uint32 CySysTimerGetClearOnMatch(uint32 counterNum);
 165:Generated_Source\PSoC4/CyLFClk.h ****     void   CySysTimerEnable(uint32 counterMask);
 166:Generated_Source\PSoC4/CyLFClk.h ****     void   CySysTimerDisable(uint32 counterMask);
 167:Generated_Source\PSoC4/CyLFClk.h ****     void   CySysTimerSetCascade(uint32 cascadeMask);
 168:Generated_Source\PSoC4/CyLFClk.h ****     uint32 CySysTimerGetCascade(void);
 169:Generated_Source\PSoC4/CyLFClk.h ****     void   CySysTimerSetMatch(uint32 counterNum, uint32 match);
 170:Generated_Source\PSoC4/CyLFClk.h ****     void   CySysTimerSetToggleBit(uint32 bits);
 171:Generated_Source\PSoC4/CyLFClk.h ****     uint32 CySysTimerGetToggleBit(void);
 172:Generated_Source\PSoC4/CyLFClk.h ****     uint32 CySysTimerGetMatch(uint32 counterNum);
 173:Generated_Source\PSoC4/CyLFClk.h ****     uint32 CySysTimerGetCount(uint32 counterNum);
 174:Generated_Source\PSoC4/CyLFClk.h ****     uint32 CySysTimerGetInterruptSource(void);
 175:Generated_Source\PSoC4/CyLFClk.h ****     void   CySysTimerClearInterrupt(uint32 counterMask);
 176:Generated_Source\PSoC4/CyLFClk.h ****     cyTimerCallback CySysTimerSetInterruptCallback(uint32 counterNum, cyTimerCallback function);
 177:Generated_Source\PSoC4/CyLFClk.h ****     cyTimerCallback CySysTimerGetInterruptCallback(uint32 counterNum);
 178:Generated_Source\PSoC4/CyLFClk.h ****     void   CySysTimerDelay(uint32 counterNum, cy_sys_timer_delaytype_enum delayType, uint32 delay);
 179:Generated_Source\PSoC4/CyLFClk.h ****     void   CySysTimerDelayUntilMatch(uint32 counterNum, cy_sys_timer_delaytype_enum delayType, uint
 180:Generated_Source\PSoC4/CyLFClk.h ****     void   CySysTimerResetCounters(uint32 countersMask);
 181:Generated_Source\PSoC4/CyLFClk.h ****     void   CySysTimerEnableIsr(uint32 counterNum);
 182:Generated_Source\PSoC4/CyLFClk.h ****     void   CySysTimerDisableIsr(uint32 counterNum);
 183:Generated_Source\PSoC4/CyLFClk.h ****     void   CySysTimerIsr(void);
 184:Generated_Source\PSoC4/CyLFClk.h ****     /** @} deepsleepwdt */
 185:Generated_Source\PSoC4/CyLFClk.h **** #endif /* (CY_IP_SRSSLT && CY_IP_WCO && CY_IP_WCO_WDT_EN) */
 186:Generated_Source\PSoC4/CyLFClk.h **** 
 187:Generated_Source\PSoC4/CyLFClk.h **** 
 188:Generated_Source\PSoC4/CyLFClk.h **** /*******************************************************************************
 189:Generated_Source\PSoC4/CyLFClk.h **** * API Constants
 190:Generated_Source\PSoC4/CyLFClk.h **** *******************************************************************************/
 191:Generated_Source\PSoC4/CyLFClk.h **** #define CY_SYS_UINT16_MAX_VAL    (0xFFFFu)
 192:Generated_Source\PSoC4/CyLFClk.h **** 
 193:Generated_Source\PSoC4/CyLFClk.h **** 
 194:Generated_Source\PSoC4/CyLFClk.h **** /*******************************************************************************
 195:Generated_Source\PSoC4/CyLFClk.h **** * Clock API Constants
 196:Generated_Source\PSoC4/CyLFClk.h **** *******************************************************************************/
 197:Generated_Source\PSoC4/CyLFClk.h **** 
 198:Generated_Source\PSoC4/CyLFClk.h **** /* CySysClkIloStart()/CySysClkIloStop() - implementation definitions */
 199:Generated_Source\PSoC4/CyLFClk.h **** #define CY_SYS_CLK_ILO_CONFIG_ENABLE                    ((uint32)(( uint32 )0x01u << 31u))
 200:Generated_Source\PSoC4/CyLFClk.h **** #define CY_SYS_CLK_DFT_SELECT_DEFAULT_MASK              ((uint32)(( uint32 )0x0fu << 8u ))
 201:Generated_Source\PSoC4/CyLFClk.h **** 
 202:Generated_Source\PSoC4/CyLFClk.h **** /* CySysClkIloCompensate() - one ILO clock in uS multiplied on thousand */
 203:Generated_Source\PSoC4/CyLFClk.h **** #if (CY_IP_SRSSV2)
 204:Generated_Source\PSoC4/CyLFClk.h ****     #define CY_SYS_CLK_ILO_PERIOD_PPH                   ((uint32) (0x0C35u))
 205:Generated_Source\PSoC4/CyLFClk.h **** #else
 206:Generated_Source\PSoC4/CyLFClk.h ****     #define CY_SYS_CLK_ILO_PERIOD_PPH                   ((uint32) (0x09C4u))
 207:Generated_Source\PSoC4/CyLFClk.h **** #endif /* (CY_IP_SRSSV2) */
 208:Generated_Source\PSoC4/CyLFClk.h **** 
 209:Generated_Source\PSoC4/CyLFClk.h **** /* CySysClkIloCompensate() - implementation definitions */
 210:Generated_Source\PSoC4/CyLFClk.h **** #define CY_SYS_CLK_ILO_CALIBR_COMPLETE_MASK             ((uint32)(( uint32 )0x01u << 31u))
 211:Generated_Source\PSoC4/CyLFClk.h **** #define CY_SYS_CLK_ILO_DFT_LSB_MASK                     ((uint32)(0x00000FFFu))
 212:Generated_Source\PSoC4/CyLFClk.h **** #define CY_SYS_CLK_TRIM_OR_COMP_STARTED                 (1u)
 213:Generated_Source\PSoC4/CyLFClk.h **** #define CY_SYS_CLK_TRIM_OR_COMP_FINISHED                (0u)
 214:Generated_Source\PSoC4/CyLFClk.h **** #define CY_SYS_CLK_COEF_PHUNDRED                        ((uint32) (0x64u))
 215:Generated_Source\PSoC4/CyLFClk.h **** #define CY_SYS_CLK_HALF_OF_CLOCK                        ((uint32) ((uint32) CY_SYS_CLK_ILO_PERIOD_P
 216:Generated_Source\PSoC4/CyLFClk.h **** 
 217:Generated_Source\PSoC4/CyLFClk.h **** /* CySysClkIloCompensate() - maximum value of desiredDelay argument */
 218:Generated_Source\PSoC4/CyLFClk.h **** #if (CY_IP_SRSSV2)
 219:Generated_Source\PSoC4/CyLFClk.h ****     #define CY_SYS_CLK_MAX_DELAY_US                     ((uint32) (0xEE6B2800u))
 220:Generated_Source\PSoC4/CyLFClk.h ****     #define CY_SYS_CLK_ILO_PERIOD                       ((uint32) (0x1Fu))
ARM GAS  C:\Users\tuanngu\AppData\Local\Temp\cckQ6cTy.s 			page 39


 221:Generated_Source\PSoC4/CyLFClk.h ****     #define CY_SYS_CLK_ILO_FREQ_2MSB                    ((uint32) 5u)
 222:Generated_Source\PSoC4/CyLFClk.h **** #else
 223:Generated_Source\PSoC4/CyLFClk.h ****     #define CY_SYS_CLK_MAX_DELAY_US                     ((uint32) (0x1E8480u))
 224:Generated_Source\PSoC4/CyLFClk.h ****     #define CY_SYS_CLK_ILO_FREQ_2MSB                    ((uint32) (0x28u ))
 225:Generated_Source\PSoC4/CyLFClk.h **** 
 226:Generated_Source\PSoC4/CyLFClk.h ****     /**********************************************************************************
 227:Generated_Source\PSoC4/CyLFClk.h ****     * CySysClkIloCompensate() - value to walk over oversamling in calculations with 
 228:Generated_Source\PSoC4/CyLFClk.h ****     * srsslite. The oversample can be obtained when ilo frequency in equal 80 KHz and
 229:Generated_Source\PSoC4/CyLFClk.h ****     * desired clocks are 80 000 clocks.
 230:Generated_Source\PSoC4/CyLFClk.h ****     **********************************************************************************/
 231:Generated_Source\PSoC4/CyLFClk.h ****     #define CY_SYS_CLK_MAX_LITE_NUMBER                     ((uint32) 53600u)
 232:Generated_Source\PSoC4/CyLFClk.h **** #endif /* (CY_IP_SRSSV2) */
 233:Generated_Source\PSoC4/CyLFClk.h **** 
 234:Generated_Source\PSoC4/CyLFClk.h **** #define CY_SYS_CLK_ILO_FREQ_3LSB                       ((uint32) (0x3E8u))
 235:Generated_Source\PSoC4/CyLFClk.h **** #define CY_SYS_CLK_DELAY_COUNTS_LIMIT                  ((uint32) (0xD160u))
 236:Generated_Source\PSoC4/CyLFClk.h **** #define CY_SYS_CLK_MIN_DELAY_US                        ((uint32) (0x64u))
 237:Generated_Source\PSoC4/CyLFClk.h **** 
 238:Generated_Source\PSoC4/CyLFClk.h **** /* CySysClkSetLfclkSource() - parameter definitions */
 239:Generated_Source\PSoC4/CyLFClk.h **** #if (CY_IP_SRSSV2 && CY_IP_WCO)
 240:Generated_Source\PSoC4/CyLFClk.h **** 
 241:Generated_Source\PSoC4/CyLFClk.h ****     /** Internal Low Frequency (32 kHz) Oscillator (ILO) */
 242:Generated_Source\PSoC4/CyLFClk.h ****     #define CY_SYS_CLK_LFCLK_SRC_ILO                    (0u)
 243:Generated_Source\PSoC4/CyLFClk.h **** 
 244:Generated_Source\PSoC4/CyLFClk.h ****     /** Low Frequency Watch Crystal Oscillator (WCO) */
 245:Generated_Source\PSoC4/CyLFClk.h ****     #define CY_SYS_CLK_LFCLK_SRC_WCO                    ((uint32)(( uint32 )0x01u << 30u))
 246:Generated_Source\PSoC4/CyLFClk.h **** #endif /* (CY_IP_SRSSV2 && CY_IP_WCO) */
 247:Generated_Source\PSoC4/CyLFClk.h **** 
 248:Generated_Source\PSoC4/CyLFClk.h **** 
 249:Generated_Source\PSoC4/CyLFClk.h **** #if (CY_IP_WCO)
 250:Generated_Source\PSoC4/CyLFClk.h **** 
 251:Generated_Source\PSoC4/CyLFClk.h ****     /* CySysClkSetLfclkSource() - implementation definitions */
 252:Generated_Source\PSoC4/CyLFClk.h ****     #define CY_SYS_CLK_LFCLK_SEL_MASK                   ((uint32)(( uint32 )0x03u << 30u))
 253:Generated_Source\PSoC4/CyLFClk.h **** #endif /* (CY_IP_WCO) */
 254:Generated_Source\PSoC4/CyLFClk.h **** 
 255:Generated_Source\PSoC4/CyLFClk.h **** /* CySysClkSetTimerSource() - implementation definitions */
 256:Generated_Source\PSoC4/CyLFClk.h **** #if (CY_IP_SRSSLT && CY_IP_WCO && CY_IP_WCO_WDT_EN)
 257:Generated_Source\PSoC4/CyLFClk.h ****     #define CY_SYS_CLK_TIMER_SEL_MASK                   ((uint32)(( uint32 )0x03u << 30u))
 258:Generated_Source\PSoC4/CyLFClk.h **** #endif /* (CY_IP_SRSSLT && CY_IP_WCO && CY_IP_WCO_WDT_EN) */
 259:Generated_Source\PSoC4/CyLFClk.h **** 
 260:Generated_Source\PSoC4/CyLFClk.h **** /* CySysClkSetTimerSource() - parameter definitions */
 261:Generated_Source\PSoC4/CyLFClk.h **** #if (CY_IP_SRSSLT && CY_IP_WCO && CY_IP_WCO_WDT_EN)
 262:Generated_Source\PSoC4/CyLFClk.h **** 
 263:Generated_Source\PSoC4/CyLFClk.h ****     /** Internal Low Frequency (32 kHz) Oscillator (ILO) */
 264:Generated_Source\PSoC4/CyLFClk.h ****     #define CY_SYS_CLK_TIMER_SRC_ILO                (0u)
 265:Generated_Source\PSoC4/CyLFClk.h **** 
 266:Generated_Source\PSoC4/CyLFClk.h ****     /** Low Frequency Watch Crystal Oscillator (WCO) */
 267:Generated_Source\PSoC4/CyLFClk.h ****     #define CY_SYS_CLK_TIMER_SRC_WCO                ((uint32)(( uint32 )0x01u << 30u))
 268:Generated_Source\PSoC4/CyLFClk.h **** #endif /* (CY_IP_SRSSLT && CY_IP_WCO && CY_IP_WCO_WDT_EN) */
 269:Generated_Source\PSoC4/CyLFClk.h **** 
 270:Generated_Source\PSoC4/CyLFClk.h **** /* CySysClkWcoClockOutSelect() - parameter definitions */
 271:Generated_Source\PSoC4/CyLFClk.h **** #if (CY_IP_WCO)
 272:Generated_Source\PSoC4/CyLFClk.h **** 
 273:Generated_Source\PSoC4/CyLFClk.h ****     /** Selects External crystal as WCO’s clock source */
 274:Generated_Source\PSoC4/CyLFClk.h ****     #define CY_SYS_CLK_WCO_SEL_CRYSTAL                  (1u)
 275:Generated_Source\PSoC4/CyLFClk.h **** 
 276:Generated_Source\PSoC4/CyLFClk.h ****     /** Selects External clock input on wco_in pin as WCO’s clock source */
 277:Generated_Source\PSoC4/CyLFClk.h ****     #define CY_SYS_CLK_WCO_SEL_PIN                      (0u)
ARM GAS  C:\Users\tuanngu\AppData\Local\Temp\cckQ6cTy.s 			page 40


 278:Generated_Source\PSoC4/CyLFClk.h **** #endif /* (CY_IP_WCO) */
 279:Generated_Source\PSoC4/CyLFClk.h **** 
 280:Generated_Source\PSoC4/CyLFClk.h **** /* CySysClkWcoClockOutSelect() - implementation definitions */
 281:Generated_Source\PSoC4/CyLFClk.h **** #if (CY_IP_WCO)
 282:Generated_Source\PSoC4/CyLFClk.h ****     #define CY_SYS_CLK_WCO_SELECT_PIN_MASK              ((uint32)(( uint32 )0x01u << 2u))
 283:Generated_Source\PSoC4/CyLFClk.h ****     #define CY_SYS_CLK_WCO_SELECT_PIN_OFFSET            ((uint32) 0x02u)
 284:Generated_Source\PSoC4/CyLFClk.h **** #endif /* (CY_IP_WCO) */
 285:Generated_Source\PSoC4/CyLFClk.h **** 
 286:Generated_Source\PSoC4/CyLFClk.h **** /* CySysClkIloRestoreFactoryTrim() - implementation definitions */
 287:Generated_Source\PSoC4/CyLFClk.h **** #if (CY_IP_SRSSV2 && CY_IP_WCO && (!CY_IP_CPUSS))
 288:Generated_Source\PSoC4/CyLFClk.h ****     #define CY_SYS_CLK_ILO_TRIM_DEFAULT_VALUE           ((uint8 )(0xF0u))
 289:Generated_Source\PSoC4/CyLFClk.h ****     #define CY_SYS_CLK_ILO_TRIM_DEFAULT_MASK            ((uint32)((uint32)0x01u << 3u))
 290:Generated_Source\PSoC4/CyLFClk.h ****     #define CY_SYS_CLK_ILO_TRIM_MASK                    ((uint32)(0x0Fu))
 291:Generated_Source\PSoC4/CyLFClk.h **** #endif /* (CY_IP_SRSSV2 && CY_IP_WCO && (!CY_IP_CPUSS)) */
 292:Generated_Source\PSoC4/CyLFClk.h **** 
 293:Generated_Source\PSoC4/CyLFClk.h **** /* CySysIloTrim() - parameter definitions and macros*/
 294:Generated_Source\PSoC4/CyLFClk.h **** #if (CY_IP_SRSSV2 && CY_IP_WCO && (!CY_IP_CPUSS))
 295:Generated_Source\PSoC4/CyLFClk.h ****     #define CY_SYS_CLK_BLOCKING                         (0u)
 296:Generated_Source\PSoC4/CyLFClk.h ****     #define CY_SYS_CLK_NON_BLOCKING                     (1u)
 297:Generated_Source\PSoC4/CyLFClk.h ****     #define CY_SYS_CLK_PERTHOUSAND                      ((uint32) 0x000003E8u )
 298:Generated_Source\PSoC4/CyLFClk.h ****     #define CY_SYS_CLK_ABS_MACRO(x)                     ((0 > (x)) ? (-(x)) : (x))
 299:Generated_Source\PSoC4/CyLFClk.h ****     #define CY_SYS_CLK_ERROR_RANGE                      ((uint32) 0x38u)
 300:Generated_Source\PSoC4/CyLFClk.h ****     #define CY_SYS_CLK_TIMEOUT                          ((uint8 ) 0x05u)
 301:Generated_Source\PSoC4/CyLFClk.h **** 
 302:Generated_Source\PSoC4/CyLFClk.h ****     /* ILO error step is 7,37 % error range */
 303:Generated_Source\PSoC4/CyLFClk.h ****     #define CY_SYS_CLK_ERROR_STEP                       (( int32) 0x02E1u)
 304:Generated_Source\PSoC4/CyLFClk.h ****     #define CY_SYS_CLK_ERROR_COEF                       ((uint32) 0x0Au)
 305:Generated_Source\PSoC4/CyLFClk.h **** #endif /* (CY_IP_SRSSV2 && CY_IP_WCO && (!CY_IP_CPUSS)) */
 306:Generated_Source\PSoC4/CyLFClk.h **** 
 307:Generated_Source\PSoC4/CyLFClk.h **** #if (CY_IP_WCO)
 308:Generated_Source\PSoC4/CyLFClk.h **** 
 309:Generated_Source\PSoC4/CyLFClk.h ****     /* WCO Configuration Register */
 310:Generated_Source\PSoC4/CyLFClk.h ****     #define CY_SYS_CLK_WCO_CONFIG_LPM_EN                (( uint32 )(( uint32 )0x01u <<  0u))
 311:Generated_Source\PSoC4/CyLFClk.h ****     #define CY_SYS_CLK_WCO_CONFIG_LPM_AUTO              (( uint32 )(( uint32 )0x01u <<  1u))
 312:Generated_Source\PSoC4/CyLFClk.h ****     #define CY_SYS_CLK_WCO_CONFIG_LPM_ENABLE            (( uint32 )(( uint32 )0x01u << 31u))
 313:Generated_Source\PSoC4/CyLFClk.h **** 
 314:Generated_Source\PSoC4/CyLFClk.h ****     /* WCO Status Register */
 315:Generated_Source\PSoC4/CyLFClk.h ****     #define CY_SYS_CLK_WCO_STATUS_OUT_BLNK_A            (( uint32 )(( uint32 )0x01u <<  0u))
 316:Generated_Source\PSoC4/CyLFClk.h **** 
 317:Generated_Source\PSoC4/CyLFClk.h ****     /* WCO Trim Register */
 318:Generated_Source\PSoC4/CyLFClk.h ****     #define CY_SYS_CLK_WCO_TRIM_XGM_MASK                (( uint32 ) 0x07u)
 319:Generated_Source\PSoC4/CyLFClk.h ****     #define CY_SYS_CLK_WCO_TRIM_XGM_SHIFT               (( uint32 ) 0x00u)
 320:Generated_Source\PSoC4/CyLFClk.h **** 
 321:Generated_Source\PSoC4/CyLFClk.h ****     #define CY_SYS_CLK_WCO_TRIM_XGM_3370NA              (( uint32 ) 0x00u)
 322:Generated_Source\PSoC4/CyLFClk.h ****     #define CY_SYS_CLK_WCO_TRIM_XGM_2620NA              (( uint32 ) 0x01u)
 323:Generated_Source\PSoC4/CyLFClk.h ****     #define CY_SYS_CLK_WCO_TRIM_XGM_2250NA              (( uint32 ) 0x02u)
 324:Generated_Source\PSoC4/CyLFClk.h ****     #define CY_SYS_CLK_WCO_TRIM_XGM_1500NA              (( uint32 ) 0x03u)
 325:Generated_Source\PSoC4/CyLFClk.h ****     #define CY_SYS_CLK_WCO_TRIM_XGM_1870NA              (( uint32 ) 0x04u)
 326:Generated_Source\PSoC4/CyLFClk.h ****     #define CY_SYS_CLK_WCO_TRIM_XGM_1120NA              (( uint32 ) 0x05u)
 327:Generated_Source\PSoC4/CyLFClk.h ****     #define CY_SYS_CLK_WCO_TRIM_XGM_750NA               (( uint32 ) 0x06u)
 328:Generated_Source\PSoC4/CyLFClk.h ****     #define CY_SYS_CLK_WCO_TRIM_XGM_0NA                 (( uint32 ) 0x07u)
 329:Generated_Source\PSoC4/CyLFClk.h **** 
 330:Generated_Source\PSoC4/CyLFClk.h ****     #define CY_SYS_CLK_WCO_TRIM_GM_MASK                 (( uint32 )(( uint32 )0x03u << 4u))
 331:Generated_Source\PSoC4/CyLFClk.h ****     #define CY_SYS_CLK_WCO_TRIM_GM_SHIFT                (( uint32 ) 0x04u)
 332:Generated_Source\PSoC4/CyLFClk.h ****     #define CY_SYS_CLK_WCO_TRIM_GM_HPM                  (( uint32 ) 0x01u)
 333:Generated_Source\PSoC4/CyLFClk.h ****     #define CY_SYS_CLK_WCO_TRIM_GM_LPM                  (( uint32 ) 0x02u)
 334:Generated_Source\PSoC4/CyLFClk.h **** #endif  /* (CY_IP_WCO) */
ARM GAS  C:\Users\tuanngu\AppData\Local\Temp\cckQ6cTy.s 			page 41


 335:Generated_Source\PSoC4/CyLFClk.h **** 
 336:Generated_Source\PSoC4/CyLFClk.h **** 
 337:Generated_Source\PSoC4/CyLFClk.h **** /*******************************************************************************
 338:Generated_Source\PSoC4/CyLFClk.h **** * WDT API Constants
 339:Generated_Source\PSoC4/CyLFClk.h **** *******************************************************************************/
 340:Generated_Source\PSoC4/CyLFClk.h **** #if(CY_IP_SRSSV2)
 341:Generated_Source\PSoC4/CyLFClk.h **** 
 342:Generated_Source\PSoC4/CyLFClk.h ****     #define CY_SYS_WDT_MODE_NONE                (0u)
 343:Generated_Source\PSoC4/CyLFClk.h ****     #define CY_SYS_WDT_MODE_INT                 (1u)
 344:Generated_Source\PSoC4/CyLFClk.h ****     #define CY_SYS_WDT_MODE_RESET               (2u)
 345:Generated_Source\PSoC4/CyLFClk.h ****     #define CY_SYS_WDT_MODE_INT_RESET           (3u)
 346:Generated_Source\PSoC4/CyLFClk.h **** 
 347:Generated_Source\PSoC4/CyLFClk.h ****     #define CY_SYS_WDT_COUNTER0_MASK            ((uint32)((uint32)0x01u))           /**< Counter 0 
 348:Generated_Source\PSoC4/CyLFClk.h ****     #define CY_SYS_WDT_COUNTER1_MASK            ((uint32)((uint32)0x01u << 8u))     /**< Counter 1 
 349:Generated_Source\PSoC4/CyLFClk.h ****     #define CY_SYS_WDT_COUNTER2_MASK            ((uint32)((uint32)0x01u << 16u))    /**< Counter 2 
 350:Generated_Source\PSoC4/CyLFClk.h **** 
 351:Generated_Source\PSoC4/CyLFClk.h ****     #define CY_SYS_WDT_CASCADE_NONE             ((uint32)0x00u)             /**< Neither */
 352:Generated_Source\PSoC4/CyLFClk.h ****     #define CY_SYS_WDT_CASCADE_01               ((uint32)0x01u << 3u)       /**< Cascade 01 */
 353:Generated_Source\PSoC4/CyLFClk.h ****     #define CY_SYS_WDT_CASCADE_12               ((uint32)0x01u << 11u)      /**< Cascade 12 */
 354:Generated_Source\PSoC4/CyLFClk.h **** 
 355:Generated_Source\PSoC4/CyLFClk.h ****     #define CY_SYS_WDT_COUNTER0_INT             ((uint32)0x01u << 2u)
 356:Generated_Source\PSoC4/CyLFClk.h ****     #define CY_SYS_WDT_COUNTER1_INT             ((uint32)0x01u << 10u)
 357:Generated_Source\PSoC4/CyLFClk.h ****     #define CY_SYS_WDT_COUNTER2_INT             ((uint32)0x01u << 18u)
 358:Generated_Source\PSoC4/CyLFClk.h **** 
 359:Generated_Source\PSoC4/CyLFClk.h ****     #define CY_SYS_WDT_COUNTER0_RESET           ((uint32)0x01u << 3u)       /**< Counter 0 */
 360:Generated_Source\PSoC4/CyLFClk.h ****     #define CY_SYS_WDT_COUNTER1_RESET           ((uint32)0x01u << 11u)      /**< Counter 1 */
 361:Generated_Source\PSoC4/CyLFClk.h ****     #define CY_SYS_WDT_COUNTER2_RESET           ((uint32)0x01u << 19u)      /**< Counter 2 */
 362:Generated_Source\PSoC4/CyLFClk.h **** 
 363:Generated_Source\PSoC4/CyLFClk.h ****     #define CY_SYS_WDT_COUNTERS_RESET           (CY_SYS_WDT_COUNTER0_RESET |\
 364:Generated_Source\PSoC4/CyLFClk.h ****                                                  CY_SYS_WDT_COUNTER1_RESET |\
 365:Generated_Source\PSoC4/CyLFClk.h ****                                                  CY_SYS_WDT_COUNTER2_RESET)
 366:Generated_Source\PSoC4/CyLFClk.h **** 
 367:Generated_Source\PSoC4/CyLFClk.h ****     #define CY_SYS_WDT_COUNTER0                 (0x00u)
 368:Generated_Source\PSoC4/CyLFClk.h ****     #define CY_SYS_WDT_COUNTER1                 (0x01u)
 369:Generated_Source\PSoC4/CyLFClk.h ****     #define CY_SYS_WDT_COUNTER2                 (0x02u)
 370:Generated_Source\PSoC4/CyLFClk.h **** 
 371:Generated_Source\PSoC4/CyLFClk.h ****     #define CY_SYS_WDT_COUNTER0_OFFSET          (0x00u)
 372:Generated_Source\PSoC4/CyLFClk.h ****     #define CY_SYS_WDT_COUNTER1_OFFSET          (0x02u)
 373:Generated_Source\PSoC4/CyLFClk.h ****     #define CY_SYS_WDT_COUNTER2_OFFSET          (0x04u)
 374:Generated_Source\PSoC4/CyLFClk.h **** 
 375:Generated_Source\PSoC4/CyLFClk.h ****     #define CY_SYS_WDT_MODE_MASK                ((uint32)(0x03u))
 376:Generated_Source\PSoC4/CyLFClk.h **** 
 377:Generated_Source\PSoC4/CyLFClk.h ****     #define CY_SYS_WDT_CONFIG_BITS2_MASK        (uint32)(0x1Fu)
 378:Generated_Source\PSoC4/CyLFClk.h ****     #define CY_SYS_WDT_CONFIG_BITS2_POS         (uint32)(24u)
 379:Generated_Source\PSoC4/CyLFClk.h ****     #define CY_SYS_WDT_LOWER_16BITS_MASK        (uint32)(0x0000FFFFu)
 380:Generated_Source\PSoC4/CyLFClk.h ****     #define CY_SYS_WDT_HIGHER_16BITS_MASK       (uint32)(0xFFFF0000u)
 381:Generated_Source\PSoC4/CyLFClk.h ****     #define CY_SYS_WDT_COUNTERS_MAX             (0x03u)
 382:Generated_Source\PSoC4/CyLFClk.h ****     #define CY_SYS_WDT_CNT_SHIFT                (0x08u)
 383:Generated_Source\PSoC4/CyLFClk.h ****     #define CY_SYS_WDT_CNT_MATCH_CLR_SHIFT      (0x02u)
 384:Generated_Source\PSoC4/CyLFClk.h ****     #define CY_SYS_WDT_CNT_STTS_SHIFT           (0x01u)
 385:Generated_Source\PSoC4/CyLFClk.h ****     #define CY_SYS_WDT_CNT_MATCH_SHIFT          (0x10u)
 386:Generated_Source\PSoC4/CyLFClk.h **** 
 387:Generated_Source\PSoC4/CyLFClk.h ****     #define CY_SYS_WDT_CLK_LOCK_BITS_MASK       ((uint32)0x03u << 14u)
 388:Generated_Source\PSoC4/CyLFClk.h ****     #define CY_SYS_WDT_CLK_LOCK_BIT0            ((uint32)0x01u << 14u)
 389:Generated_Source\PSoC4/CyLFClk.h ****     #define CY_SYS_WDT_CLK_LOCK_BIT1            ((uint32)0x01u << 15u)
 390:Generated_Source\PSoC4/CyLFClk.h **** 
 391:Generated_Source\PSoC4/CyLFClk.h ****     #define CY_WDT_NUM_OF_WDT                   (3u)
ARM GAS  C:\Users\tuanngu\AppData\Local\Temp\cckQ6cTy.s 			page 42


 392:Generated_Source\PSoC4/CyLFClk.h ****     #define CY_WDT_NUM_OF_CALLBACKS             (3u)
 393:Generated_Source\PSoC4/CyLFClk.h **** 
 394:Generated_Source\PSoC4/CyLFClk.h ****     #else
 395:Generated_Source\PSoC4/CyLFClk.h ****         #define CY_WDT_NUM_OF_WDT               (1u)
 396:Generated_Source\PSoC4/CyLFClk.h ****         #define CY_WDT_NUM_OF_CALLBACKS         (3u)
 397:Generated_Source\PSoC4/CyLFClk.h ****         #define CY_SYS_WDT_KEY                  ((uint32)(0xACED8865u))
 398:Generated_Source\PSoC4/CyLFClk.h ****         #define CY_SYS_WDT_MATCH_MASK           ((uint32)(0x0000FFFFu))
 399:Generated_Source\PSoC4/CyLFClk.h ****         #define CY_SYS_WDT_IGNORE_BITS_MASK     ((uint32)(0x000F0000u))
 400:Generated_Source\PSoC4/CyLFClk.h ****         #define CY_SYS_WDT_IGNORE_BITS_SHIFT    ((uint32)(16u))
 401:Generated_Source\PSoC4/CyLFClk.h ****         #define CY_SYS_WDT_LOWER_BIT_MASK       ((uint32)(0x00000001u))
 402:Generated_Source\PSoC4/CyLFClk.h **** 
 403:Generated_Source\PSoC4/CyLFClk.h ****         #define CY_SYS_WDT_COUNTER0             (0x00u)
 404:Generated_Source\PSoC4/CyLFClk.h **** 
 405:Generated_Source\PSoC4/CyLFClk.h **** #endif /* (CY_IP_SRSSV2) */
 406:Generated_Source\PSoC4/CyLFClk.h **** 
 407:Generated_Source\PSoC4/CyLFClk.h **** #if (CY_IP_SRSSV2 && CY_IP_WCO)
 408:Generated_Source\PSoC4/CyLFClk.h ****     #define CY_SYS_WDT_1LFCLK_ILO_DELAY_US    ((uint16)( 67u))
 409:Generated_Source\PSoC4/CyLFClk.h ****     #define CY_SYS_WDT_3LFCLK_ILO_DELAY_US    ((uint16)(201u))
 410:Generated_Source\PSoC4/CyLFClk.h ****     #define CY_SYS_WDT_1LFCLK_WCO_DELAY_US    ((uint16)( 31u))
 411:Generated_Source\PSoC4/CyLFClk.h ****     #define CY_SYS_WDT_3LFCLK_WCO_DELAY_US    ((uint16)( 93u))
 412:Generated_Source\PSoC4/CyLFClk.h **** 
 413:Generated_Source\PSoC4/CyLFClk.h ****     #define CY_SYS_WDT_1LFCLK_DELAY_US      \
 414:Generated_Source\PSoC4/CyLFClk.h ****         ((CY_SYS_CLK_LFCLK_SRC_ILO == (CY_SYS_WDT_CONFIG_REG & CY_SYS_CLK_LFCLK_SEL_MASK)) ? \
 415:Generated_Source\PSoC4/CyLFClk.h ****                                             (CY_SYS_WDT_1LFCLK_ILO_DELAY_US) : \
 416:Generated_Source\PSoC4/CyLFClk.h ****                                             (CY_SYS_WDT_1LFCLK_WCO_DELAY_US))
 417:Generated_Source\PSoC4/CyLFClk.h **** 
 418:Generated_Source\PSoC4/CyLFClk.h ****     #define CY_SYS_WDT_3LFCLK_DELAY_US      \
 419:Generated_Source\PSoC4/CyLFClk.h ****         ((CY_SYS_CLK_LFCLK_SRC_ILO == (CY_SYS_WDT_CONFIG_REG & CY_SYS_CLK_LFCLK_SEL_MASK)) ? \
 420:Generated_Source\PSoC4/CyLFClk.h ****                                             (CY_SYS_WDT_3LFCLK_ILO_DELAY_US) : \
 421:Generated_Source\PSoC4/CyLFClk.h ****                                             (CY_SYS_WDT_3LFCLK_WCO_DELAY_US))
 422:Generated_Source\PSoC4/CyLFClk.h ****     #else
 423:Generated_Source\PSoC4/CyLFClk.h ****         #define CY_SYS_WDT_1LFCLK_DELAY_US      ((uint16)  (67u))
 424:Generated_Source\PSoC4/CyLFClk.h ****         #define CY_SYS_WDT_3LFCLK_DELAY_US      ((uint16) (201u))
 425:Generated_Source\PSoC4/CyLFClk.h **** #endif /* (CY_IP_SRSSV2 && CY_IP_WCO) */
 426:Generated_Source\PSoC4/CyLFClk.h **** 
 427:Generated_Source\PSoC4/CyLFClk.h **** #if (CY_IP_SRSSLT && CY_IP_WCO && CY_IP_WCO_WDT_EN)
 428:Generated_Source\PSoC4/CyLFClk.h **** 
 429:Generated_Source\PSoC4/CyLFClk.h ****     #define CY_SYS_TIMER_MODE_NONE              (0u)
 430:Generated_Source\PSoC4/CyLFClk.h ****     #define CY_SYS_TIMER_MODE_INT               (1u)
 431:Generated_Source\PSoC4/CyLFClk.h **** 
 432:Generated_Source\PSoC4/CyLFClk.h ****     #define CY_SYS_TIMER0_MASK                  ((uint32)((uint32)0x01u))           /**< Counter 0 
 433:Generated_Source\PSoC4/CyLFClk.h ****     #define CY_SYS_TIMER1_MASK                  ((uint32)((uint32)0x01u << 8u))     /**< Counter 1 
 434:Generated_Source\PSoC4/CyLFClk.h ****     #define CY_SYS_TIMER2_MASK                  ((uint32)((uint32)0x01u << 16u))    /**< Counter 2 
 435:Generated_Source\PSoC4/CyLFClk.h **** 
 436:Generated_Source\PSoC4/CyLFClk.h ****     #define CY_SYS_TIMER0_RESET                 ((uint32)0x01u << 3u)       /**< Counter 0 */
 437:Generated_Source\PSoC4/CyLFClk.h ****     #define CY_SYS_TIMER1_RESET                 ((uint32)0x01u << 11u)      /**< Counter 1 */
 438:Generated_Source\PSoC4/CyLFClk.h ****     #define CY_SYS_TIMER2_RESET                 ((uint32)0x01u << 19u)      /**< Counter 2 */
 439:Generated_Source\PSoC4/CyLFClk.h **** 
 440:Generated_Source\PSoC4/CyLFClk.h ****     #define CY_SYS_TIMER_RESET                  (CY_SYS_TIMER0_RESET |\
 441:Generated_Source\PSoC4/CyLFClk.h ****                                                  CY_SYS_TIMER1_RESET |\
 442:Generated_Source\PSoC4/CyLFClk.h ****                                                  CY_SYS_TIMER2_RESET)
 443:Generated_Source\PSoC4/CyLFClk.h **** 
 444:Generated_Source\PSoC4/CyLFClk.h ****     #define CY_SYS_TIMER_CASCADE_NONE           ((uint32)0x00u)             /**< Neither */
 445:Generated_Source\PSoC4/CyLFClk.h ****     #define CY_SYS_TIMER_CASCADE_01             ((uint32)0x01u << 3u)       /**< Cascade 01 */
 446:Generated_Source\PSoC4/CyLFClk.h ****     #define CY_SYS_TIMER_CASCADE_12             ((uint32)0x01u << 11u)      /**< Cascade 12 */
 447:Generated_Source\PSoC4/CyLFClk.h **** 
 448:Generated_Source\PSoC4/CyLFClk.h ****     #define CY_SYS_TIMER0_INT                   ((uint32)0x01u << 2u)
ARM GAS  C:\Users\tuanngu\AppData\Local\Temp\cckQ6cTy.s 			page 43


 449:Generated_Source\PSoC4/CyLFClk.h ****     #define CY_SYS_TIMER1_INT                   ((uint32)0x01u << 10u)
 450:Generated_Source\PSoC4/CyLFClk.h ****     #define CY_SYS_TIMER2_INT                   ((uint32)0x01u << 18u)
 451:Generated_Source\PSoC4/CyLFClk.h **** 
 452:Generated_Source\PSoC4/CyLFClk.h ****     #define CY_SYS_TIMER0                       (0x00u)
 453:Generated_Source\PSoC4/CyLFClk.h ****     #define CY_SYS_TIMER1                       (0x01u)
 454:Generated_Source\PSoC4/CyLFClk.h ****     #define CY_SYS_TIMER2                       (0x02u)
 455:Generated_Source\PSoC4/CyLFClk.h **** 
 456:Generated_Source\PSoC4/CyLFClk.h ****     #define CY_SYS_TIMER_MODE_MASK              ((uint32)(0x01u))
 457:Generated_Source\PSoC4/CyLFClk.h **** 
 458:Generated_Source\PSoC4/CyLFClk.h ****     #define CY_SYS_TIMER_CONFIG_BITS2_MASK      (uint32)(0x1Fu)
 459:Generated_Source\PSoC4/CyLFClk.h ****     #define CY_SYS_TIMER_CONFIG_BITS2_POS       (uint32)(24u)
 460:Generated_Source\PSoC4/CyLFClk.h ****     #define CY_SYS_TIMER_LOWER_16BITS_MASK      (uint32)(0x0000FFFFu)
 461:Generated_Source\PSoC4/CyLFClk.h ****     #define CY_SYS_TIMER_HIGHER_16BITS_MASK     (uint32)(0xFFFF0000u)
 462:Generated_Source\PSoC4/CyLFClk.h ****     #define CY_SYS_TIMER_COUNTERS_MAX           (0x03u)
 463:Generated_Source\PSoC4/CyLFClk.h ****     #define CY_SYS_TIMER_CNT_SHIFT              (0x08u)
 464:Generated_Source\PSoC4/CyLFClk.h ****     #define CY_SYS_TIMER_CNT_MATCH_CLR_SHIFT    (0x02u)
 465:Generated_Source\PSoC4/CyLFClk.h ****     #define CY_SYS_TIMER_CNT_STTS_SHIFT         (0x01u)
 466:Generated_Source\PSoC4/CyLFClk.h ****     #define CY_SYS_TIMER_CNT_MATCH_SHIFT        (0x10u)
 467:Generated_Source\PSoC4/CyLFClk.h **** 
 468:Generated_Source\PSoC4/CyLFClk.h ****     #define CY_SYS_NUM_OF_TIMERS                (3u)
 469:Generated_Source\PSoC4/CyLFClk.h **** 
 470:Generated_Source\PSoC4/CyLFClk.h ****     #define CY_SYS_SET_NEW_TIMER_SOURCE_ILO     ((uint16)(0x02u))
 471:Generated_Source\PSoC4/CyLFClk.h ****     #define CY_SYS_SET_NEW_TIMER_SOURCE_WCO     ((uint16)(0x01u))
 472:Generated_Source\PSoC4/CyLFClk.h ****     #define CY_SYS_WCO_WDT_CLKEN_RESET_MASK     ((uint32)(0x03u))
 473:Generated_Source\PSoC4/CyLFClk.h **** 
 474:Generated_Source\PSoC4/CyLFClk.h ****     #define CY_SYS_TIMER_1ILO_DELAY_US          ((uint16)( 67u))
 475:Generated_Source\PSoC4/CyLFClk.h ****     #define CY_SYS_TIMER_4ILO_DELAY_US          ((uint16)(268u))
 476:Generated_Source\PSoC4/CyLFClk.h ****     #define CY_SYS_TIMER_3ILO_DELAY_US          ((uint16)(201u))
 477:Generated_Source\PSoC4/CyLFClk.h **** 
 478:Generated_Source\PSoC4/CyLFClk.h ****     #define CY_SYS_TIMER_1WCO_DELAY_US          ((uint16)( 31u))
 479:Generated_Source\PSoC4/CyLFClk.h ****     #define CY_SYS_TIMER_4WCO_DELAY_US          ((uint16)(124u))
 480:Generated_Source\PSoC4/CyLFClk.h ****     #define CY_SYS_TIMER_3WCO_DELAY_US          ((uint16)( 93u))
 481:Generated_Source\PSoC4/CyLFClk.h **** 
 482:Generated_Source\PSoC4/CyLFClk.h ****     #define CY_SYS_1TIMER_DELAY_US      \
 483:Generated_Source\PSoC4/CyLFClk.h ****         ((CY_SYS_CLK_TIMER_SRC_ILO == (CY_SYS_WCO_WDT_CONFIG_REG & CY_SYS_CLK_TIMER_SEL_MASK)) ? \
 484:Generated_Source\PSoC4/CyLFClk.h ****                                             (CY_SYS_TIMER_1ILO_DELAY_US) : \
 485:Generated_Source\PSoC4/CyLFClk.h ****                                             (CY_SYS_TIMER_1WCO_DELAY_US))
 486:Generated_Source\PSoC4/CyLFClk.h **** 
 487:Generated_Source\PSoC4/CyLFClk.h ****     #define CY_SYS_4TIMER_DELAY_US      \
 488:Generated_Source\PSoC4/CyLFClk.h ****         ((CY_SYS_CLK_TIMER_SRC_ILO == (CY_SYS_WCO_WDT_CONFIG_REG & CY_SYS_CLK_TIMER_SEL_MASK)) ? \
 489:Generated_Source\PSoC4/CyLFClk.h ****                                             (CY_SYS_TIMER_4WCO_DELAY_US) : \
 490:Generated_Source\PSoC4/CyLFClk.h ****                                             (CY_SYS_TIMER_4ILO_DELAY_US))
 491:Generated_Source\PSoC4/CyLFClk.h **** 
 492:Generated_Source\PSoC4/CyLFClk.h ****     #define CY_SYS_3TIMER_DELAY_US      \
 493:Generated_Source\PSoC4/CyLFClk.h ****         ((CY_SYS_CLK_TIMER_SRC_ILO == (CY_SYS_WCO_WDT_CONFIG_REG & CY_SYS_CLK_TIMER_SEL_MASK)) ? \
 494:Generated_Source\PSoC4/CyLFClk.h ****                                             (CY_SYS_TIMER_3ILO_DELAY_US) : \
 495:Generated_Source\PSoC4/CyLFClk.h ****                                             (CY_SYS_TIMER_3WCO_DELAY_US))
 496:Generated_Source\PSoC4/CyLFClk.h **** 
 497:Generated_Source\PSoC4/CyLFClk.h ****     #define CY_SYS_SET_CURRENT_TIMER_SOURCE_BIT      \
 498:Generated_Source\PSoC4/CyLFClk.h ****         ((CY_SYS_CLK_TIMER_SRC_ILO == (CY_SYS_WCO_WDT_CONFIG_REG & CY_SYS_CLK_TIMER_SEL_MASK)) ? \
 499:Generated_Source\PSoC4/CyLFClk.h ****                                             (CY_SYS_SET_NEW_TIMER_SOURCE_ILO) : \
 500:Generated_Source\PSoC4/CyLFClk.h ****                                             (CY_SYS_SET_NEW_TIMER_SOURCE_WCO))
 501:Generated_Source\PSoC4/CyLFClk.h **** 
 502:Generated_Source\PSoC4/CyLFClk.h **** #endif /* (CY_IP_SRSSLT && CY_IP_WCO && CY_IP_WCO_WDT_EN) */
 503:Generated_Source\PSoC4/CyLFClk.h **** 
 504:Generated_Source\PSoC4/CyLFClk.h **** /* CySysClkWcoSetPowerMode() */
 505:Generated_Source\PSoC4/CyLFClk.h **** #define CY_SYS_CLK_WCO_HPM                              (0x0u)     /**< WCO High power mode */
ARM GAS  C:\Users\tuanngu\AppData\Local\Temp\cckQ6cTy.s 			page 44


 506:Generated_Source\PSoC4/CyLFClk.h **** 
 507:Generated_Source\PSoC4/CyLFClk.h **** #if(CY_IP_BLESS)
 508:Generated_Source\PSoC4/CyLFClk.h ****     #define CY_SYS_CLK_WCO_LPM                          (0x1u)     /**< WCO Low power mode */
 509:Generated_Source\PSoC4/CyLFClk.h **** #endif /* (CY_IP_BLESS) */
 510:Generated_Source\PSoC4/CyLFClk.h **** 
 511:Generated_Source\PSoC4/CyLFClk.h **** 
 512:Generated_Source\PSoC4/CyLFClk.h **** /*******************************************************************************
 513:Generated_Source\PSoC4/CyLFClk.h **** *       Trim Registers Constants 
 514:Generated_Source\PSoC4/CyLFClk.h **** ********************************************************************************/
 515:Generated_Source\PSoC4/CyLFClk.h **** #define CY_SYS_CLK_SYS_CLK_DEVIDER                  ((uint32)0x0Au)
 516:Generated_Source\PSoC4/CyLFClk.h **** #define CY_SYS_CLK_SEL_ILO_DFT_SOURCE               ((uint32)0x00000100u)
 517:Generated_Source\PSoC4/CyLFClk.h **** #define CY_SYS_CLK_FOURBITS_MAX                     (( int32)0x0f)
 518:Generated_Source\PSoC4/CyLFClk.h **** #define CY_SYS_CLK_HALF_OF_STEP                     (( int32)((uint32) CY_SYS_CLK_ERROR_STEP >> 1u)
 519:Generated_Source\PSoC4/CyLFClk.h **** 
 520:Generated_Source\PSoC4/CyLFClk.h **** #if(CY_IP_SRSSV2)
 521:Generated_Source\PSoC4/CyLFClk.h ****     #define CY_SYS_CLK_ILO_DESIRED_FREQ_HZ          (32000u)
 522:Generated_Source\PSoC4/CyLFClk.h ****     #define CY_SYS_CLK_DFT_SELSIZE                  ((uint32) 0x3F)
 523:Generated_Source\PSoC4/CyLFClk.h **** #else
 524:Generated_Source\PSoC4/CyLFClk.h ****     #define CY_SYS_CLK_ILO_DESIRED_FREQ_HZ          (40000u)
 525:Generated_Source\PSoC4/CyLFClk.h ****     #define CY_SYS_CLK_DFT_SELSIZE                  ((uint32) 0x0F)
 526:Generated_Source\PSoC4/CyLFClk.h **** #endif /* (CY_IP_SRSSV2) */
 527:Generated_Source\PSoC4/CyLFClk.h **** 
 528:Generated_Source\PSoC4/CyLFClk.h **** #define CY_SYS_TST_DDFT_CTRL_REG_DEFAULT_MASK    ((uint32)((CY_SYS_CLK_DFT_SELSIZE << 8u) | (CY_SYS
 529:Generated_Source\PSoC4/CyLFClk.h **** #define CY_SYS_TST_DDFT_SELECT_CLK1              ((uint32) ((uint32) CYDEV_DFT_SELECT_CLK1 << 8u))
 530:Generated_Source\PSoC4/CyLFClk.h **** #define CY_SYS_TST_DDFT_CTRL_REG_SEL2_CLK1       ((uint32) (CY_SYS_TST_DDFT_SELECT_CLK1 | CYDEV_DFT
 531:Generated_Source\PSoC4/CyLFClk.h **** 
 532:Generated_Source\PSoC4/CyLFClk.h **** 
 533:Generated_Source\PSoC4/CyLFClk.h **** /*******************************************************************************
 534:Generated_Source\PSoC4/CyLFClk.h **** *       Trim Registers 
 535:Generated_Source\PSoC4/CyLFClk.h **** ********************************************************************************/
 536:Generated_Source\PSoC4/CyLFClk.h **** /* DFT TST Control Register*/
 537:Generated_Source\PSoC4/CyLFClk.h **** #define CY_SYS_TST_DDFT_CTRL_REG                         (*(reg32*) CYREG_TST_DDFT_CTRL)
 538:Generated_Source\PSoC4/CyLFClk.h **** #define CY_SYS_CNT_CTRL_PTR                              ( (reg32*) CYREG_TST_DDFT_CTRL)
 539:Generated_Source\PSoC4/CyLFClk.h **** 
 540:Generated_Source\PSoC4/CyLFClk.h **** /* DFT TST Counter 1 Register*/
 541:Generated_Source\PSoC4/CyLFClk.h **** #define CY_SYS_CNT_REG1_REG                              (*(reg32*) CYREG_TST_TRIM_CNTR1)
 542:Generated_Source\PSoC4/CyLFClk.h **** #define CY_SYS_CNT_REG1_PTR                              ( (reg32*) CYREG_TST_TRIM_CNTR1)
 543:Generated_Source\PSoC4/CyLFClk.h **** 
 544:Generated_Source\PSoC4/CyLFClk.h **** /* DFT TST Counter 2 Register*/
 545:Generated_Source\PSoC4/CyLFClk.h **** #define CY_SYS_CNT_REG2_REG                              (*(reg32*) CYREG_TST_TRIM_CNTR2)
 546:Generated_Source\PSoC4/CyLFClk.h **** #define CY_SYS_CNT_REG2_PTR                              ( (reg32*) CYREG_TST_TRIM_CNTR2)
 547:Generated_Source\PSoC4/CyLFClk.h **** 
 548:Generated_Source\PSoC4/CyLFClk.h **** /* DFT Muxes Configuration Register*/
 549:Generated_Source\PSoC4/CyLFClk.h **** #define CY_SYS_CLK_DFT_REG                               (*(reg32*) CYREG_CLK_DFT_SELECT)
 550:Generated_Source\PSoC4/CyLFClk.h **** #define CY_SYS_CLK_DFT_PTR                               ( (reg32*) CYREG_CLK_DFT_SELECT)
 551:Generated_Source\PSoC4/CyLFClk.h **** 
 552:Generated_Source\PSoC4/CyLFClk.h **** /* ILO Configuration Register*/
 553:Generated_Source\PSoC4/CyLFClk.h **** #define CY_SYS_CLK_ILO_CONFIG_REG                        (*(reg32 *) CYREG_CLK_ILO_CONFIG)
 554:Generated_Source\PSoC4/CyLFClk.h **** #define CY_SYS_CLK_ILO_CONFIG_PTR                        ( (reg32 *) CYREG_CLK_ILO_CONFIG)
 555:Generated_Source\PSoC4/CyLFClk.h **** 
 556:Generated_Source\PSoC4/CyLFClk.h **** /* ILO Trim Register*/
 557:Generated_Source\PSoC4/CyLFClk.h **** #if(CY_IP_SRSSV2 && CY_IP_WCO)
 558:Generated_Source\PSoC4/CyLFClk.h ****     #define CY_SYS_CLK_ILO_TRIM_REG                      (*(reg32 *) CYREG_CLK_ILO_TRIM)
 559:Generated_Source\PSoC4/CyLFClk.h ****     #define CY_SYS_CLK_ILO_TRIM_PTR                      ( (reg32 *) CYREG_CLK_ILO_TRIM)
 560:Generated_Source\PSoC4/CyLFClk.h **** #endif  /* (CY_IP_SRSSV2) && CY_IP_WCO*/
 561:Generated_Source\PSoC4/CyLFClk.h **** 
 562:Generated_Source\PSoC4/CyLFClk.h **** #if (CY_IP_WCO)
ARM GAS  C:\Users\tuanngu\AppData\Local\Temp\cckQ6cTy.s 			page 45


 563:Generated_Source\PSoC4/CyLFClk.h ****     #if (CY_IP_BLESS)
 564:Generated_Source\PSoC4/CyLFClk.h **** 
 565:Generated_Source\PSoC4/CyLFClk.h ****         /* WCO Status Register */
 566:Generated_Source\PSoC4/CyLFClk.h ****         #define CY_SYS_CLK_WCO_STATUS_REG               (*(reg32 *) CYREG_BLE_BLESS_WCO_STATUS)
 567:Generated_Source\PSoC4/CyLFClk.h ****         #define CY_SYS_CLK_WCO_STATUS_PTR               ( (reg32 *) CYREG_BLE_BLESS_WCO_STATUS)
 568:Generated_Source\PSoC4/CyLFClk.h **** 
 569:Generated_Source\PSoC4/CyLFClk.h ****         /* WCO Configuration Register */
 570:Generated_Source\PSoC4/CyLFClk.h ****         #define CY_SYS_CLK_WCO_CONFIG_REG               (*(reg32 *) CYREG_BLE_BLESS_WCO_CONFIG)
 571:Generated_Source\PSoC4/CyLFClk.h ****         #define CY_SYS_CLK_WCO_CONFIG_PTR               ( (reg32 *) CYREG_BLE_BLESS_WCO_CONFIG)
 572:Generated_Source\PSoC4/CyLFClk.h **** 
 573:Generated_Source\PSoC4/CyLFClk.h ****         /* WCO Trim Register */
 574:Generated_Source\PSoC4/CyLFClk.h ****         #define CY_SYS_CLK_WCO_TRIM_REG                 (*(reg32 *) CYREG_BLE_BLESS_WCO_TRIM)
 575:Generated_Source\PSoC4/CyLFClk.h ****         #define CY_SYS_CLK_WCO_TRIM_PTR                 ( (reg32 *) CYREG_BLE_BLESS_WCO_TRIM)
 576:Generated_Source\PSoC4/CyLFClk.h ****     #else
 577:Generated_Source\PSoC4/CyLFClk.h **** 
 578:Generated_Source\PSoC4/CyLFClk.h ****         /* WCO Status Register */
 579:Generated_Source\PSoC4/CyLFClk.h ****         #define CY_SYS_CLK_WCO_STATUS_REG               (*(reg32 *) CYREG_WCO_STATUS)
 580:Generated_Source\PSoC4/CyLFClk.h ****         #define CY_SYS_CLK_WCO_STATUS_PTR               ( (reg32 *) CYREG_WCO_STATUS)
 581:Generated_Source\PSoC4/CyLFClk.h **** 
 582:Generated_Source\PSoC4/CyLFClk.h ****         /* WCO Configuration Register */
 583:Generated_Source\PSoC4/CyLFClk.h ****         #define CY_SYS_CLK_WCO_CONFIG_REG               (*(reg32 *) CYREG_WCO_CONFIG)
 584:Generated_Source\PSoC4/CyLFClk.h ****         #define CY_SYS_CLK_WCO_CONFIG_PTR               ( (reg32 *) CYREG_WCO_CONFIG)
 585:Generated_Source\PSoC4/CyLFClk.h **** 
 586:Generated_Source\PSoC4/CyLFClk.h ****         /* WCO Trim Register */
 587:Generated_Source\PSoC4/CyLFClk.h ****         #define CY_SYS_CLK_WCO_TRIM_REG                 (*(reg32 *) CYREG_WCO_TRIM)
 588:Generated_Source\PSoC4/CyLFClk.h ****         #define CY_SYS_CLK_WCO_TRIM_PTR                 ( (reg32 *) CYREG_WCO_TRIM)
 589:Generated_Source\PSoC4/CyLFClk.h ****     #endif /* (CY_IP_BLESS) */
 590:Generated_Source\PSoC4/CyLFClk.h **** #endif  /* (CY_IP_WCO) */
 591:Generated_Source\PSoC4/CyLFClk.h **** 
 592:Generated_Source\PSoC4/CyLFClk.h **** 
 593:Generated_Source\PSoC4/CyLFClk.h **** /*******************************************************************************
 594:Generated_Source\PSoC4/CyLFClk.h **** * WDT API Registers
 595:Generated_Source\PSoC4/CyLFClk.h **** *******************************************************************************/
 596:Generated_Source\PSoC4/CyLFClk.h **** #if(CY_IP_SRSSV2)
 597:Generated_Source\PSoC4/CyLFClk.h ****     #define CY_SYS_WDT_CTRLOW_REG               (*(reg32 *) CYREG_WDT_CTRLOW)
 598:Generated_Source\PSoC4/CyLFClk.h ****     #define CY_SYS_WDT_CTRLOW_PTR               ( (reg32 *) CYREG_WDT_CTRLOW)
 599:Generated_Source\PSoC4/CyLFClk.h **** 
 600:Generated_Source\PSoC4/CyLFClk.h ****     #define CY_SYS_WDT_CTRHIGH_REG              (*(reg32 *) CYREG_WDT_CTRHIGH)
 601:Generated_Source\PSoC4/CyLFClk.h ****     #define CY_SYS_WDT_CTRHIGH_PTR              ( (reg32 *) CYREG_WDT_CTRHIGH)
 602:Generated_Source\PSoC4/CyLFClk.h **** 
 603:Generated_Source\PSoC4/CyLFClk.h ****     #define CY_SYS_WDT_MATCH_REG                (*(reg32 *) CYREG_WDT_MATCH)
 604:Generated_Source\PSoC4/CyLFClk.h ****     #define CY_SYS_WDT_MATCH_PTR                ( (reg32 *) CYREG_WDT_MATCH)
 605:Generated_Source\PSoC4/CyLFClk.h **** 
 606:Generated_Source\PSoC4/CyLFClk.h ****     #define CY_SYS_WDT_CONFIG_REG               (*(reg32 *) CYREG_WDT_CONFIG)
 607:Generated_Source\PSoC4/CyLFClk.h ****     #define CY_SYS_WDT_CONFIG_PTR               ( (reg32 *) CYREG_WDT_CONFIG)
 608:Generated_Source\PSoC4/CyLFClk.h **** 
 609:Generated_Source\PSoC4/CyLFClk.h ****     #define CY_SYS_WDT_CONTROL_REG              (*(reg32 *) CYREG_WDT_CONTROL)
 610:Generated_Source\PSoC4/CyLFClk.h ****     #define CY_SYS_WDT_CONTROL_PTR              ( (reg32 *) CYREG_WDT_CONTROL)
 611:Generated_Source\PSoC4/CyLFClk.h **** #else
 612:Generated_Source\PSoC4/CyLFClk.h ****     #define CY_SYS_WDT_DISABLE_KEY_REG          (*(reg32 *) CYREG_WDT_DISABLE_KEY)
 613:Generated_Source\PSoC4/CyLFClk.h ****     #define CY_SYS_WDT_DISABLE_KEY_PTR          ( (reg32 *) CYREG_WDT_DISABLE_KEY)
 614:Generated_Source\PSoC4/CyLFClk.h **** 
 615:Generated_Source\PSoC4/CyLFClk.h ****     #define CY_SYS_WDT_MATCH_REG                (*(reg32 *) CYREG_WDT_MATCH)
 616:Generated_Source\PSoC4/CyLFClk.h ****     #define CY_SYS_WDT_MATCH_PTR                ( (reg32 *) CYREG_WDT_MATCH)
 617:Generated_Source\PSoC4/CyLFClk.h **** 
 618:Generated_Source\PSoC4/CyLFClk.h ****     #define CY_SYS_WDT_COUNTER_REG              (*(reg32 *) CYREG_WDT_COUNTER)
 619:Generated_Source\PSoC4/CyLFClk.h ****     #define CY_SYS_WDT_COUNTER_PTR              ( (reg32 *) CYREG_WDT_COUNTER)
ARM GAS  C:\Users\tuanngu\AppData\Local\Temp\cckQ6cTy.s 			page 46


 620:Generated_Source\PSoC4/CyLFClk.h **** 
 621:Generated_Source\PSoC4/CyLFClk.h ****     #define CY_SYS_SRSS_INTR_REG                (*(reg32 *) CYREG_SRSS_INTR)
 622:Generated_Source\PSoC4/CyLFClk.h ****     #define CY_SYS_SRSS_INTR_PTR                ( (reg32 *) CYREG_SRSS_INTR)
 623:Generated_Source\PSoC4/CyLFClk.h **** 
 624:Generated_Source\PSoC4/CyLFClk.h ****     #define CY_SYS_SRSS_INTR_MASK_REG           (*(reg32 *) CYREG_SRSS_INTR_MASK)
 625:Generated_Source\PSoC4/CyLFClk.h ****     #define CY_SYS_SRSS_INTR_MASK_PTR           ( (reg32 *) CYREG_SRSS_INTR_MASK)
 626:Generated_Source\PSoC4/CyLFClk.h **** #endif  /* (CY_IP_SRSSV2) */
 627:Generated_Source\PSoC4/CyLFClk.h **** 
 628:Generated_Source\PSoC4/CyLFClk.h **** #if (CY_IP_SRSSLT && CY_IP_WCO && CY_IP_WCO_WDT_EN)
 629:Generated_Source\PSoC4/CyLFClk.h ****     #define CY_SYS_WCO_WDT_CTRLOW_REG           (*(reg32 *) CYREG_WCO_WDT_CTRLOW)
 630:Generated_Source\PSoC4/CyLFClk.h ****     #define CY_SYS_WCO_WDT_CTRLOW_PTR           ( (reg32 *) CYREG_WCO_WDT_CTRLOW)
 631:Generated_Source\PSoC4/CyLFClk.h **** 
 632:Generated_Source\PSoC4/CyLFClk.h ****     #define CY_SYS_WCO_WDT_CTRHIGH_REG          (*(reg32 *) CYREG_WCO_WDT_CTRHIGH)
 633:Generated_Source\PSoC4/CyLFClk.h ****     #define CY_SYS_WCO_WDT_CTRHIGH_PTR          ( (reg32 *) CYREG_WCO_WDT_CTRHIGH)
 634:Generated_Source\PSoC4/CyLFClk.h **** 
 635:Generated_Source\PSoC4/CyLFClk.h ****     #define CY_SYS_WCO_WDT_MATCH_REG            (*(reg32 *) CYREG_WCO_WDT_MATCH)
 636:Generated_Source\PSoC4/CyLFClk.h ****     #define CY_SYS_WCO_WDT_MATCH_PTR            ( (reg32 *) CYREG_WCO_WDT_MATCH)
 637:Generated_Source\PSoC4/CyLFClk.h **** 
 638:Generated_Source\PSoC4/CyLFClk.h ****     #define CY_SYS_WCO_WDT_CONFIG_REG           (*(reg32 *) CYREG_WCO_WDT_CONFIG)
 639:Generated_Source\PSoC4/CyLFClk.h ****     #define CY_SYS_WCO_WDT_CONFIG_PTR           ( (reg32 *) CYREG_WCO_WDT_CONFIG)
 640:Generated_Source\PSoC4/CyLFClk.h **** 
 641:Generated_Source\PSoC4/CyLFClk.h ****     #define CY_SYS_WCO_WDT_CONTROL_REG          (*(reg32 *) CYREG_WCO_WDT_CONTROL)
 642:Generated_Source\PSoC4/CyLFClk.h ****     #define CY_SYS_WCO_WDT_CONTROL_PTR          ( (reg32 *) CYREG_WCO_WDT_CONTROL)
 643:Generated_Source\PSoC4/CyLFClk.h **** 
 644:Generated_Source\PSoC4/CyLFClk.h ****     #define CY_SYS_WCO_WDT_CLKEN_REG            (*(reg32 *) CYREG_WCO_WDT_CLKEN)
 645:Generated_Source\PSoC4/CyLFClk.h ****     #define CY_SYS_WCO_WDT_CLKEN_PTR            ( (reg32 *) CYREG_WCO_WDT_CLKEN)
 646:Generated_Source\PSoC4/CyLFClk.h **** #endif /* (CY_IP_SRSSLT && CY_IP_WCO && CY_IP_WCO_WDT_EN) */
 647:Generated_Source\PSoC4/CyLFClk.h **** 
 648:Generated_Source\PSoC4/CyLFClk.h **** #if (CY_IP_WCO)
 649:Generated_Source\PSoC4/CyLFClk.h **** 
 650:Generated_Source\PSoC4/CyLFClk.h ****     /*******************************************************************************
 651:Generated_Source\PSoC4/CyLFClk.h ****     * Function Name: CySysClkWcoSetHighPowerMode
 652:Generated_Source\PSoC4/CyLFClk.h ****     ********************************************************************************
 653:Generated_Source\PSoC4/CyLFClk.h ****     *
 654:Generated_Source\PSoC4/CyLFClk.h ****     * Summary:
 655:Generated_Source\PSoC4/CyLFClk.h ****     *  Sets the high power mode for the 32 KHz WCO.
 656:Generated_Source\PSoC4/CyLFClk.h ****     *
 657:Generated_Source\PSoC4/CyLFClk.h ****     *******************************************************************************/
 658:Generated_Source\PSoC4/CyLFClk.h ****     static CY_INLINE void CySysClkWcoSetHighPowerMode(void)
 659:Generated_Source\PSoC4/CyLFClk.h ****     {
 660:Generated_Source\PSoC4/CyLFClk.h ****         /* Switch off low power mode for WCO */
 661:Generated_Source\PSoC4/CyLFClk.h ****         CY_SYS_CLK_WCO_CONFIG_REG &= (uint32) ~CY_SYS_CLK_WCO_CONFIG_LPM_EN;
 867              		.loc 2 661 0
 868 0002 0D4B     		ldr	r3, .L72
 869 0004 1A68     		ldr	r2, [r3]
 870 0006 0121     		movs	r1, #1
 871 0008 8A43     		bics	r2, r1
 872 000a 1A60     		str	r2, [r3]
 662:Generated_Source\PSoC4/CyLFClk.h **** 
 663:Generated_Source\PSoC4/CyLFClk.h ****         /* Switch off auto low power mode in WCO */
 664:Generated_Source\PSoC4/CyLFClk.h ****         CY_SYS_CLK_WCO_CONFIG_REG &= ((uint32)~CY_SYS_CLK_WCO_CONFIG_LPM_AUTO);
 873              		.loc 2 664 0
 874 000c 1A68     		ldr	r2, [r3]
 875 000e 0220     		movs	r0, #2
 876 0010 8243     		bics	r2, r0
 877 0012 1A60     		str	r2, [r3]
 665:Generated_Source\PSoC4/CyLFClk.h **** 
ARM GAS  C:\Users\tuanngu\AppData\Local\Temp\cckQ6cTy.s 			page 47


 666:Generated_Source\PSoC4/CyLFClk.h ****         /* Restore WCO trim register HPM settings */
 667:Generated_Source\PSoC4/CyLFClk.h ****         CY_SYS_CLK_WCO_TRIM_REG = (CY_SYS_CLK_WCO_TRIM_REG & (uint32)(~CY_SYS_CLK_WCO_TRIM_GM_MASK)
 878              		.loc 2 667 0
 879 0014 094A     		ldr	r2, .L72+4
 880 0016 1068     		ldr	r0, [r2]
 881 0018 3024     		movs	r4, #48
 882 001a A043     		bics	r0, r4
 668:Generated_Source\PSoC4/CyLFClk.h ****                     | (uint32)(CY_SYS_CLK_WCO_TRIM_GM_HPM << CY_SYS_CLK_WCO_TRIM_GM_SHIFT);
 883              		.loc 2 668 0
 884 001c 203C     		subs	r4, r4, #32
 885 001e 2043     		orrs	r0, r4
 667:Generated_Source\PSoC4/CyLFClk.h ****                     | (uint32)(CY_SYS_CLK_WCO_TRIM_GM_HPM << CY_SYS_CLK_WCO_TRIM_GM_SHIFT);
 886              		.loc 2 667 0
 887 0020 1060     		str	r0, [r2]
 669:Generated_Source\PSoC4/CyLFClk.h ****         CY_SYS_CLK_WCO_TRIM_REG = (CY_SYS_CLK_WCO_TRIM_REG & (uint32)(~CY_SYS_CLK_WCO_TRIM_XGM_MASK
 888              		.loc 2 669 0
 889 0022 1068     		ldr	r0, [r2]
 890 0024 093C     		subs	r4, r4, #9
 891 0026 A043     		bics	r0, r4
 670:Generated_Source\PSoC4/CyLFClk.h ****                     | (uint32)(CY_SYS_CLK_WCO_TRIM_XGM_2620NA << CY_SYS_CLK_WCO_TRIM_XGM_SHIFT);
 892              		.loc 2 670 0
 893 0028 0143     		orrs	r1, r0
 669:Generated_Source\PSoC4/CyLFClk.h ****         CY_SYS_CLK_WCO_TRIM_REG = (CY_SYS_CLK_WCO_TRIM_REG & (uint32)(~CY_SYS_CLK_WCO_TRIM_XGM_MASK
 894              		.loc 2 669 0
 895 002a 1160     		str	r1, [r2]
 896              	.LBE9:
 897              	.LBE8:
 774:Generated_Source\PSoC4/CyLFClk.c ****     }
 898              		.loc 1 774 0
 899 002c 1A68     		ldr	r2, [r3]
 900 002e 8021     		movs	r1, #128
 901 0030 0906     		lsls	r1, r1, #24
 902 0032 0A43     		orrs	r2, r1
 903 0034 1A60     		str	r2, [r3]
 775:Generated_Source\PSoC4/CyLFClk.c **** 
 904              		.loc 1 775 0
 905              		@ sp needed
 906 0036 10BD     		pop	{r4, pc}
 907              	.L73:
 908              		.align	2
 909              	.L72:
 910 0038 00F02E40 		.word	1076817920
 911 003c 00FF2E40 		.word	1076821760
 912              		.cfi_endproc
 913              	.LFE13:
 914              		.size	CySysClkWcoStart, .-CySysClkWcoStart
 915              		.section	.text.CySysClkWcoEnabled,"ax",%progbits
 916              		.align	2
 917              		.global	CySysClkWcoEnabled
 918              		.code	16
 919              		.thumb_func
 920              		.type	CySysClkWcoEnabled, %function
 921              	CySysClkWcoEnabled:
 922              	.LFB15:
 825:Generated_Source\PSoC4/CyLFClk.c ****         return ((0u != (CY_SYS_CLK_WCO_CONFIG_REG & (uint32)(CY_SYS_CLK_WCO_CONFIG_LPM_ENABLE))) ?
 923              		.loc 1 825 0
 924              		.cfi_startproc
ARM GAS  C:\Users\tuanngu\AppData\Local\Temp\cckQ6cTy.s 			page 48


 925              		@ args = 0, pretend = 0, frame = 0
 926              		@ frame_needed = 0, uses_anonymous_args = 0
 927              		@ link register save eliminated.
 826:Generated_Source\PSoC4/CyLFClk.c ****                 (uint32) 1u :
 928              		.loc 1 826 0
 929 0000 034B     		ldr	r3, .L77
 930 0002 1B68     		ldr	r3, [r3]
 827:Generated_Source\PSoC4/CyLFClk.c ****                 (uint32) 0u);
 931              		.loc 1 827 0
 932 0004 002B     		cmp	r3, #0
 933 0006 01DA     		bge	.L76
 934 0008 0120     		movs	r0, #1
 935 000a 00E0     		b	.L75
 936              	.L76:
 937 000c 0020     		movs	r0, #0
 938              	.L75:
 829:Generated_Source\PSoC4/CyLFClk.c **** 
 939              		.loc 1 829 0
 940              		@ sp needed
 941 000e 7047     		bx	lr
 942              	.L78:
 943              		.align	2
 944              	.L77:
 945 0010 00F02E40 		.word	1076817920
 946              		.cfi_endproc
 947              	.LFE15:
 948              		.size	CySysClkWcoEnabled, .-CySysClkWcoEnabled
 949              		.section	.text.CySysClkWcoSetPowerMode,"ax",%progbits
 950              		.align	2
 951              		.global	CySysClkWcoSetPowerMode
 952              		.code	16
 953              		.thumb_func
 954              		.type	CySysClkWcoSetPowerMode, %function
 955              	CySysClkWcoSetPowerMode:
 956              	.LFB16:
 852:Generated_Source\PSoC4/CyLFClk.c ****         uint32 powerModeStatus;
 957              		.loc 1 852 0
 958              		.cfi_startproc
 959              		@ args = 0, pretend = 0, frame = 0
 960              		@ frame_needed = 0, uses_anonymous_args = 0
 961              	.LVL90:
 962 0000 70B5     		push	{r4, r5, r6, lr}
 963              		.cfi_def_cfa_offset 16
 964              		.cfi_offset 4, -16
 965              		.cfi_offset 5, -12
 966              		.cfi_offset 6, -8
 967              		.cfi_offset 14, -4
 855:Generated_Source\PSoC4/CyLFClk.c **** 
 968              		.loc 1 855 0
 969 0002 1D4B     		ldr	r3, .L85
 970 0004 1B68     		ldr	r3, [r3]
 971 0006 0124     		movs	r4, #1
 972 0008 1C40     		ands	r4, r3
 973              	.LVL91:
 857:Generated_Source\PSoC4/CyLFClk.c ****         {
 974              		.loc 1 857 0
 975 000a 0028     		cmp	r0, #0
ARM GAS  C:\Users\tuanngu\AppData\Local\Temp\cckQ6cTy.s 			page 49


 976 000c 02D0     		beq	.L81
 977 000e 0128     		cmp	r0, #1
 978 0010 16D0     		beq	.L82
 979 0012 2BE0     		b	.L84
 980              	.L81:
 981              	.LBB10:
 982              	.LBB11:
 661:Generated_Source\PSoC4/CyLFClk.h **** 
 983              		.loc 2 661 0
 984 0014 184B     		ldr	r3, .L85
 985 0016 1968     		ldr	r1, [r3]
 986 0018 0122     		movs	r2, #1
 987 001a 9143     		bics	r1, r2
 988 001c 1960     		str	r1, [r3]
 664:Generated_Source\PSoC4/CyLFClk.h **** 
 989              		.loc 2 664 0
 990 001e 1968     		ldr	r1, [r3]
 991 0020 0220     		movs	r0, #2
 992              	.LVL92:
 993 0022 8143     		bics	r1, r0
 994 0024 1960     		str	r1, [r3]
 667:Generated_Source\PSoC4/CyLFClk.h ****                     | (uint32)(CY_SYS_CLK_WCO_TRIM_GM_HPM << CY_SYS_CLK_WCO_TRIM_GM_SHIFT);
 995              		.loc 2 667 0
 996 0026 154B     		ldr	r3, .L85+4
 997 0028 1968     		ldr	r1, [r3]
 998 002a 2E30     		adds	r0, r0, #46
 999 002c 8143     		bics	r1, r0
 668:Generated_Source\PSoC4/CyLFClk.h ****         CY_SYS_CLK_WCO_TRIM_REG = (CY_SYS_CLK_WCO_TRIM_REG & (uint32)(~CY_SYS_CLK_WCO_TRIM_XGM_MASK
 1000              		.loc 2 668 0
 1001 002e 2038     		subs	r0, r0, #32
 1002 0030 0143     		orrs	r1, r0
 667:Generated_Source\PSoC4/CyLFClk.h ****                     | (uint32)(CY_SYS_CLK_WCO_TRIM_GM_HPM << CY_SYS_CLK_WCO_TRIM_GM_SHIFT);
 1003              		.loc 2 667 0
 1004 0032 1960     		str	r1, [r3]
 669:Generated_Source\PSoC4/CyLFClk.h ****                     | (uint32)(CY_SYS_CLK_WCO_TRIM_XGM_2620NA << CY_SYS_CLK_WCO_TRIM_XGM_SHIFT);
 1005              		.loc 2 669 0
 1006 0034 1968     		ldr	r1, [r3]
 1007 0036 0938     		subs	r0, r0, #9
 1008 0038 8143     		bics	r1, r0
 1009              		.loc 2 670 0
 1010 003a 0A43     		orrs	r2, r1
 669:Generated_Source\PSoC4/CyLFClk.h ****                     | (uint32)(CY_SYS_CLK_WCO_TRIM_XGM_2620NA << CY_SYS_CLK_WCO_TRIM_XGM_SHIFT);
 1011              		.loc 2 669 0
 1012 003c 1A60     		str	r2, [r3]
 1013 003e 18E0     		b	.L83
 1014              	.LVL93:
 1015              	.L82:
 1016              	.LBE11:
 1017              	.LBE10:
 1018              	.LBB12:
 1019              	.LBB13:
 671:Generated_Source\PSoC4/CyLFClk.h ****     }
 672:Generated_Source\PSoC4/CyLFClk.h **** 
 673:Generated_Source\PSoC4/CyLFClk.h ****     #if(CY_IP_BLESS)
 674:Generated_Source\PSoC4/CyLFClk.h ****         /*******************************************************************************
 675:Generated_Source\PSoC4/CyLFClk.h ****         * Function Name: CySysClkWcoSetLowPowerMode
 676:Generated_Source\PSoC4/CyLFClk.h ****         ********************************************************************************
ARM GAS  C:\Users\tuanngu\AppData\Local\Temp\cckQ6cTy.s 			page 50


 677:Generated_Source\PSoC4/CyLFClk.h ****         *
 678:Generated_Source\PSoC4/CyLFClk.h ****         * Summary:
 679:Generated_Source\PSoC4/CyLFClk.h ****         *  Sets the low power mode for the 32 KHz WCO.
 680:Generated_Source\PSoC4/CyLFClk.h ****         *
 681:Generated_Source\PSoC4/CyLFClk.h ****         *  Note LPM available only for PSoC 4100 BLE / PSoC4 4200 BLE
 682:Generated_Source\PSoC4/CyLFClk.h ****         *******************************************************************************/
 683:Generated_Source\PSoC4/CyLFClk.h ****         static CY_INLINE void CySysClkWcoSetLowPowerMode(void)
 684:Generated_Source\PSoC4/CyLFClk.h ****         {
 685:Generated_Source\PSoC4/CyLFClk.h ****             /* Switch off auto low power mode in WCO */
 686:Generated_Source\PSoC4/CyLFClk.h ****             CY_SYS_CLK_WCO_CONFIG_REG &= ((uint32)~CY_SYS_CLK_WCO_CONFIG_LPM_AUTO);
 1020              		.loc 2 686 0
 1021 0040 0D4B     		ldr	r3, .L85
 1022 0042 1A68     		ldr	r2, [r3]
 1023 0044 0221     		movs	r1, #2
 1024 0046 8A43     		bics	r2, r1
 1025 0048 1A60     		str	r2, [r3]
 687:Generated_Source\PSoC4/CyLFClk.h **** 
 688:Generated_Source\PSoC4/CyLFClk.h ****             /* Change WCO trim register settings to LPM */
 689:Generated_Source\PSoC4/CyLFClk.h ****             CY_SYS_CLK_WCO_TRIM_REG = (CY_SYS_CLK_WCO_TRIM_REG & (uint32)(~CY_SYS_CLK_WCO_TRIM_XGM_
 1026              		.loc 2 689 0
 1027 004a 0C4A     		ldr	r2, .L85+4
 1028 004c 1068     		ldr	r0, [r2]
 1029              	.LVL94:
 1030 004e 0725     		movs	r5, #7
 1031 0050 A843     		bics	r0, r5
 690:Generated_Source\PSoC4/CyLFClk.h ****                         | (uint32)(CY_SYS_CLK_WCO_TRIM_XGM_2250NA << CY_SYS_CLK_WCO_TRIM_XGM_SHIFT)
 1032              		.loc 2 690 0
 1033 0052 0143     		orrs	r1, r0
 689:Generated_Source\PSoC4/CyLFClk.h ****                         | (uint32)(CY_SYS_CLK_WCO_TRIM_XGM_2250NA << CY_SYS_CLK_WCO_TRIM_XGM_SHIFT)
 1034              		.loc 2 689 0
 1035 0054 1160     		str	r1, [r2]
 691:Generated_Source\PSoC4/CyLFClk.h ****             CY_SYS_CLK_WCO_TRIM_REG = (CY_SYS_CLK_WCO_TRIM_REG & (uint32)(~CY_SYS_CLK_WCO_TRIM_GM_M
 1036              		.loc 2 691 0
 1037 0056 1168     		ldr	r1, [r2]
 1038 0058 3020     		movs	r0, #48
 1039 005a 8143     		bics	r1, r0
 692:Generated_Source\PSoC4/CyLFClk.h ****                         | (uint32)(CY_SYS_CLK_WCO_TRIM_GM_LPM << CY_SYS_CLK_WCO_TRIM_GM_SHIFT);
 1040              		.loc 2 692 0
 1041 005c 1038     		subs	r0, r0, #16
 1042 005e 0143     		orrs	r1, r0
 691:Generated_Source\PSoC4/CyLFClk.h ****             CY_SYS_CLK_WCO_TRIM_REG = (CY_SYS_CLK_WCO_TRIM_REG & (uint32)(~CY_SYS_CLK_WCO_TRIM_GM_M
 1043              		.loc 2 691 0
 1044 0060 1160     		str	r1, [r2]
 693:Generated_Source\PSoC4/CyLFClk.h **** 
 694:Generated_Source\PSoC4/CyLFClk.h ****             /* Switch on low power mode for WCO */
 695:Generated_Source\PSoC4/CyLFClk.h ****             CY_SYS_CLK_WCO_CONFIG_REG |= CY_SYS_CLK_WCO_CONFIG_LPM_EN;
 1045              		.loc 2 695 0
 1046 0062 1968     		ldr	r1, [r3]
 1047 0064 0122     		movs	r2, #1
 1048 0066 0A43     		orrs	r2, r1
 1049 0068 1A60     		str	r2, [r3]
 1050 006a 02E0     		b	.L83
 1051              	.LVL95:
 1052              	.L84:
 1053              	.LBE13:
 1054              	.LBE12:
 870:Generated_Source\PSoC4/CyLFClk.c ****             break;
ARM GAS  C:\Users\tuanngu\AppData\Local\Temp\cckQ6cTy.s 			page 51


 1055              		.loc 1 870 0 discriminator 1
 1056 006c 0020     		movs	r0, #0
 1057              	.LVL96:
 1058 006e FFF7FEFF 		bl	CyHalt
 1059              	.LVL97:
 1060              	.L83:
 875:Generated_Source\PSoC4/CyLFClk.c **** 
 1061              		.loc 1 875 0
 1062 0072 2000     		movs	r0, r4
 1063              		@ sp needed
 1064              	.LVL98:
 1065 0074 70BD     		pop	{r4, r5, r6, pc}
 1066              	.L86:
 1067 0076 C046     		.align	2
 1068              	.L85:
 1069 0078 00F02E40 		.word	1076817920
 1070 007c 00FF2E40 		.word	1076821760
 1071              		.cfi_endproc
 1072              	.LFE16:
 1073              		.size	CySysClkWcoSetPowerMode, .-CySysClkWcoSetPowerMode
 1074              		.section	.text.CySysClkWcoClockOutSelect,"ax",%progbits
 1075              		.align	2
 1076              		.global	CySysClkWcoClockOutSelect
 1077              		.code	16
 1078              		.thumb_func
 1079              		.type	CySysClkWcoClockOutSelect, %function
 1080              	CySysClkWcoClockOutSelect:
 1081              	.LFB17:
 919:Generated_Source\PSoC4/CyLFClk.c ****         if (0u != CySysClkWcoEnabled())
 1082              		.loc 1 919 0
 1083              		.cfi_startproc
 1084              		@ args = 0, pretend = 0, frame = 0
 1085              		@ frame_needed = 0, uses_anonymous_args = 0
 1086              	.LVL99:
 1087 0000 10B5     		push	{r4, lr}
 1088              		.cfi_def_cfa_offset 8
 1089              		.cfi_offset 4, -8
 1090              		.cfi_offset 14, -4
 1091 0002 0400     		movs	r4, r0
 920:Generated_Source\PSoC4/CyLFClk.c ****         {
 1092              		.loc 1 920 0
 1093 0004 FFF7FEFF 		bl	CySysClkWcoEnabled
 1094              	.LVL100:
 1095 0008 0028     		cmp	r0, #0
 1096 000a 0CD0     		beq	.L87
 922:Generated_Source\PSoC4/CyLFClk.c ****             {
 1097              		.loc 1 922 0
 1098 000c 012C     		cmp	r4, #1
 1099 000e 07D8     		bhi	.L89
 924:Generated_Source\PSoC4/CyLFClk.c ****                                         (clockSel << CY_SYS_CLK_WCO_SELECT_PIN_OFFSET);
 1100              		.loc 1 924 0
 1101 0010 054A     		ldr	r2, .L90
 1102 0012 1368     		ldr	r3, [r2]
 1103 0014 0421     		movs	r1, #4
 1104 0016 8B43     		bics	r3, r1
 925:Generated_Source\PSoC4/CyLFClk.c ****             }
 1105              		.loc 1 925 0
ARM GAS  C:\Users\tuanngu\AppData\Local\Temp\cckQ6cTy.s 			page 52


 1106 0018 A400     		lsls	r4, r4, #2
 1107              	.LVL101:
 924:Generated_Source\PSoC4/CyLFClk.c ****                                         (clockSel << CY_SYS_CLK_WCO_SELECT_PIN_OFFSET);
 1108              		.loc 1 924 0
 1109 001a 1C43     		orrs	r4, r3
 1110 001c 1460     		str	r4, [r2]
 1111 001e 02E0     		b	.L87
 1112              	.LVL102:
 1113              	.L89:
 929:Generated_Source\PSoC4/CyLFClk.c ****             }
 1114              		.loc 1 929 0 discriminator 1
 1115 0020 0020     		movs	r0, #0
 1116 0022 FFF7FEFF 		bl	CyHalt
 1117              	.LVL103:
 1118              	.L87:
 932:Generated_Source\PSoC4/CyLFClk.c **** #endif  /* (CY_IP_WCO) */
 1119              		.loc 1 932 0
 1120              		@ sp needed
 1121 0026 10BD     		pop	{r4, pc}
 1122              	.L91:
 1123              		.align	2
 1124              	.L90:
 1125 0028 00F02E40 		.word	1076817920
 1126              		.cfi_endproc
 1127              	.LFE17:
 1128              		.size	CySysClkWcoClockOutSelect, .-CySysClkWcoClockOutSelect
 1129              		.section	.text.CySysWdtLock,"ax",%progbits
 1130              		.align	2
 1131              		.global	CySysWdtLock
 1132              		.code	16
 1133              		.thumb_func
 1134              		.type	CySysWdtLock, %function
 1135              	CySysWdtLock:
 1136              	.LFB18:
 949:Generated_Source\PSoC4/CyLFClk.c ****         uint8 interruptState;
 1137              		.loc 1 949 0
 1138              		.cfi_startproc
 1139              		@ args = 0, pretend = 0, frame = 0
 1140              		@ frame_needed = 0, uses_anonymous_args = 0
 1141 0000 10B5     		push	{r4, lr}
 1142              		.cfi_def_cfa_offset 8
 1143              		.cfi_offset 4, -8
 1144              		.cfi_offset 14, -4
 951:Generated_Source\PSoC4/CyLFClk.c **** 
 1145              		.loc 1 951 0
 1146 0002 FFF7FEFF 		bl	CyEnterCriticalSection
 1147              	.LVL104:
 953:Generated_Source\PSoC4/CyLFClk.c ****                  CY_SYS_WDT_CLK_LOCK_BITS_MASK;
 1148              		.loc 1 953 0
 1149 0006 044A     		ldr	r2, .L93
 1150 0008 1368     		ldr	r3, [r2]
 1151 000a C021     		movs	r1, #192
 1152 000c 0902     		lsls	r1, r1, #8
 1153 000e 0B43     		orrs	r3, r1
 1154 0010 1360     		str	r3, [r2]
 956:Generated_Source\PSoC4/CyLFClk.c ****     }
 1155              		.loc 1 956 0
ARM GAS  C:\Users\tuanngu\AppData\Local\Temp\cckQ6cTy.s 			page 53


 1156 0012 FFF7FEFF 		bl	CyExitCriticalSection
 1157              	.LVL105:
 957:Generated_Source\PSoC4/CyLFClk.c **** 
 1158              		.loc 1 957 0
 1159              		@ sp needed
 1160 0016 10BD     		pop	{r4, pc}
 1161              	.L94:
 1162              		.align	2
 1163              	.L93:
 1164 0018 00010B40 		.word	1074462976
 1165              		.cfi_endproc
 1166              	.LFE18:
 1167              		.size	CySysWdtLock, .-CySysWdtLock
 1168              		.section	.text.CySysWdtUnlock,"ax",%progbits
