ARM GAS  C:\Users\tuanngu\AppData\Local\Temp\ccwRuSog.s 			page 1


   1              		.syntax unified
   2              		.cpu cortex-m0
   3              		.fpu softvfp
   4              		.eabi_attribute 20, 1
   5              		.eabi_attribute 21, 1
   6              		.eabi_attribute 23, 3
   7              		.eabi_attribute 24, 1
   8              		.eabi_attribute 25, 1
   9              		.eabi_attribute 26, 1
  10              		.eabi_attribute 30, 6
  11              		.eabi_attribute 34, 0
  12              		.eabi_attribute 18, 4
  13              		.thumb
  14              		.syntax unified
  15              		.file	"BLE_gatt.c"
  16              		.text
  17              	.Ltext0:
  18              		.cfi_sections	.debug_frame
  19              		.comm	cyBle_state,1,1
  20              		.global	cyBle_flashStorage
  21              		.section	.cy_checksum_exclude,"a",%progbits
  22              		.align	8
  23              		.type	cyBle_flashStorage, %object
  24              		.size	cyBle_flashStorage, 685
  25              	cyBle_flashStorage:
  26 0000 00       		.byte	0
  27 0001 00       		.byte	0
  28 0002 00       		.byte	0
  29 0003 00       		.byte	0
  30 0004 00       		.byte	0
  31 0005 00       		.byte	0
  32 0006 00       		.byte	0
  33 0007 00       		.byte	0
  34 0008 00       		.byte	0
  35 0009 00       		.byte	0
  36 000a 00       		.byte	0
  37 000b 00       		.byte	0
  38 000c 00       		.byte	0
  39 000d 00       		.byte	0
  40 000e 00       		.byte	0
  41 000f 00       		.byte	0
  42 0010 00       		.byte	0
  43 0011 00       		.byte	0
  44 0012 00       		.byte	0
  45 0013 00       		.byte	0
  46 0014 00       		.byte	0
  47 0015 00       		.byte	0
  48 0016 00       		.byte	0
  49 0017 00       		.byte	0
  50 0018 00       		.byte	0
  51 0019 00       		.byte	0
  52 001a 00       		.byte	0
  53 001b 00       		.byte	0
  54 001c 00       		.byte	0
  55 001d 00       		.byte	0
  56 001e 00       		.byte	0
  57 001f 00       		.byte	0
ARM GAS  C:\Users\tuanngu\AppData\Local\Temp\ccwRuSog.s 			page 2


  58 0020 00       		.byte	0
  59 0021 00       		.byte	0
  60 0022 00       		.byte	0
  61 0023 00       		.byte	0
  62 0024 00       		.byte	0
  63 0025 00       		.byte	0
  64 0026 00       		.byte	0
  65 0027 00       		.byte	0
  66 0028 00       		.byte	0
  67 0029 00       		.byte	0
  68 002a 00       		.byte	0
  69 002b 00       		.byte	0
  70 002c 00       		.byte	0
  71 002d 00       		.byte	0
  72 002e 00       		.byte	0
  73 002f 00       		.byte	0
  74 0030 00       		.byte	0
  75 0031 00       		.byte	0
  76 0032 00       		.byte	0
  77 0033 00       		.byte	0
  78 0034 00       		.byte	0
  79 0035 00       		.byte	0
  80 0036 00       		.byte	0
  81 0037 00       		.byte	0
  82 0038 00       		.byte	0
  83 0039 00       		.byte	0
  84 003a 00       		.byte	0
  85 003b 00       		.byte	0
  86 003c 00       		.byte	0
  87 003d 00       		.byte	0
  88 003e 00       		.byte	0
  89 003f 00       		.byte	0
  90 0040 00       		.byte	0
  91 0041 00       		.byte	0
  92 0042 00       		.byte	0
  93 0043 00       		.byte	0
  94 0044 00       		.byte	0
  95 0045 00       		.byte	0
  96 0046 00       		.byte	0
  97 0047 00       		.byte	0
  98 0048 00       		.byte	0
  99 0049 00       		.byte	0
 100 004a 00       		.byte	0
 101 004b 00       		.byte	0
 102 004c 00       		.byte	0
 103 004d 00       		.byte	0
 104 004e 00       		.byte	0
 105 004f 00       		.byte	0
 106 0050 00       		.byte	0
 107 0051 00       		.byte	0
 108 0052 00       		.byte	0
 109 0053 00       		.byte	0
 110 0054 00       		.byte	0
 111 0055 00       		.byte	0
 112 0056 00       		.byte	0
 113 0057 00       		.byte	0
 114 0058 00       		.byte	0
ARM GAS  C:\Users\tuanngu\AppData\Local\Temp\ccwRuSog.s 			page 3


 115 0059 00       		.byte	0
 116 005a 00       		.byte	0
 117 005b 00       		.byte	0
 118 005c 00       		.byte	0
 119 005d 00       		.byte	0
 120 005e 00       		.byte	0
 121 005f 00       		.byte	0
 122 0060 00       		.byte	0
 123 0061 00       		.byte	0
 124 0062 00       		.byte	0
 125 0063 00       		.byte	0
 126 0064 00       		.byte	0
 127 0065 00       		.byte	0
 128 0066 00       		.byte	0
 129 0067 00       		.byte	0
 130 0068 00       		.byte	0
 131 0069 00       		.byte	0
 132 006a 00       		.byte	0
 133 006b 00       		.byte	0
 134 006c 00       		.byte	0
 135 006d 00       		.byte	0
 136 006e 00       		.byte	0
 137 006f 00       		.byte	0
 138 0070 00       		.byte	0
 139 0071 00       		.byte	0
 140 0072 00       		.byte	0
 141 0073 00       		.byte	0
 142 0074 00       		.byte	0
 143 0075 00       		.byte	0
 144 0076 00       		.byte	0
 145 0077 00       		.byte	0
 146 0078 00       		.byte	0
 147 0079 00       		.byte	0
 148 007a 00       		.byte	0
 149 007b 00       		.byte	0
 150 007c 00       		.byte	0
 151 007d 00       		.byte	0
 152 007e 00       		.byte	0
 153 007f 00       		.byte	0
 154 0080 00       		.byte	0
 155 0081 00       		.byte	0
 156 0082 00       		.byte	0
 157 0083 00       		.byte	0
 158 0084 00       		.byte	0
 159 0085 00       		.byte	0
 160 0086 00       		.byte	0
 161 0087 00       		.byte	0
 162 0088 00       		.byte	0
 163 0089 00       		.byte	0
 164 008a 00       		.byte	0
 165 008b 00       		.byte	0
 166 008c 00       		.byte	0
 167 008d 00       		.byte	0
 168 008e 00       		.byte	0
 169 008f 00       		.byte	0
 170 0090 00       		.byte	0
 171 0091 00       		.byte	0
ARM GAS  C:\Users\tuanngu\AppData\Local\Temp\ccwRuSog.s 			page 4


 172 0092 00       		.byte	0
 173 0093 00       		.byte	0
 174 0094 00       		.byte	0
 175 0095 00       		.byte	0
 176 0096 00       		.byte	0
 177 0097 00       		.byte	0
 178 0098 00       		.byte	0
 179 0099 00       		.byte	0
 180 009a 00       		.byte	0
 181 009b 00       		.byte	0
 182 009c 00       		.byte	0
 183 009d 00       		.byte	0
 184 009e 00       		.byte	0
 185 009f 00       		.byte	0
 186 00a0 00       		.byte	0
 187 00a1 00       		.byte	0
 188 00a2 00       		.byte	0
 189 00a3 00       		.byte	0
 190 00a4 00       		.byte	0
 191 00a5 00       		.byte	0
 192 00a6 00       		.byte	0
 193 00a7 00       		.byte	0
 194 00a8 00       		.byte	0
 195 00a9 00       		.byte	0
 196 00aa 00       		.byte	0
 197 00ab 00       		.byte	0
 198 00ac 00       		.byte	0
 199 00ad 00       		.byte	0
 200 00ae 00       		.byte	0
 201 00af 00       		.byte	0
 202 00b0 00       		.byte	0
 203 00b1 00       		.byte	0
 204 00b2 00       		.byte	0
 205 00b3 00       		.byte	0
 206 00b4 00       		.byte	0
 207 00b5 00       		.byte	0
 208 00b6 00       		.byte	0
 209 00b7 00       		.byte	0
 210 00b8 00       		.byte	0
 211 00b9 00       		.byte	0
 212 00ba 00       		.byte	0
 213 00bb 00       		.byte	0
 214 00bc 00       		.byte	0
 215 00bd 00       		.byte	0
 216 00be 00       		.byte	0
 217 00bf 00       		.byte	0
 218 00c0 00       		.byte	0
 219 00c1 00       		.byte	0
 220 00c2 00       		.byte	0
 221 00c3 00       		.byte	0
 222 00c4 00       		.byte	0
 223 00c5 00       		.byte	0
 224 00c6 00       		.byte	0
 225 00c7 00       		.byte	0
 226 00c8 00       		.byte	0
 227 00c9 00       		.byte	0
 228 00ca 00       		.byte	0
ARM GAS  C:\Users\tuanngu\AppData\Local\Temp\ccwRuSog.s 			page 5


 229 00cb 00       		.byte	0
 230 00cc 00       		.byte	0
 231 00cd 00       		.byte	0
 232 00ce 00       		.byte	0
 233 00cf 00       		.byte	0
 234 00d0 00       		.byte	0
 235 00d1 00       		.byte	0
 236 00d2 00       		.byte	0
 237 00d3 00       		.byte	0
 238 00d4 00       		.byte	0
 239 00d5 00       		.byte	0
 240 00d6 00       		.byte	0
 241 00d7 00       		.byte	0
 242 00d8 00       		.byte	0
 243 00d9 00       		.byte	0
 244 00da 00       		.byte	0
 245 00db 00       		.byte	0
 246 00dc 00       		.byte	0
 247 00dd 00       		.byte	0
 248 00de 00       		.byte	0
 249 00df 00       		.byte	0
 250 00e0 00       		.byte	0
 251 00e1 00       		.byte	0
 252 00e2 00       		.byte	0
 253 00e3 00       		.byte	0
 254 00e4 00       		.byte	0
 255 00e5 00       		.byte	0
 256 00e6 00       		.byte	0
 257 00e7 00       		.byte	0
 258 00e8 00       		.byte	0
 259 00e9 00       		.byte	0
 260 00ea 00       		.byte	0
 261 00eb 00       		.byte	0
 262 00ec 00       		.byte	0
 263 00ed 00       		.byte	0
 264 00ee 00       		.byte	0
 265 00ef 00       		.byte	0
 266 00f0 00       		.byte	0
 267 00f1 00       		.byte	0
 268 00f2 00       		.byte	0
 269 00f3 00       		.byte	0
 270 00f4 00       		.byte	0
 271 00f5 00       		.byte	0
 272 00f6 00       		.byte	0
 273 00f7 00       		.byte	0
 274 00f8 00       		.byte	0
 275 00f9 00       		.byte	0
 276 00fa 00       		.byte	0
 277 00fb 00       		.byte	0
 278 00fc 00       		.byte	0
 279 00fd 00       		.byte	0
 280 00fe 00       		.byte	0
 281 00ff 00       		.byte	0
 282 0100 00       		.byte	0
 283 0101 00       		.byte	0
 284 0102 00       		.byte	0
 285 0103 00       		.byte	0
ARM GAS  C:\Users\tuanngu\AppData\Local\Temp\ccwRuSog.s 			page 6


 286 0104 00       		.byte	0
 287 0105 00       		.byte	0
 288 0106 00       		.byte	0
 289 0107 00       		.byte	0
 290 0108 00       		.byte	0
 291 0109 00       		.byte	0
 292 010a 00       		.byte	0
 293 010b 00       		.byte	0
 294 010c 00       		.byte	0
 295 010d 00       		.byte	0
 296 010e 00       		.byte	0
 297 010f 00       		.byte	0
 298 0110 00       		.byte	0
 299 0111 00       		.byte	0
 300 0112 00       		.byte	0
 301 0113 00       		.byte	0
 302 0114 00       		.byte	0
 303 0115 00       		.byte	0
 304 0116 00       		.byte	0
 305 0117 00       		.byte	0
 306 0118 00       		.byte	0
 307 0119 00       		.byte	0
 308 011a 00       		.byte	0
 309 011b 00       		.byte	0
 310 011c 00       		.byte	0
 311 011d 00       		.byte	0
 312 011e 00       		.byte	0
 313 011f 00       		.byte	0
 314 0120 00       		.byte	0
 315 0121 00       		.byte	0
 316 0122 00       		.byte	0
 317 0123 00       		.byte	0
 318 0124 00       		.byte	0
 319 0125 00       		.byte	0
 320 0126 00       		.byte	0
 321 0127 00       		.byte	0
 322 0128 00       		.byte	0
 323 0129 00       		.byte	0
 324 012a 00       		.byte	0
 325 012b 00       		.byte	0
 326 012c 00       		.byte	0
 327 012d 00       		.byte	0
 328 012e 00       		.byte	0
 329 012f 00       		.byte	0
 330 0130 00       		.byte	0
 331 0131 00       		.byte	0
 332 0132 00       		.byte	0
 333 0133 00       		.byte	0
 334 0134 00       		.byte	0
 335 0135 00       		.byte	0
 336 0136 00       		.byte	0
 337 0137 00       		.byte	0
 338 0138 00       		.byte	0
 339 0139 00       		.byte	0
 340 013a 00       		.byte	0
 341 013b 00       		.byte	0
 342 013c 00       		.byte	0
ARM GAS  C:\Users\tuanngu\AppData\Local\Temp\ccwRuSog.s 			page 7


 343 013d 00       		.byte	0
 344 013e 00       		.byte	0
 345 013f 00       		.byte	0
 346 0140 00       		.byte	0
 347 0141 00       		.byte	0
 348 0142 00       		.byte	0
 349 0143 00       		.byte	0
 350 0144 00       		.byte	0
 351 0145 00       		.byte	0
 352 0146 00       		.byte	0
 353 0147 00       		.byte	0
 354 0148 00       		.byte	0
 355 0149 00       		.byte	0
 356 014a 00       		.byte	0
 357 014b 00       		.byte	0
 358 014c 00       		.byte	0
 359 014d 00       		.byte	0
 360 014e 00       		.byte	0
 361 014f 00       		.byte	0
 362 0150 00       		.byte	0
 363 0151 00       		.byte	0
 364 0152 00       		.byte	0
 365 0153 00       		.byte	0
 366 0154 00       		.byte	0
 367 0155 00       		.byte	0
 368 0156 00       		.byte	0
 369 0157 00       		.byte	0
 370 0158 00       		.byte	0
 371 0159 00       		.byte	0
 372 015a 00       		.byte	0
 373 015b 00       		.byte	0
 374 015c 00       		.byte	0
 375 015d 00       		.byte	0
 376 015e 00       		.byte	0
 377 015f 00       		.byte	0
 378 0160 00       		.byte	0
 379 0161 00       		.byte	0
 380 0162 00       		.byte	0
 381 0163 00       		.byte	0
 382 0164 00       		.byte	0
 383 0165 00       		.byte	0
 384 0166 00       		.byte	0
 385 0167 00       		.byte	0
 386 0168 00       		.byte	0
 387 0169 00       		.byte	0
 388 016a 00       		.byte	0
 389 016b 00       		.byte	0
 390 016c 00       		.byte	0
 391 016d 00       		.byte	0
 392 016e 00       		.byte	0
 393 016f 00       		.byte	0
 394 0170 00       		.byte	0
 395 0171 00       		.byte	0
 396 0172 00       		.byte	0
 397 0173 00       		.byte	0
 398 0174 00       		.byte	0
 399 0175 00       		.byte	0
ARM GAS  C:\Users\tuanngu\AppData\Local\Temp\ccwRuSog.s 			page 8


 400 0176 00       		.byte	0
 401 0177 00       		.byte	0
 402 0178 00       		.byte	0
 403 0179 00       		.byte	0
 404 017a 00       		.byte	0
 405 017b 00       		.byte	0
 406 017c 00       		.byte	0
 407 017d 00       		.byte	0
 408 017e 00       		.byte	0
 409 017f 00       		.byte	0
 410 0180 00       		.byte	0
 411 0181 00       		.byte	0
 412 0182 00       		.byte	0
 413 0183 00       		.byte	0
 414 0184 00       		.byte	0
 415 0185 00       		.byte	0
 416 0186 00       		.byte	0
 417 0187 00       		.byte	0
 418 0188 00       		.byte	0
 419 0189 00       		.byte	0
 420 018a 00       		.byte	0
 421 018b 00       		.byte	0
 422 018c 00       		.byte	0
 423 018d 00       		.byte	0
 424 018e 00       		.byte	0
 425 018f 00       		.byte	0
 426 0190 00       		.byte	0
 427 0191 00       		.byte	0
 428 0192 00       		.byte	0
 429 0193 00       		.byte	0
 430 0194 00       		.byte	0
 431 0195 00       		.byte	0
 432 0196 00       		.byte	0
 433 0197 00       		.byte	0
 434 0198 00       		.byte	0
 435 0199 00       		.byte	0
 436 019a 00       		.byte	0
 437 019b 00       		.byte	0
 438 019c 00       		.byte	0
 439 019d 00       		.byte	0
 440 019e 00       		.byte	0
 441 019f 00       		.byte	0
 442 01a0 00       		.byte	0
 443 01a1 00       		.byte	0
 444 01a2 00       		.byte	0
 445 01a3 00       		.byte	0
 446 01a4 00       		.byte	0
 447 01a5 00       		.byte	0
 448 01a6 00       		.byte	0
 449 01a7 00       		.byte	0
 450 01a8 00       		.byte	0
 451 01a9 00       		.byte	0
 452 01aa 00       		.byte	0
 453 01ab 00       		.byte	0
 454 01ac 00       		.byte	0
 455 01ad 00       		.byte	0
 456 01ae 00       		.byte	0
ARM GAS  C:\Users\tuanngu\AppData\Local\Temp\ccwRuSog.s 			page 9


 457 01af 00       		.byte	0
 458 01b0 00       		.byte	0
 459 01b1 00       		.byte	0
 460 01b2 00       		.byte	0
 461 01b3 00       		.byte	0
 462 01b4 00       		.byte	0
 463 01b5 00       		.byte	0
 464 01b6 00       		.byte	0
 465 01b7 00       		.byte	0
 466 01b8 00       		.byte	0
 467 01b9 00       		.byte	0
 468 01ba 00       		.byte	0
 469 01bb 00       		.byte	0
 470 01bc 00       		.byte	0
 471 01bd 00       		.byte	0
 472 01be 00       		.byte	0
 473 01bf 00       		.byte	0
 474 01c0 00       		.byte	0
 475 01c1 00       		.byte	0
 476 01c2 00       		.byte	0
 477 01c3 00       		.byte	0
 478 01c4 00       		.byte	0
 479 01c5 00       		.byte	0
 480 01c6 00       		.byte	0
 481 01c7 00       		.byte	0
 482 01c8 00       		.byte	0
 483 01c9 00       		.byte	0
 484 01ca 00       		.byte	0
 485 01cb 00       		.byte	0
 486 01cc 00       		.byte	0
 487 01cd 00       		.byte	0
 488 01ce 00       		.byte	0
 489 01cf 00       		.byte	0
 490 01d0 00       		.byte	0
 491 01d1 00       		.byte	0
 492 01d2 00       		.byte	0
 493 01d3 00       		.byte	0
 494 01d4 00       		.byte	0
 495 01d5 00       		.byte	0
 496 01d6 00       		.byte	0
 497 01d7 00       		.byte	0
 498 01d8 00       		.byte	0
 499 01d9 00       		.byte	0
 500 01da 00       		.byte	0
 501 01db 00       		.byte	0
 502 01dc 00       		.byte	0
 503 01dd 00       		.byte	0
 504 01de 00       		.byte	0
 505 01df 00       		.byte	0
 506 01e0 00       		.byte	0
 507 01e1 00       		.byte	0
 508 01e2 00       		.byte	0
 509 01e3 00       		.byte	0
 510 01e4 00       		.byte	0
 511 01e5 00       		.byte	0
 512 01e6 00       		.byte	0
 513 01e7 00       		.byte	0
ARM GAS  C:\Users\tuanngu\AppData\Local\Temp\ccwRuSog.s 			page 10


 514 01e8 00       		.byte	0
 515 01e9 00       		.byte	0
 516 01ea 00       		.byte	0
 517 01eb 00       		.byte	0
 518 01ec 00       		.byte	0
 519 01ed 00       		.byte	0
 520 01ee 00       		.byte	0
 521 01ef 00       		.byte	0
 522 01f0 00       		.byte	0
 523 01f1 00       		.byte	0
 524 01f2 00       		.byte	0
 525 01f3 00       		.byte	0
 526 01f4 00       		.byte	0
 527 01f5 00       		.byte	0
 528 01f6 00       		.byte	0
 529 01f7 00       		.byte	0
 530 01f8 00       		.byte	0
 531 01f9 00       		.byte	0
 532 01fa 00       		.byte	0
 533 01fb 00       		.byte	0
 534 01fc 00       		.byte	0
 535 01fd 00       		.byte	0
 536 01fe 00       		.byte	0
 537 01ff 00       		.byte	0
 538 0200 00       		.byte	0
 539 0201 00       		.byte	0
 540 0202 00       		.byte	0
 541 0203 00       		.byte	0
 542 0204 00       		.byte	0
 543 0205 00       		.byte	0
 544 0206 00       		.byte	0
 545 0207 00       		.byte	0
 546 0208 00       		.byte	0
 547 0209 00       		.byte	0
 548 020a 00       		.byte	0
 549 020b 00       		.byte	0
 550 020c 00       		.byte	0
 551 020d 00       		.byte	0
 552 020e 00       		.byte	0
 553 020f 00       		.byte	0
 554 0210 00       		.byte	0
 555 0211 00       		.byte	0
 556 0212 00       		.byte	0
 557 0213 00       		.byte	0
 558 0214 00       		.byte	0
 559 0215 00       		.byte	0
 560 0216 00       		.byte	0
 561 0217 00       		.byte	0
 562 0218 00       		.byte	0
 563 0219 00       		.byte	0
 564 021a 00       		.byte	0
 565 021b 00       		.byte	0
 566 021c 00       		.byte	0
 567 021d 00       		.byte	0
 568 021e 00       		.byte	0
 569 021f 00       		.byte	0
 570 0220 00       		.byte	0
ARM GAS  C:\Users\tuanngu\AppData\Local\Temp\ccwRuSog.s 			page 11


 571 0221 00       		.byte	0
 572 0222 00       		.byte	0
 573 0223 00       		.byte	0
 574 0224 00       		.byte	0
 575 0225 00       		.byte	0
 576 0226 00       		.byte	0
 577 0227 00       		.byte	0
 578 0228 00       		.byte	0
 579 0229 00       		.byte	0
 580 022a 00       		.byte	0
 581 022b 00       		.byte	0
 582 022c 00       		.byte	0
 583 022d 00       		.byte	0
 584 022e 00       		.byte	0
 585 022f 00       		.byte	0
 586 0230 00       		.byte	0
 587 0231 00       		.byte	0
 588 0232 00       		.byte	0
 589 0233 00       		.byte	0
 590 0234 00       		.byte	0
 591 0235 00       		.byte	0
 592 0236 00       		.byte	0
 593 0237 00       		.byte	0
 594 0238 00       		.byte	0
 595 0239 00       		.byte	0
 596 023a 00       		.byte	0
 597 023b 00       		.byte	0
 598 023c 00       		.byte	0
 599 023d 00       		.byte	0
 600 023e 00       		.byte	0
 601 023f 00       		.byte	0
 602 0240 00       		.byte	0
 603 0241 00       		.byte	0
 604 0242 00       		.byte	0
 605 0243 00       		.byte	0
 606 0244 00       		.byte	0
 607 0245 00       		.byte	0
 608 0246 00       		.byte	0
 609 0247 00       		.byte	0
 610 0248 00       		.byte	0
 611 0249 00       		.byte	0
 612 024a 00       		.byte	0
 613 024b 00       		.byte	0
 614 024c 00       		.byte	0
 615 024d 00       		.byte	0
 616 024e 00       		.byte	0
 617 024f 00       		.byte	0
 618 0250 00       		.byte	0
 619 0251 00       		.byte	0
 620 0252 00       		.byte	0
 621 0253 00       		.byte	0
 622 0254 00       		.byte	0
 623 0255 00       		.byte	0
 624 0256 00       		.byte	0
 625 0257 00       		.byte	0
 626 0258 00       		.byte	0
 627 0259 00       		.byte	0
ARM GAS  C:\Users\tuanngu\AppData\Local\Temp\ccwRuSog.s 			page 12


 628 025a 00       		.byte	0
 629 025b 00       		.byte	0
 630 025c 00       		.byte	0
 631 025d 00       		.byte	0
 632 025e 00       		.byte	0
 633 025f 00       		.byte	0
 634 0260 00       		.byte	0
 635 0261 00       		.byte	0
 636 0262 00       		.byte	0
 637 0263 00       		.byte	0
 638 0264 00       		.byte	0
 639 0265 00       		.byte	0
 640 0266 00       		.byte	0
 641 0267 00       		.byte	0
 642 0268 00       		.byte	0
 643 0269 00       		.byte	0
 644 026a 00       		.byte	0
 645 026b 00       		.byte	0
 646 026c 00       		.byte	0
 647 026d 00       		.byte	0
 648 026e 00       		.byte	0
 649 026f 00       		.byte	0
 650 0270 00       		.byte	0
 651 0271 00       		.byte	0
 652 0272 00       		.byte	0
 653 0273 00       		.byte	0
 654 0274 00       		.byte	0
 655 0275 00       		.byte	0
 656 0276 00       		.byte	0
 657 0277 00       		.byte	0
 658 0278 00       		.byte	0
 659 0279 00       		.byte	0
 660 027a 00       		.byte	0
 661 027b 00       		.byte	0
 662 027c 00       		.byte	0
 663 027d 00       		.byte	0
 664 027e 00       		.byte	0
 665 027f 00       		.byte	0
 666 0280 00       		.byte	0
 667 0281 00       		.byte	0
 668 0282 00       		.byte	0
 669 0283 00       		.byte	0
 670 0284 00       		.byte	0
 671 0285 00       		.byte	0
 672 0286 00       		.byte	0
 673 0287 00       		.byte	0
 674 0288 00       		.byte	0
 675 0289 00       		.byte	0
 676 028a 00       		.byte	0
 677 028b 00       		.byte	0
 678 028c 00       		.byte	0
 679 028d 00       		.byte	0
 680 028e 00       		.byte	0
 681 028f 00       		.byte	0
 682 0290 00       		.byte	0
 683 0291 00       		.byte	0
 684 0292 00       		.byte	0
ARM GAS  C:\Users\tuanngu\AppData\Local\Temp\ccwRuSog.s 			page 13


 685 0293 00       		.byte	0
 686 0294 00       		.byte	0
 687 0295 00       		.byte	0
 688 0296 00       		.byte	0
 689 0297 00       		.byte	0
 690 0298 00       		.byte	0
 691 0299 00       		.byte	0
 692 029a 00       		.byte	0
 693 029b 00       		.byte	0
 694 029c 00       		.byte	0
 695 029d 00       		.byte	0
 696 029e 00       		.byte	0
 697 029f 00       		.byte	0
 698 02a0 00       		.byte	0
 699 02a1 00       		.byte	0
 700 02a2 00       		.byte	0
 701 02a3 00       		.byte	0
 702 02a4 00       		.byte	0
 703 02a5 00       		.byte	0
 704 02a6 00       		.byte	0
 705 02a7 00       		.byte	0
 706 02a8 00       		.byte	0
 707 02a9 00       		.byte	0
 708 02aa 00       		.byte	0
 709 02ab 0A       		.byte	10
 710 02ac 05       		.byte	5
 711              		.global	cyBle_gatts
 712              		.section	.rodata
 713              		.align	2
 714              		.type	cyBle_gatts, %object
 715              		.size	cyBle_gatts, 6
 716              	cyBle_gatts:
 717 0000 0800     		.short	8
 718 0002 0A00     		.short	10
 719 0004 0B00     		.short	11
 720              		.data
 721              		.align	2
 722              		.type	cyBle_attValues, %object
 723              		.size	cyBle_attValues, 162
 724              	cyBle_attValues:
 725 0000 42       		.byte	66
 726 0001 4C       		.byte	76
 727 0002 45       		.byte	69
 728 0003 20       		.byte	32
 729 0004 4B       		.byte	75
 730 0005 65       		.byte	101
 731 0006 79       		.byte	121
 732 0007 62       		.byte	98
 733 0008 6F       		.byte	111
 734 0009 61       		.byte	97
 735 000a 72       		.byte	114
 736 000b 64       		.byte	100
 737 000c C1       		.byte	-63
 738 000d 03       		.byte	3
 739 000e 06       		.byte	6
 740 000f 00       		.byte	0
 741 0010 0C       		.byte	12
ARM GAS  C:\Users\tuanngu\AppData\Local\Temp\ccwRuSog.s 			page 14


 742 0011 00       		.byte	0
 743 0012 19       		.byte	25
 744 0013 00       		.byte	0
 745 0014 64       		.byte	100
 746 0015 00       		.byte	0
 747 0016 00       		.byte	0
 748 0017 00       		.byte	0
 749 0018 00       		.byte	0
 750 0019 00       		.byte	0
 751 001a 05       		.byte	5
 752 001b 01       		.byte	1
 753 001c 09       		.byte	9
 754 001d 06       		.byte	6
 755 001e A1       		.byte	-95
 756 001f 01       		.byte	1
 757 0020 05       		.byte	5
 758 0021 07       		.byte	7
 759 0022 19       		.byte	25
 760 0023 E0       		.byte	-32
 761 0024 29       		.byte	41
 762 0025 E7       		.byte	-25
 763 0026 15       		.byte	21
 764 0027 00       		.byte	0
 765 0028 25       		.byte	37
 766 0029 01       		.byte	1
 767 002a 75       		.byte	117
 768 002b 01       		.byte	1
 769 002c 95       		.byte	-107
 770 002d 08       		.byte	8
 771 002e 81       		.byte	-127
 772 002f 02       		.byte	2
 773 0030 95       		.byte	-107
 774 0031 01       		.byte	1
 775 0032 75       		.byte	117
 776 0033 08       		.byte	8
 777 0034 81       		.byte	-127
 778 0035 01       		.byte	1
 779 0036 95       		.byte	-107
 780 0037 05       		.byte	5
 781 0038 75       		.byte	117
 782 0039 01       		.byte	1
 783 003a 05       		.byte	5
 784 003b 08       		.byte	8
 785 003c 19       		.byte	25
 786 003d 01       		.byte	1
 787 003e 29       		.byte	41
 788 003f 05       		.byte	5
 789 0040 91       		.byte	-111
 790 0041 02       		.byte	2
 791 0042 95       		.byte	-107
 792 0043 01       		.byte	1
 793 0044 75       		.byte	117
 794 0045 03       		.byte	3
 795 0046 91       		.byte	-111
 796 0047 01       		.byte	1
 797 0048 95       		.byte	-107
 798 0049 06       		.byte	6
ARM GAS  C:\Users\tuanngu\AppData\Local\Temp\ccwRuSog.s 			page 15


 799 004a 75       		.byte	117
 800 004b 08       		.byte	8
 801 004c 15       		.byte	21
 802 004d 00       		.byte	0
 803 004e 25       		.byte	37
 804 004f 65       		.byte	101
 805 0050 05       		.byte	5
 806 0051 07       		.byte	7
 807 0052 19       		.byte	25
 808 0053 00       		.byte	0
 809 0054 29       		.byte	41
 810 0055 65       		.byte	101
 811 0056 81       		.byte	-127
 812 0057 00       		.byte	0
 813 0058 C0       		.byte	-64
 814 0059 00       		.byte	0
 815 005a 00       		.byte	0
 816 005b 00       		.byte	0
 817 005c 00       		.byte	0
 818 005d 00       		.byte	0
 819 005e 00       		.byte	0
 820 005f 00       		.byte	0
 821 0060 00       		.byte	0
 822 0061 00       		.byte	0
 823 0062 01       		.byte	1
 824 0063 01       		.byte	1
 825 0064 01       		.byte	1
 826 0065 00       		.byte	0
 827 0066 03       		.byte	3
 828 0067 00       		.byte	0
 829 0068 01       		.byte	1
 830 0069 00       		.byte	0
 831 006a 00       		.byte	0
 832 006b 00       		.byte	0
 833 006c 00       		.byte	0
 834 006d 00       		.byte	0
 835 006e 00       		.byte	0
 836 006f 00       		.byte	0
 837 0070 00       		.byte	0
 838 0071 00       		.byte	0
 839 0072 00       		.byte	0
 840 0073 00       		.byte	0
 841 0074 02       		.byte	2
 842 0075 43       		.byte	67
 843 0076 79       		.byte	121
 844 0077 70       		.byte	112
 845 0078 72       		.byte	114
 846 0079 65       		.byte	101
 847 007a 73       		.byte	115
 848 007b 73       		.byte	115
 849 007c 20       		.byte	32
 850 007d 53       		.byte	83
 851 007e 65       		.byte	101
 852 007f 6D       		.byte	109
 853 0080 69       		.byte	105
 854 0081 63       		.byte	99
 855 0082 6F       		.byte	111
ARM GAS  C:\Users\tuanngu\AppData\Local\Temp\ccwRuSog.s 			page 16


 856 0083 6E       		.byte	110
 857 0084 64       		.byte	100
 858 0085 75       		.byte	117
 859 0086 63       		.byte	99
 860 0087 74       		.byte	116
 861 0088 6F       		.byte	111
 862 0089 72       		.byte	114
 863 008a 31       		.byte	49
 864 008b 2E       		.byte	46
 865 008c 30       		.byte	48
 866 008d 30       		.byte	48
 867 008e 02       		.byte	2
 868 008f B4       		.byte	-76
 869 0090 04       		.byte	4
 870 0091 01       		.byte	1
 871 0092 00       		.byte	0
 872 0093 01       		.byte	1
 873 0094 00       		.byte	0
 874 0095 64       		.byte	100
 875 0096 04       		.byte	4
 876 0097 01       		.byte	1
 877 0098 AD       		.byte	-83
 878 0099 27       		.byte	39
 879 009a 01       		.byte	1
 880 009b 06       		.byte	6
 881 009c 01       		.byte	1
 882 009d 00       		.byte	0
 883 009e 00       		.byte	0
 884 009f 00       		.byte	0
 885 00a0 00       		.byte	0
 886 00a1 00       		.byte	0
 887              		.comm	cyBle_attValuesCCCD,10,4
 888              		.global	cyBle_attValuesLen
 889 00a2 0000     		.align	2
 890              		.type	cyBle_attValuesLen, %object
 891              		.size	cyBle_attValuesLen, 208
 892              	cyBle_attValuesLen:
 893 00a4 0C00     		.short	12
 894 00a6 0000     		.space	2
 895 00a8 00000000 		.word	cyBle_attValues
 896 00ac 0200     		.short	2
 897 00ae 0000     		.space	2
 898 00b0 0C000000 		.word	cyBle_attValues+12
 899 00b4 0800     		.short	8
 900 00b6 0000     		.space	2
 901 00b8 0E000000 		.word	cyBle_attValues+14
 902 00bc 0400     		.short	4
 903 00be 0000     		.space	2
 904 00c0 16000000 		.word	cyBle_attValues+22
 905 00c4 0200     		.short	2
 906 00c6 0000     		.space	2
 907 00c8 00000000 		.word	cyBle_attValuesCCCD
 908 00cc 3F00     		.short	63
 909 00ce 0000     		.space	2
 910 00d0 1A000000 		.word	cyBle_attValues+26
 911 00d4 0800     		.short	8
 912 00d6 0000     		.space	2
ARM GAS  C:\Users\tuanngu\AppData\Local\Temp\ccwRuSog.s 			page 17


 913 00d8 59000000 		.word	cyBle_attValues+89
 914 00dc 0200     		.short	2
 915 00de 0000     		.space	2
 916 00e0 02000000 		.word	cyBle_attValuesCCCD+2
 917 00e4 0200     		.short	2
 918 00e6 0000     		.space	2
 919 00e8 61000000 		.word	cyBle_attValues+97
 920 00ec 0400     		.short	4
 921 00ee 0000     		.space	2
 922 00f0 63000000 		.word	cyBle_attValues+99
 923 00f4 0100     		.short	1
 924 00f6 0000     		.space	2
 925 00f8 67000000 		.word	cyBle_attValues+103
 926 00fc 0100     		.short	1
 927 00fe 0000     		.space	2
 928 0100 68000000 		.word	cyBle_attValues+104
 929 0104 0800     		.short	8
 930 0106 0000     		.space	2
 931 0108 69000000 		.word	cyBle_attValues+105
 932 010c 0200     		.short	2
 933 010e 0000     		.space	2
 934 0110 04000000 		.word	cyBle_attValuesCCCD+4
 935 0114 0100     		.short	1
 936 0116 0000     		.space	2
 937 0118 71000000 		.word	cyBle_attValues+113
 938 011c 0100     		.short	1
 939 011e 0000     		.space	2
 940 0120 72000000 		.word	cyBle_attValues+114
 941 0124 0200     		.short	2
 942 0126 0000     		.space	2
 943 0128 73000000 		.word	cyBle_attValues+115
 944 012c 1500     		.short	21
 945 012e 0000     		.space	2
 946 0130 75000000 		.word	cyBle_attValues+117
 947 0134 0400     		.short	4
 948 0136 0000     		.space	2
 949 0138 8A000000 		.word	cyBle_attValues+138
 950 013c 0700     		.short	7
 951 013e 0000     		.space	2
 952 0140 8E000000 		.word	cyBle_attValues+142
 953 0144 0100     		.short	1
 954 0146 0000     		.space	2
 955 0148 95000000 		.word	cyBle_attValues+149
 956 014c 0700     		.short	7
 957 014e 0000     		.space	2
 958 0150 96000000 		.word	cyBle_attValues+150
 959 0154 0200     		.short	2
 960 0156 0000     		.space	2
 961 0158 06000000 		.word	cyBle_attValuesCCCD+6
 962 015c 0400     		.short	4
 963 015e 0000     		.space	2
 964 0160 9D000000 		.word	cyBle_attValues+157
 965 0164 0100     		.short	1
 966 0166 0000     		.space	2
 967 0168 A1000000 		.word	cyBle_attValues+161
 968 016c 0200     		.short	2
 969 016e 0000     		.space	2
ARM GAS  C:\Users\tuanngu\AppData\Local\Temp\ccwRuSog.s 			page 18


 970 0170 08000000 		.word	cyBle_attValuesCCCD+8
 971              		.global	cyBle_gattDB
 972              		.section	.rodata
 973 0006 0000     		.align	2
 974              		.type	cyBle_gattDB, %object
 975              		.size	cyBle_gattDB, 1000
 976              	cyBle_gattDB:
 977 0008 0100     		.short	1
 978 000a 0028     		.short	10240
 979 000c 01000000 		.word	1
 980 0010 0700     		.short	7
 981 0012 0000     		.space	2
 982 0014 0018     		.short	6144
 983 0016 0000     		.space	2
 984 0018 00000000 		.word	0
 985 001c 0200     		.short	2
 986 001e 0328     		.short	10243
 987 0020 01000200 		.word	131073
 988 0024 0300     		.short	3
 989 0026 0000     		.space	2
 990 0028 002A     		.short	10752
 991 002a 0000     		.space	2
 992 002c 00000000 		.word	0
 993 0030 0300     		.short	3
 994 0032 002A     		.short	10752
 995 0034 01000201 		.word	16908289
 996 0038 0300     		.short	3
 997 003a 0000     		.space	2
 998 003c 0C00     		.short	12
 999 003e 0000     		.space	2
 1000 0040 00000000 		.word	cyBle_attValuesLen
 1001 0044 0400     		.short	4
 1002 0046 0328     		.short	10243
 1003 0048 01000200 		.word	131073
 1004 004c 0500     		.short	5
 1005 004e 0000     		.space	2
 1006 0050 012A     		.short	10753
 1007 0052 0000     		.space	2
 1008 0054 00000000 		.word	0
 1009 0058 0500     		.short	5
 1010 005a 012A     		.short	10753
 1011 005c 01000201 		.word	16908289
 1012 0060 0500     		.short	5
 1013 0062 0000     		.space	2
 1014 0064 0200     		.short	2
 1015 0066 0000     		.space	2
 1016 0068 08000000 		.word	cyBle_attValuesLen+8
 1017 006c 0600     		.short	6
 1018 006e 0328     		.short	10243
 1019 0070 01000200 		.word	131073
 1020 0074 0700     		.short	7
 1021 0076 0000     		.space	2
 1022 0078 042A     		.short	10756
 1023 007a 0000     		.space	2
 1024 007c 00000000 		.word	0
 1025 0080 0700     		.short	7
 1026 0082 042A     		.short	10756
ARM GAS  C:\Users\tuanngu\AppData\Local\Temp\ccwRuSog.s 			page 19


 1027 0084 01000201 		.word	16908289
 1028 0088 0700     		.short	7
 1029 008a 0000     		.space	2
 1030 008c 0800     		.short	8
 1031 008e 0000     		.space	2
 1032 0090 10000000 		.word	cyBle_attValuesLen+16
 1033 0094 0800     		.short	8
 1034 0096 0028     		.short	10240
 1035 0098 01000000 		.word	1
 1036 009c 0B00     		.short	11
 1037 009e 0000     		.space	2
 1038 00a0 0118     		.short	6145
 1039 00a2 0000     		.space	2
 1040 00a4 00000000 		.word	0
 1041 00a8 0900     		.short	9
 1042 00aa 0328     		.short	10243
 1043 00ac 01002000 		.word	2097153
 1044 00b0 0B00     		.short	11
 1045 00b2 0000     		.space	2
 1046 00b4 052A     		.short	10757
 1047 00b6 0000     		.space	2
 1048 00b8 00000000 		.word	0
 1049 00bc 0A00     		.short	10
 1050 00be 052A     		.short	10757
 1051 00c0 00002001 		.word	18874368
 1052 00c4 0B00     		.short	11
 1053 00c6 0000     		.space	2
 1054 00c8 0400     		.short	4
 1055 00ca 0000     		.space	2
 1056 00cc 18000000 		.word	cyBle_attValuesLen+24
 1057 00d0 0B00     		.short	11
 1058 00d2 0229     		.short	10498
 1059 00d4 01030A01 		.word	17433345
 1060 00d8 0B00     		.short	11
 1061 00da 0000     		.space	2
 1062 00dc 0200     		.short	2
 1063 00de 0000     		.space	2
 1064 00e0 20000000 		.word	cyBle_attValuesLen+32
 1065 00e4 0C00     		.short	12
 1066 00e6 0028     		.short	10240
 1067 00e8 01000000 		.word	1
 1068 00ec 2000     		.short	32
 1069 00ee 0000     		.space	2
 1070 00f0 1218     		.short	6162
 1071 00f2 0000     		.space	2
 1072 00f4 00000000 		.word	0
 1073 00f8 0D00     		.short	13
 1074 00fa 0328     		.short	10243
 1075 00fc 01000200 		.word	131073
 1076 0100 0E00     		.short	14
 1077 0102 0000     		.space	2
 1078 0104 4B2A     		.short	10827
 1079 0106 0000     		.space	2
 1080 0108 00000000 		.word	0
 1081 010c 0E00     		.short	14
 1082 010e 4B2A     		.short	10827
 1083 0110 03000201 		.word	16908291
ARM GAS  C:\Users\tuanngu\AppData\Local\Temp\ccwRuSog.s 			page 20


 1084 0114 0E00     		.short	14
 1085 0116 0000     		.space	2
 1086 0118 3F00     		.short	63
 1087 011a 0000     		.space	2
 1088 011c 28000000 		.word	cyBle_attValuesLen+40
 1089 0120 0F00     		.short	15
 1090 0122 0328     		.short	10243
 1091 0124 01001A00 		.word	1703937
 1092 0128 1200     		.short	18
 1093 012a 0000     		.space	2
 1094 012c 4D2A     		.short	10829
 1095 012e 0000     		.space	2
 1096 0130 00000000 		.word	0
 1097 0134 1000     		.short	16
 1098 0136 4D2A     		.short	10829
 1099 0138 03031A01 		.word	18481923
 1100 013c 1200     		.short	18
 1101 013e 0000     		.space	2
 1102 0140 0800     		.short	8
 1103 0142 0000     		.space	2
 1104 0144 30000000 		.word	cyBle_attValuesLen+48
 1105 0148 1100     		.short	17
 1106 014a 0229     		.short	10498
 1107 014c 01030A01 		.word	17433345
 1108 0150 1100     		.short	17
 1109 0152 0000     		.space	2
 1110 0154 0200     		.short	2
 1111 0156 0000     		.space	2
 1112 0158 38000000 		.word	cyBle_attValuesLen+56
 1113 015c 1200     		.short	18
 1114 015e 0829     		.short	10504
 1115 0160 01000201 		.word	16908289
 1116 0164 1200     		.short	18
 1117 0166 0000     		.space	2
 1118 0168 0200     		.short	2
 1119 016a 0000     		.space	2
 1120 016c 40000000 		.word	cyBle_attValuesLen+64
 1121 0170 1300     		.short	19
 1122 0172 0328     		.short	10243
 1123 0174 01000200 		.word	131073
 1124 0178 1400     		.short	20
 1125 017a 0000     		.space	2
 1126 017c 4A2A     		.short	10826
 1127 017e 0000     		.space	2
 1128 0180 00000000 		.word	0
 1129 0184 1400     		.short	20
 1130 0186 4A2A     		.short	10826
 1131 0188 03000201 		.word	16908291
 1132 018c 1400     		.short	20
 1133 018e 0000     		.space	2
 1134 0190 0400     		.short	4
 1135 0192 0000     		.space	2
 1136 0194 48000000 		.word	cyBle_attValuesLen+72
 1137 0198 1500     		.short	21
 1138 019a 0328     		.short	10243
 1139 019c 01000400 		.word	262145
 1140 01a0 1600     		.short	22
ARM GAS  C:\Users\tuanngu\AppData\Local\Temp\ccwRuSog.s 			page 21


 1141 01a2 0000     		.space	2
 1142 01a4 4C2A     		.short	10828
 1143 01a6 0000     		.space	2
 1144 01a8 00000000 		.word	0
 1145 01ac 1600     		.short	22
 1146 01ae 4C2A     		.short	10828
 1147 01b0 00030401 		.word	17040128
 1148 01b4 1600     		.short	22
 1149 01b6 0000     		.space	2
 1150 01b8 0100     		.short	1
 1151 01ba 0000     		.space	2
 1152 01bc 50000000 		.word	cyBle_attValuesLen+80
 1153 01c0 1700     		.short	23
 1154 01c2 0328     		.short	10243
 1155 01c4 01000600 		.word	393217
 1156 01c8 1800     		.short	24
 1157 01ca 0000     		.space	2
 1158 01cc 4E2A     		.short	10830
 1159 01ce 0000     		.space	2
 1160 01d0 00000000 		.word	0
 1161 01d4 1800     		.short	24
 1162 01d6 4E2A     		.short	10830
 1163 01d8 03030601 		.word	17171203
 1164 01dc 1800     		.short	24
 1165 01de 0000     		.space	2
 1166 01e0 0100     		.short	1
 1167 01e2 0000     		.space	2
 1168 01e4 58000000 		.word	cyBle_attValuesLen+88
 1169 01e8 1900     		.short	25
 1170 01ea 0328     		.short	10243
 1171 01ec 01001200 		.word	1179649
 1172 01f0 1B00     		.short	27
 1173 01f2 0000     		.space	2
 1174 01f4 222A     		.short	10786
 1175 01f6 0000     		.space	2
 1176 01f8 00000000 		.word	0
 1177 01fc 1A00     		.short	26
 1178 01fe 222A     		.short	10786
 1179 0200 03001201 		.word	17956867
 1180 0204 1B00     		.short	27
 1181 0206 0000     		.space	2
 1182 0208 0800     		.short	8
 1183 020a 0000     		.space	2
 1184 020c 60000000 		.word	cyBle_attValuesLen+96
 1185 0210 1B00     		.short	27
 1186 0212 0229     		.short	10498
 1187 0214 01030A01 		.word	17433345
 1188 0218 1B00     		.short	27
 1189 021a 0000     		.space	2
 1190 021c 0200     		.short	2
 1191 021e 0000     		.space	2
 1192 0220 68000000 		.word	cyBle_attValuesLen+104
 1193 0224 1C00     		.short	28
 1194 0226 0328     		.short	10243
 1195 0228 01000E00 		.word	917505
 1196 022c 1D00     		.short	29
 1197 022e 0000     		.space	2
ARM GAS  C:\Users\tuanngu\AppData\Local\Temp\ccwRuSog.s 			page 22


 1198 0230 322A     		.short	10802
 1199 0232 0000     		.space	2
 1200 0234 00000000 		.word	0
 1201 0238 1D00     		.short	29
 1202 023a 322A     		.short	10802
 1203 023c 03030E01 		.word	17695491
 1204 0240 1D00     		.short	29
 1205 0242 0000     		.space	2
 1206 0244 0100     		.short	1
 1207 0246 0000     		.space	2
 1208 0248 70000000 		.word	cyBle_attValuesLen+112
 1209 024c 1E00     		.short	30
 1210 024e 0328     		.short	10243
 1211 0250 01000E00 		.word	917505
 1212 0254 2000     		.short	32
 1213 0256 0000     		.space	2
 1214 0258 4D2A     		.short	10829
 1215 025a 0000     		.space	2
 1216 025c 00000000 		.word	0
 1217 0260 1F00     		.short	31
 1218 0262 4D2A     		.short	10829
 1219 0264 03030E01 		.word	17695491
 1220 0268 2000     		.short	32
 1221 026a 0000     		.space	2
 1222 026c 0100     		.short	1
 1223 026e 0000     		.space	2
 1224 0270 78000000 		.word	cyBle_attValuesLen+120
 1225 0274 2000     		.short	32
 1226 0276 0829     		.short	10504
 1227 0278 01000201 		.word	16908289
 1228 027c 2000     		.short	32
 1229 027e 0000     		.space	2
 1230 0280 0200     		.short	2
 1231 0282 0000     		.space	2
 1232 0284 80000000 		.word	cyBle_attValuesLen+128
 1233 0288 2100     		.short	33
 1234 028a 0028     		.short	10240
 1235 028c 01000000 		.word	1
 1236 0290 2700     		.short	39
 1237 0292 0000     		.space	2
 1238 0294 0A18     		.short	6154
 1239 0296 0000     		.space	2
 1240 0298 00000000 		.word	0
 1241 029c 2200     		.short	34
 1242 029e 0328     		.short	10243
 1243 02a0 01000200 		.word	131073
 1244 02a4 2300     		.short	35
 1245 02a6 0000     		.space	2
 1246 02a8 292A     		.short	10793
 1247 02aa 0000     		.space	2
 1248 02ac 00000000 		.word	0
 1249 02b0 2300     		.short	35
 1250 02b2 292A     		.short	10793
 1251 02b4 03000201 		.word	16908291
 1252 02b8 2300     		.short	35
 1253 02ba 0000     		.space	2
 1254 02bc 1500     		.short	21
ARM GAS  C:\Users\tuanngu\AppData\Local\Temp\ccwRuSog.s 			page 23


 1255 02be 0000     		.space	2
 1256 02c0 88000000 		.word	cyBle_attValuesLen+136
 1257 02c4 2400     		.short	36
 1258 02c6 0328     		.short	10243
 1259 02c8 01000200 		.word	131073
 1260 02cc 2500     		.short	37
 1261 02ce 0000     		.space	2
 1262 02d0 262A     		.short	10790
 1263 02d2 0000     		.space	2
 1264 02d4 00000000 		.word	0
 1265 02d8 2500     		.short	37
 1266 02da 262A     		.short	10790
 1267 02dc 03000201 		.word	16908291
 1268 02e0 2500     		.short	37
 1269 02e2 0000     		.space	2
 1270 02e4 0400     		.short	4
 1271 02e6 0000     		.space	2
 1272 02e8 90000000 		.word	cyBle_attValuesLen+144
 1273 02ec 2600     		.short	38
 1274 02ee 0328     		.short	10243
 1275 02f0 01000200 		.word	131073
 1276 02f4 2700     		.short	39
 1277 02f6 0000     		.space	2
 1278 02f8 502A     		.short	10832
 1279 02fa 0000     		.space	2
 1280 02fc 00000000 		.word	0
 1281 0300 2700     		.short	39
 1282 0302 502A     		.short	10832
 1283 0304 03000201 		.word	16908291
 1284 0308 2700     		.short	39
 1285 030a 0000     		.space	2
 1286 030c 0700     		.short	7
 1287 030e 0000     		.space	2
 1288 0310 98000000 		.word	cyBle_attValuesLen+152
 1289 0314 2800     		.short	40
 1290 0316 0028     		.short	10240
 1291 0318 01000000 		.word	1
 1292 031c 2C00     		.short	44
 1293 031e 0000     		.space	2
 1294 0320 0F18     		.short	6159
 1295 0322 0000     		.space	2
 1296 0324 00000000 		.word	0
 1297 0328 2900     		.short	41
 1298 032a 0328     		.short	10243
 1299 032c 01001200 		.word	1179649
 1300 0330 2C00     		.short	44
 1301 0332 0000     		.space	2
 1302 0334 192A     		.short	10777
 1303 0336 0000     		.space	2
 1304 0338 00000000 		.word	0
 1305 033c 2A00     		.short	42
 1306 033e 192A     		.short	10777
 1307 0340 03001201 		.word	17956867
 1308 0344 2C00     		.short	44
 1309 0346 0000     		.space	2
 1310 0348 0100     		.short	1
 1311 034a 0000     		.space	2
ARM GAS  C:\Users\tuanngu\AppData\Local\Temp\ccwRuSog.s 			page 24


 1312 034c A0000000 		.word	cyBle_attValuesLen+160
 1313 0350 2B00     		.short	43
 1314 0352 0429     		.short	10500
 1315 0354 01000201 		.word	16908289
 1316 0358 2B00     		.short	43
 1317 035a 0000     		.space	2
 1318 035c 0700     		.short	7
 1319 035e 0000     		.space	2
 1320 0360 A8000000 		.word	cyBle_attValuesLen+168
 1321 0364 2C00     		.short	44
 1322 0366 0229     		.short	10498
 1323 0368 01030A01 		.word	17433345
 1324 036c 2C00     		.short	44
 1325 036e 0000     		.space	2
 1326 0370 0200     		.short	2
 1327 0372 0000     		.space	2
 1328 0374 B0000000 		.word	cyBle_attValuesLen+176
 1329 0378 2D00     		.short	45
 1330 037a 0028     		.short	10240
 1331 037c 01000000 		.word	1
 1332 0380 3200     		.short	50
 1333 0382 0000     		.space	2
 1334 0384 1318     		.short	6163
 1335 0386 0000     		.space	2
 1336 0388 00000000 		.word	0
 1337 038c 2E00     		.short	46
 1338 038e 0328     		.short	10243
 1339 0390 01000400 		.word	262145
 1340 0394 2F00     		.short	47
 1341 0396 0000     		.space	2
 1342 0398 4F2A     		.short	10831
 1343 039a 0000     		.space	2
 1344 039c 00000000 		.word	0
 1345 03a0 2F00     		.short	47
 1346 03a2 4F2A     		.short	10831
 1347 03a4 00030401 		.word	17040128
 1348 03a8 2F00     		.short	47
 1349 03aa 0000     		.space	2
 1350 03ac 0400     		.short	4
 1351 03ae 0000     		.space	2
 1352 03b0 B8000000 		.word	cyBle_attValuesLen+184
 1353 03b4 3000     		.short	48
 1354 03b6 0328     		.short	10243
 1355 03b8 01001000 		.word	1048577
 1356 03bc 3200     		.short	50
 1357 03be 0000     		.space	2
 1358 03c0 312A     		.short	10801
 1359 03c2 0000     		.space	2
 1360 03c4 00000000 		.word	0
 1361 03c8 3100     		.short	49
 1362 03ca 312A     		.short	10801
 1363 03cc 00001001 		.word	17825792
 1364 03d0 3200     		.short	50
 1365 03d2 0000     		.space	2
 1366 03d4 0100     		.short	1
 1367 03d6 0000     		.space	2
 1368 03d8 C0000000 		.word	cyBle_attValuesLen+192
ARM GAS  C:\Users\tuanngu\AppData\Local\Temp\ccwRuSog.s 			page 25


 1369 03dc 3200     		.short	50
 1370 03de 0229     		.short	10498
 1371 03e0 01030A01 		.word	17433345
 1372 03e4 3200     		.short	50
 1373 03e6 0000     		.space	2
 1374 03e8 0200     		.short	2
 1375 03ea 0000     		.space	2
 1376 03ec C8000000 		.word	cyBle_attValuesLen+200
 1377              		.section	.text.CyBle_GattsReInitGattDb,"ax",%progbits
 1378              		.align	2
 1379              		.global	CyBle_GattsReInitGattDb
 1380              		.code	16
 1381              		.thumb_func
 1382              		.type	CyBle_GattsReInitGattDb, %function
 1383              	CyBle_GattsReInitGattDb:
 1384              	.LFB2:
 1385              		.file 1 "Generated_Source\\PSoC4\\BLE_gatt.c"
   1:Generated_Source\PSoC4/BLE_gatt.c **** /***************************************************************************//**
   2:Generated_Source\PSoC4/BLE_gatt.c **** * \file CYBLE_gatt.c
   3:Generated_Source\PSoC4/BLE_gatt.c **** * \version 3.30
   4:Generated_Source\PSoC4/BLE_gatt.c **** * 
   5:Generated_Source\PSoC4/BLE_gatt.c **** * \brief
   6:Generated_Source\PSoC4/BLE_gatt.c **** *  This file contains the source code for the GATT API of the BLE Component.
   7:Generated_Source\PSoC4/BLE_gatt.c **** * 
   8:Generated_Source\PSoC4/BLE_gatt.c **** ********************************************************************************
   9:Generated_Source\PSoC4/BLE_gatt.c **** * \copyright
  10:Generated_Source\PSoC4/BLE_gatt.c **** * Copyright 2014-2016, Cypress Semiconductor Corporation.  All rights reserved.
  11:Generated_Source\PSoC4/BLE_gatt.c **** * You may use this file only in accordance with the license, terms, conditions,
  12:Generated_Source\PSoC4/BLE_gatt.c **** * disclaimers, and limitations in the end user license agreement accompanying
  13:Generated_Source\PSoC4/BLE_gatt.c **** * the software package with which this file was provided.
  14:Generated_Source\PSoC4/BLE_gatt.c **** *******************************************************************************/
  15:Generated_Source\PSoC4/BLE_gatt.c **** 
  16:Generated_Source\PSoC4/BLE_gatt.c **** 
  17:Generated_Source\PSoC4/BLE_gatt.c **** #include "BLE_eventHandler.h"
  18:Generated_Source\PSoC4/BLE_gatt.c **** 
  19:Generated_Source\PSoC4/BLE_gatt.c **** 
  20:Generated_Source\PSoC4/BLE_gatt.c **** /***************************************
  21:Generated_Source\PSoC4/BLE_gatt.c **** * Global variables
  22:Generated_Source\PSoC4/BLE_gatt.c **** ***************************************/
  23:Generated_Source\PSoC4/BLE_gatt.c **** 
  24:Generated_Source\PSoC4/BLE_gatt.c **** CYBLE_STATE_T cyBle_state;
  25:Generated_Source\PSoC4/BLE_gatt.c **** 
  26:Generated_Source\PSoC4/BLE_gatt.c **** #if ((CYBLE_MODE_PROFILE) && (CYBLE_BONDING_REQUIREMENT == CYBLE_BONDING_YES))
  27:Generated_Source\PSoC4/BLE_gatt.c ****     
  28:Generated_Source\PSoC4/BLE_gatt.c **** #if(CYBLE_MODE_PROFILE)
  29:Generated_Source\PSoC4/BLE_gatt.c ****     #if defined(__ARMCC_VERSION)
  30:Generated_Source\PSoC4/BLE_gatt.c ****         CY_ALIGN(CYDEV_FLS_ROW_SIZE) const CY_BLE_FLASH_STORAGE cyBle_flashStorage CY_SECTION(".cy_
  31:Generated_Source\PSoC4/BLE_gatt.c ****     #elif defined (__GNUC__)
  32:Generated_Source\PSoC4/BLE_gatt.c ****         const CY_BLE_FLASH_STORAGE cyBle_flashStorage CY_SECTION(".cy_checksum_exclude")
  33:Generated_Source\PSoC4/BLE_gatt.c ****             CY_ALIGN(CYDEV_FLS_ROW_SIZE) =
  34:Generated_Source\PSoC4/BLE_gatt.c ****     #elif defined (__ICCARM__)
  35:Generated_Source\PSoC4/BLE_gatt.c ****         #pragma data_alignment=CY_FLASH_SIZEOF_ROW
  36:Generated_Source\PSoC4/BLE_gatt.c ****         #pragma location=".cy_checksum_exclude"
  37:Generated_Source\PSoC4/BLE_gatt.c ****         const CY_BLE_FLASH_STORAGE cyBle_flashStorage =
  38:Generated_Source\PSoC4/BLE_gatt.c ****     #endif  /* (__ARMCC_VERSION) */
  39:Generated_Source\PSoC4/BLE_gatt.c ****     {
  40:Generated_Source\PSoC4/BLE_gatt.c ****         { 0x00u, 0x00u, 0x00u, 0x00u, 0x00u, 0x00u, 0x00u, 0x00u, 0x00u, 0x00u, 0x00u, 0x00u, 0x00u
ARM GAS  C:\Users\tuanngu\AppData\Local\Temp\ccwRuSog.s 			page 26


  41:Generated_Source\PSoC4/BLE_gatt.c ****         0x00u, 0x00u, 0x00u, 0x00u, 0x00u, 0x00u, 0x00u, 0x00u, 0x00u, 0x00u, 0x00u, 0x00u, 0x00u, 
  42:Generated_Source\PSoC4/BLE_gatt.c ****         0x00u, 0x00u, 0x00u, 0x00u, 0x00u, 0x00u, 0x00u, 0x00u, 0x00u, 0x00u, 0x00u, 0x00u, 0x00u, 
  43:Generated_Source\PSoC4/BLE_gatt.c ****         0x00u, 0x00u, 0x00u, 0x00u, 0x00u, 0x00u, 0x00u, 0x00u, 0x00u, 0x00u, 0x00u, 0x00u, 0x00u, 
  44:Generated_Source\PSoC4/BLE_gatt.c ****         0x00u, 0x00u, 0x00u, 0x00u, 0x00u, 0x00u, 0x00u, 0x00u, 0x00u, 0x00u, 0x00u, 0x00u, 0x00u, 
  45:Generated_Source\PSoC4/BLE_gatt.c ****         0x00u, 0x00u, 0x00u, 0x00u, 0x00u, 0x00u, 0x00u, 0x00u, 0x00u, 0x00u, 0x00u, 0x00u, 0x00u, 
  46:Generated_Source\PSoC4/BLE_gatt.c ****         0x00u, 0x00u, 0x00u, 0x00u, 0x00u, 0x00u, 0x00u, 0x00u, 0x00u, 0x00u, 0x00u, 0x00u, 0x00u, 
  47:Generated_Source\PSoC4/BLE_gatt.c ****         0x00u, 0x00u, 0x00u, 0x00u, 0x00u, 0x00u, 0x00u, 0x00u, 0x00u, 0x00u, 0x00u, 0x00u, 0x00u, 
  48:Generated_Source\PSoC4/BLE_gatt.c ****         0x00u, 0x00u, 0x00u, 0x00u, 0x00u, 0x00u, 0x00u, 0x00u, 0x00u, 0x00u, 0x00u, 0x00u, 0x00u, 
  49:Generated_Source\PSoC4/BLE_gatt.c ****         0x00u, 0x00u, 0x00u, 0x00u, 0x00u, 0x00u, 0x00u, 0x00u, 0x00u, 0x00u, 0x00u, 0x00u, 0x00u, 
  50:Generated_Source\PSoC4/BLE_gatt.c ****         0x00u, 0x00u, 0x00u, 0x00u, 0x00u, 0x00u, 0x00u, 0x00u, 0x00u, 0x00u, 0x00u, 0x00u, 0x00u, 
  51:Generated_Source\PSoC4/BLE_gatt.c ****         0x00u, 0x00u, 0x00u, 0x00u, 0x00u, 0x00u, 0x00u, 0x00u, 0x00u, 0x00u, 0x00u, 0x00u, 0x00u, 
  52:Generated_Source\PSoC4/BLE_gatt.c ****         0x00u, 0x00u, 0x00u, 0x00u, 0x00u, 0x00u, 0x00u, 0x00u, 0x00u, 0x00u, 0x00u, 0x00u, 0x00u, 
  53:Generated_Source\PSoC4/BLE_gatt.c ****         0x00u, 0x00u, 0x00u, 0x00u, 0x00u, 0x00u, 0x00u, 0x00u, 0x00u, 0x00u, 0x00u, 0x00u, 0x00u, 
  54:Generated_Source\PSoC4/BLE_gatt.c ****         0x00u, 0x00u, 0x00u, 0x00u, 0x00u, 0x00u, 0x00u, 0x00u, 0x00u, 0x00u, 0x00u, 0x00u, 0x00u, 
  55:Generated_Source\PSoC4/BLE_gatt.c ****         0x00u, 0x00u, 0x00u, 0x00u, 0x00u, 0x00u, 0x00u, 0x00u, 0x00u, 0x00u, 0x00u, 0x00u, 0x00u, 
  56:Generated_Source\PSoC4/BLE_gatt.c ****         0x00u, 0x00u, 0x00u, 0x00u, 0x00u, 0x00u, 0x00u, 0x00u, 0x00u, 0x00u, 0x00u, 0x00u, 0x00u, 
  57:Generated_Source\PSoC4/BLE_gatt.c ****         0x00u, 0x00u, 0x00u, 0x00u, 0x00u, 0x00u, 0x00u, 0x00u, 0x00u, 0x00u, 0x00u, 0x00u, 0x00u, 
  58:Generated_Source\PSoC4/BLE_gatt.c ****         0x00u, 0x00u, 0x00u, 0x00u, 0x00u, 0x00u, 0x00u, 0x00u, 0x00u, 0x00u, 0x00u, 0x00u, 0x00u, 
  59:Generated_Source\PSoC4/BLE_gatt.c ****         0x00u, 0x00u, 0x00u, 0x00u, 0x00u, 0x00u, 0x00u, 0x00u, 0x00u, 0x00u, 0x00u, 0x00u, 0x00u, 
  60:Generated_Source\PSoC4/BLE_gatt.c ****         0x00u, 0x00u, 0x00u, 0x00u, 0x00u, 0x00u, 0x00u, 0x00u, 0x00u, 0x00u, 0x00u, 0x00u, 0x00u, 
  61:Generated_Source\PSoC4/BLE_gatt.c ****         0x00u, 0x00u, 0x00u, 0x00u, 0x00u, 0x00u, 0x00u, 0x00u, 0x00u, 0x00u, 0x00u, 0x00u, 0x00u, 
  62:Generated_Source\PSoC4/BLE_gatt.c ****         0x00u, 0x00u, 0x00u, 0x00u, 0x00u, 0x00u, 0x00u, 0x00u, 0x00u, 0x00u, 0x00u, 0x00u, 0x00u, 
  63:Generated_Source\PSoC4/BLE_gatt.c ****         0x00u, 0x00u, 0x00u, 0x00u, 0x00u, 0x00u, 0x00u, 0x00u, 0x00u, 0x00u, 0x00u, 0x00u, 0x00u, 
  64:Generated_Source\PSoC4/BLE_gatt.c ****         0x00u, 0x00u, 0x00u, 0x00u, 0x00u, 0x00u, 0x00u, 0x00u, 0x00u, 0x00u, 0x00u, 0x00u, 0x00u, 
  65:Generated_Source\PSoC4/BLE_gatt.c ****         0x00u, 0x00u, 0x00u, 0x00u, 0x00u, 0x00u, 0x00u, 0x00u, 0x00u, 0x00u, 0x00u, 0x00u, 0x00u, 
  66:Generated_Source\PSoC4/BLE_gatt.c ****         0x00u, 0x00u, 0x00u, 0x00u, 0x00u, 0x00u, 0x00u, 0x00u, 0x00u, 0x00u, 0x00u, 0x00u, 0x00u, 
  67:Generated_Source\PSoC4/BLE_gatt.c ****         0x00u, 0x00u, 0x00u, 0x00u, 0x00u, 0x00u, 0x00u, 0x00u, 0x00u, 0x00u, 0x00u, 0x00u, 0x00u, 
  68:Generated_Source\PSoC4/BLE_gatt.c ****         0x00u, 0x00u, 0x00u, 0x00u, 0x00u, 0x00u, 0x00u, 0x00u, 0x00u, 0x00u, 0x00u, 0x00u, 0x00u, 
  69:Generated_Source\PSoC4/BLE_gatt.c ****         0x00u, 0x00u, 0x00u, 0x00u, 0x00u, 0x00u, 0x00u, 0x00u, 0x00u, 0x00u, 0x00u, 0x00u, 0x00u, 
  70:Generated_Source\PSoC4/BLE_gatt.c ****         0x00u, 0x00u, 0x00u, 0x00u, 0x00u, 0x00u, 0x00u, 0x00u, 0x00u, 0x00u, 0x00u, 0x00u, 0x00u, 
  71:Generated_Source\PSoC4/BLE_gatt.c ****         0x00u, 0x00u, 0x00u, 0x00u, 0x00u, 0x00u, 0x00u, 0x00u, 0x00u, 0x00u, 0x00u, 0x00u, 0x00u, 
  72:Generated_Source\PSoC4/BLE_gatt.c ****         0x00u, 0x00u, 0x00u, 0x00u, 0x00u, 0x00u, 0x00u, 0x00u, 0x00u, 0x00u, 0x00u, 0x00u, 0x00u, 
  73:Generated_Source\PSoC4/BLE_gatt.c ****         0x00u, 0x00u, 0x00u, 0x00u, 0x00u, 0x00u, 0x00u, 0x00u, 0x00u, 0x00u, 0x00u, 0x00u, 0x00u, 
  74:Generated_Source\PSoC4/BLE_gatt.c ****         0x00u, 0x00u, 0x00u, 0x00u, 0x00u, 0x00u, 0x00u, 0x00u, 0x00u, 0x00u, 0x00u, 0x00u, 0x00u, 
  75:Generated_Source\PSoC4/BLE_gatt.c ****         0x00u, 0x00u, 0x00u, 0x00u, 0x00u, 0x00u, 0x00u, 0x00u, 0x00u, 0x00u, 0x00u, 0x00u, 0x00u, 
  76:Generated_Source\PSoC4/BLE_gatt.c ****         0x00u, 0x00u, 0x00u, 0x00u, 0x00u, 0x00u, 0x00u, 0x00u, 0x00u, 0x00u, 0x00u, 0x00u, 0x00u, 
  77:Generated_Source\PSoC4/BLE_gatt.c ****         0x00u, 0x00u, 0x00u, 0x00u, 0x00u, 0x00u, 0x00u, 0x00u, 0x00u, 0x00u, 0x00u, 0x00u, 0x00u, 
  78:Generated_Source\PSoC4/BLE_gatt.c ****         0x00u, 0x00u, 0x00u, 0x00u, 0x00u, 0x00u, 0x00u, 0x00u, 0x00u, 0x00u, 0x00u, 0x00u, 0x00u, 
  79:Generated_Source\PSoC4/BLE_gatt.c ****         0x00u, 0x00u, 0x00u, 0x00u, 0x00u, 0x00u, 0x00u, 0x00u, 0x00u, 0x00u }, 
  80:Generated_Source\PSoC4/BLE_gatt.c ****         {{
  81:Generated_Source\PSoC4/BLE_gatt.c ****             0x00u, 0x00u,
  82:Generated_Source\PSoC4/BLE_gatt.c ****             0x00u, 0x00u,
  83:Generated_Source\PSoC4/BLE_gatt.c ****             0x00u, 0x00u,
  84:Generated_Source\PSoC4/BLE_gatt.c ****             0x00u, 0x00u,
  85:Generated_Source\PSoC4/BLE_gatt.c ****             0x00u, 0x00u,
  86:Generated_Source\PSoC4/BLE_gatt.c ****         },
  87:Generated_Source\PSoC4/BLE_gatt.c ****         {
  88:Generated_Source\PSoC4/BLE_gatt.c ****             0x00u, 0x00u,
  89:Generated_Source\PSoC4/BLE_gatt.c ****             0x00u, 0x00u,
  90:Generated_Source\PSoC4/BLE_gatt.c ****             0x00u, 0x00u,
  91:Generated_Source\PSoC4/BLE_gatt.c ****             0x00u, 0x00u,
  92:Generated_Source\PSoC4/BLE_gatt.c ****             0x00u, 0x00u,
  93:Generated_Source\PSoC4/BLE_gatt.c ****         },
  94:Generated_Source\PSoC4/BLE_gatt.c ****         {
  95:Generated_Source\PSoC4/BLE_gatt.c ****             0x00u, 0x00u,
  96:Generated_Source\PSoC4/BLE_gatt.c ****             0x00u, 0x00u,
  97:Generated_Source\PSoC4/BLE_gatt.c ****             0x00u, 0x00u,
ARM GAS  C:\Users\tuanngu\AppData\Local\Temp\ccwRuSog.s 			page 27


  98:Generated_Source\PSoC4/BLE_gatt.c ****             0x00u, 0x00u,
  99:Generated_Source\PSoC4/BLE_gatt.c ****             0x00u, 0x00u,
 100:Generated_Source\PSoC4/BLE_gatt.c ****         },
 101:Generated_Source\PSoC4/BLE_gatt.c ****         {
 102:Generated_Source\PSoC4/BLE_gatt.c ****             0x00u, 0x00u,
 103:Generated_Source\PSoC4/BLE_gatt.c ****             0x00u, 0x00u,
 104:Generated_Source\PSoC4/BLE_gatt.c ****             0x00u, 0x00u,
 105:Generated_Source\PSoC4/BLE_gatt.c ****             0x00u, 0x00u,
 106:Generated_Source\PSoC4/BLE_gatt.c ****             0x00u, 0x00u,
 107:Generated_Source\PSoC4/BLE_gatt.c ****         },
 108:Generated_Source\PSoC4/BLE_gatt.c ****         {
 109:Generated_Source\PSoC4/BLE_gatt.c ****             0x00u, 0x00u,
 110:Generated_Source\PSoC4/BLE_gatt.c ****             0x00u, 0x00u,
 111:Generated_Source\PSoC4/BLE_gatt.c ****             0x00u, 0x00u,
 112:Generated_Source\PSoC4/BLE_gatt.c ****             0x00u, 0x00u,
 113:Generated_Source\PSoC4/BLE_gatt.c ****             0x00u, 0x00u,
 114:Generated_Source\PSoC4/BLE_gatt.c ****         }}, 
 115:Generated_Source\PSoC4/BLE_gatt.c ****         0x0Au, /* CYBLE_GATT_DB_CCCD_COUNT */ 
 116:Generated_Source\PSoC4/BLE_gatt.c ****         0x05u, /* CYBLE_GAP_MAX_BONDED_DEVICE */ 
 117:Generated_Source\PSoC4/BLE_gatt.c ****     };
 118:Generated_Source\PSoC4/BLE_gatt.c **** #endif /* (CYBLE_MODE_PROFILE) */
 119:Generated_Source\PSoC4/BLE_gatt.c **** 
 120:Generated_Source\PSoC4/BLE_gatt.c **** #endif  /* (CYBLE_MODE_PROFILE) && (CYBLE_BONDING_REQUIREMENT == CYBLE_BONDING_YES) */
 121:Generated_Source\PSoC4/BLE_gatt.c **** 
 122:Generated_Source\PSoC4/BLE_gatt.c **** #if(CYBLE_GATT_ROLE_SERVER)
 123:Generated_Source\PSoC4/BLE_gatt.c ****     
 124:Generated_Source\PSoC4/BLE_gatt.c ****     const CYBLE_GATTS_T cyBle_gatts =
 125:Generated_Source\PSoC4/BLE_gatt.c **** {
 126:Generated_Source\PSoC4/BLE_gatt.c ****     0x0008u,    /* Handle of the GATT service */
 127:Generated_Source\PSoC4/BLE_gatt.c ****     0x000Au,    /* Handle of the Service Changed characteristic */
 128:Generated_Source\PSoC4/BLE_gatt.c ****     0x000Bu,    /* Handle of the Client Characteristic Configuration descriptor */
 129:Generated_Source\PSoC4/BLE_gatt.c **** };
 130:Generated_Source\PSoC4/BLE_gatt.c ****     
 131:Generated_Source\PSoC4/BLE_gatt.c ****     static uint8 cyBle_attValues[0xA2u] = {
 132:Generated_Source\PSoC4/BLE_gatt.c ****     /* Device Name */
 133:Generated_Source\PSoC4/BLE_gatt.c ****     (uint8)'B', (uint8)'L', (uint8)'E', (uint8)' ', (uint8)'K', (uint8)'e', (uint8)'y', (uint8)'b',
 134:Generated_Source\PSoC4/BLE_gatt.c ****     (uint8)'a', (uint8)'r', (uint8)'d',
 135:Generated_Source\PSoC4/BLE_gatt.c **** 
 136:Generated_Source\PSoC4/BLE_gatt.c ****     /* Appearance */
 137:Generated_Source\PSoC4/BLE_gatt.c ****     0xC1u, 0x03u,
 138:Generated_Source\PSoC4/BLE_gatt.c **** 
 139:Generated_Source\PSoC4/BLE_gatt.c ****     /* Peripheral Preferred Connection Parameters */
 140:Generated_Source\PSoC4/BLE_gatt.c ****     0x06u, 0x00u, 0x0Cu, 0x00u, 0x19u, 0x00u, 0x64u, 0x00u,
 141:Generated_Source\PSoC4/BLE_gatt.c **** 
 142:Generated_Source\PSoC4/BLE_gatt.c ****     /* Service Changed */
 143:Generated_Source\PSoC4/BLE_gatt.c ****     0x00u, 0x00u, 0x00u, 0x00u,
 144:Generated_Source\PSoC4/BLE_gatt.c **** 
 145:Generated_Source\PSoC4/BLE_gatt.c ****     /* Report Map */
 146:Generated_Source\PSoC4/BLE_gatt.c ****     0x05u, 0x01u, /* USAGE_PAGE         */
 147:Generated_Source\PSoC4/BLE_gatt.c **** 0x09u, 0x06u, /* USAGE              */
 148:Generated_Source\PSoC4/BLE_gatt.c **** 0xA1u, 0x01u, /* COLLECTION       
 149:Generated_Source\PSoC4/BLE_gatt.c ****      */
 150:Generated_Source\PSoC4/BLE_gatt.c **** 0x05u, 0x07u, /* USAGE_PAGE         */
 151:Generated_Source\PSoC4/BLE_gatt.c **** 0x19u, 0xE0u, /* USAGE_MINIMUM      */
 152:Generated_Source\PSoC4/BLE_gatt.c **** 0x29u, 0xE7u, /* USAGE_MAXIMUM 
 153:Generated_Source\PSoC4/BLE_gatt.c ****         */
 154:Generated_Source\PSoC4/BLE_gatt.c **** 0x15u, 0x00u, /* LOGICAL_MINIMUM    */
ARM GAS  C:\Users\tuanngu\AppData\Local\Temp\ccwRuSog.s 			page 28


 155:Generated_Source\PSoC4/BLE_gatt.c **** 0x25u, 0x01u, /* LOGICAL_MAXIMUM    */
 156:Generated_Source\PSoC4/BLE_gatt.c **** 0x75u, 0x01u, /* REPORT_SIZE
 157:Generated_Source\PSoC4/BLE_gatt.c ****            */
 158:Generated_Source\PSoC4/BLE_gatt.c **** 0x95u, 0x08u, /* REPORT_COUNT       */
 159:Generated_Source\PSoC4/BLE_gatt.c **** 0x81u, 0x02u, /* INPUT              */
 160:Generated_Source\PSoC4/BLE_gatt.c **** 0x95u, 0x01u, /*
 161:Generated_Source\PSoC4/BLE_gatt.c ****     REPORT_COUNT       */
 162:Generated_Source\PSoC4/BLE_gatt.c **** 0x75u, 0x08u, /* REPORT_SIZE        */
 163:Generated_Source\PSoC4/BLE_gatt.c **** 0x81u, 0x01u, /* INPUT              */
 164:Generated_Source\PSoC4/BLE_gatt.c **** 0x95u, 0x05u,
 165:Generated_Source\PSoC4/BLE_gatt.c ****     /* REPORT_COUNT       */
 166:Generated_Source\PSoC4/BLE_gatt.c **** 0x75u, 0x01u, /* REPORT_SIZE        */
 167:Generated_Source\PSoC4/BLE_gatt.c **** 0x05u, 0x08u, /* USAGE_PAGE         */
 168:Generated_Source\PSoC4/BLE_gatt.c **** 0x19u,
 169:Generated_Source\PSoC4/BLE_gatt.c ****     0x01u, /* USAGE_MINIMUM      */
 170:Generated_Source\PSoC4/BLE_gatt.c **** 0x29u, 0x05u, /* USAGE_MAXIMUM      */
 171:Generated_Source\PSoC4/BLE_gatt.c **** 0x91u, 0x02u, /* OUTPUT            
 172:Generated_Source\PSoC4/BLE_gatt.c ****     */
 173:Generated_Source\PSoC4/BLE_gatt.c **** 0x95u, 0x01u, /* REPORT_COUNT       */
 174:Generated_Source\PSoC4/BLE_gatt.c **** 0x75u, 0x03u, /* REPORT_SIZE        */
 175:Generated_Source\PSoC4/BLE_gatt.c **** 0x91u, 0x01u, /* OUTPUT         
 176:Generated_Source\PSoC4/BLE_gatt.c ****        */
 177:Generated_Source\PSoC4/BLE_gatt.c **** 0x95u, 0x06u, /* REPORT_COUNT       */
 178:Generated_Source\PSoC4/BLE_gatt.c **** 0x75u, 0x08u, /* REPORT_SIZE        */
 179:Generated_Source\PSoC4/BLE_gatt.c **** 0x15u, 0x00u, /*
 180:Generated_Source\PSoC4/BLE_gatt.c ****     LOGICAL_MINIMUM    */
 181:Generated_Source\PSoC4/BLE_gatt.c **** 0x25u, 0x65u, /* LOGICAL_MAXIMUM    */
 182:Generated_Source\PSoC4/BLE_gatt.c **** 0x05u, 0x07u, /* USAGE_PAGE         */
 183:Generated_Source\PSoC4/BLE_gatt.c **** 0x19u, 0x00u,
 184:Generated_Source\PSoC4/BLE_gatt.c ****     /* USAGE_MINIMUM      */
 185:Generated_Source\PSoC4/BLE_gatt.c **** 0x29u, 0x65u, /* USAGE_MAXIMUM      */
 186:Generated_Source\PSoC4/BLE_gatt.c **** 0x81u, 0x00u, /* INPUT              */
 187:Generated_Source\PSoC4/BLE_gatt.c **** 0xC0u,    
 188:Generated_Source\PSoC4/BLE_gatt.c ****      /* END_COLLECTION     */
 189:Generated_Source\PSoC4/BLE_gatt.c **** 
 190:Generated_Source\PSoC4/BLE_gatt.c ****     /* Report In */
 191:Generated_Source\PSoC4/BLE_gatt.c ****     0x00u, 0x00u, 0x00u, 0x00u, 0x00u, 0x00u, 0x00u, 0x00u,
 192:Generated_Source\PSoC4/BLE_gatt.c **** 
 193:Generated_Source\PSoC4/BLE_gatt.c ****     /* Report Reference */
 194:Generated_Source\PSoC4/BLE_gatt.c ****     0x00u, 0x01u,
 195:Generated_Source\PSoC4/BLE_gatt.c **** 
 196:Generated_Source\PSoC4/BLE_gatt.c ****     /* HID Information */
 197:Generated_Source\PSoC4/BLE_gatt.c ****     0x01u, 0x01u, 0x00u, 0x03u,
 198:Generated_Source\PSoC4/BLE_gatt.c **** 
 199:Generated_Source\PSoC4/BLE_gatt.c ****     /* HID Control Point */
 200:Generated_Source\PSoC4/BLE_gatt.c ****     0x00u,
 201:Generated_Source\PSoC4/BLE_gatt.c **** 
 202:Generated_Source\PSoC4/BLE_gatt.c ****     /* Protocol Mode */
 203:Generated_Source\PSoC4/BLE_gatt.c ****     0x01u,
 204:Generated_Source\PSoC4/BLE_gatt.c **** 
 205:Generated_Source\PSoC4/BLE_gatt.c ****     /* Boot Keyboard Input Report */
 206:Generated_Source\PSoC4/BLE_gatt.c ****     0x00u, 0x00u, 0x00u, 0x00u, 0x00u, 0x00u, 0x00u, 0x00u,
 207:Generated_Source\PSoC4/BLE_gatt.c **** 
 208:Generated_Source\PSoC4/BLE_gatt.c ****     /* Boot Keyboard Output Report */
 209:Generated_Source\PSoC4/BLE_gatt.c ****     0x00u,
 210:Generated_Source\PSoC4/BLE_gatt.c **** 
 211:Generated_Source\PSoC4/BLE_gatt.c ****     /* Report Out */
ARM GAS  C:\Users\tuanngu\AppData\Local\Temp\ccwRuSog.s 			page 29


 212:Generated_Source\PSoC4/BLE_gatt.c ****     0x00u,
 213:Generated_Source\PSoC4/BLE_gatt.c **** 
 214:Generated_Source\PSoC4/BLE_gatt.c ****     /* Report Reference */
 215:Generated_Source\PSoC4/BLE_gatt.c ****     0x00u, 0x02u,
 216:Generated_Source\PSoC4/BLE_gatt.c **** 
 217:Generated_Source\PSoC4/BLE_gatt.c ****     /* Manufacturer Name String */
 218:Generated_Source\PSoC4/BLE_gatt.c ****     (uint8)'C', (uint8)'y', (uint8)'p', (uint8)'r', (uint8)'e', (uint8)'s', (uint8)'s', (uint8)' ',
 219:Generated_Source\PSoC4/BLE_gatt.c ****     (uint8)'e', (uint8)'m', (uint8)'i', (uint8)'c', (uint8)'o', (uint8)'n', (uint8)'d', (uint8)'u',
 220:Generated_Source\PSoC4/BLE_gatt.c ****     (uint8)'t', (uint8)'o', (uint8)'r',
 221:Generated_Source\PSoC4/BLE_gatt.c **** 
 222:Generated_Source\PSoC4/BLE_gatt.c ****     /* Firmware Revision String */
 223:Generated_Source\PSoC4/BLE_gatt.c ****     (uint8)'1', (uint8)'.', (uint8)'0', (uint8)'0',
 224:Generated_Source\PSoC4/BLE_gatt.c **** 
 225:Generated_Source\PSoC4/BLE_gatt.c ****     /* PnP ID */
 226:Generated_Source\PSoC4/BLE_gatt.c ****     0x02u, 0xB4u, 0x04u, 0x01u, 0x00u, 0x01u, 0x00u,
 227:Generated_Source\PSoC4/BLE_gatt.c **** 
 228:Generated_Source\PSoC4/BLE_gatt.c ****     /* Battery Level */
 229:Generated_Source\PSoC4/BLE_gatt.c ****     0x64u,
 230:Generated_Source\PSoC4/BLE_gatt.c **** 
 231:Generated_Source\PSoC4/BLE_gatt.c ****     /* Characteristic Presentation Format */
 232:Generated_Source\PSoC4/BLE_gatt.c ****     0x04u, 0x01u, 0xADu, 0x27u, 0x01u, 0x06u, 0x01u,
 233:Generated_Source\PSoC4/BLE_gatt.c **** 
 234:Generated_Source\PSoC4/BLE_gatt.c ****     /* Scan Interval Window */
 235:Generated_Source\PSoC4/BLE_gatt.c ****     0x00u, 0x00u, 0x00u, 0x00u,
 236:Generated_Source\PSoC4/BLE_gatt.c **** 
 237:Generated_Source\PSoC4/BLE_gatt.c ****     /* Scan Refresh */
 238:Generated_Source\PSoC4/BLE_gatt.c ****     0x00u,
 239:Generated_Source\PSoC4/BLE_gatt.c **** 
 240:Generated_Source\PSoC4/BLE_gatt.c **** };
 241:Generated_Source\PSoC4/BLE_gatt.c **** #if(CYBLE_GATT_DB_CCCD_COUNT != 0u)
 242:Generated_Source\PSoC4/BLE_gatt.c **** uint8 cyBle_attValuesCCCD[CYBLE_GATT_DB_CCCD_COUNT];
 243:Generated_Source\PSoC4/BLE_gatt.c **** #endif /* CYBLE_GATT_DB_CCCD_COUNT != 0u */
 244:Generated_Source\PSoC4/BLE_gatt.c **** 
 245:Generated_Source\PSoC4/BLE_gatt.c **** CYBLE_GATTS_ATT_GEN_VAL_LEN_T cyBle_attValuesLen[CYBLE_GATT_DB_ATT_VAL_COUNT] = {
 246:Generated_Source\PSoC4/BLE_gatt.c ****     { 0x000Cu, (void *)&cyBle_attValues[0] }, /* Device Name */
 247:Generated_Source\PSoC4/BLE_gatt.c ****     { 0x0002u, (void *)&cyBle_attValues[12] }, /* Appearance */
 248:Generated_Source\PSoC4/BLE_gatt.c ****     { 0x0008u, (void *)&cyBle_attValues[14] }, /* Peripheral Preferred Connection Parameters */
 249:Generated_Source\PSoC4/BLE_gatt.c ****     { 0x0004u, (void *)&cyBle_attValues[22] }, /* Service Changed */
 250:Generated_Source\PSoC4/BLE_gatt.c ****     { 0x0002u, (void *)&cyBle_attValuesCCCD[0] }, /* Client Characteristic Configuration */
 251:Generated_Source\PSoC4/BLE_gatt.c ****     { 0x003Fu, (void *)&cyBle_attValues[26] }, /* Report Map */
 252:Generated_Source\PSoC4/BLE_gatt.c ****     { 0x0008u, (void *)&cyBle_attValues[89] }, /* Report In */
 253:Generated_Source\PSoC4/BLE_gatt.c ****     { 0x0002u, (void *)&cyBle_attValuesCCCD[2] }, /* Client Characteristic Configuration */
 254:Generated_Source\PSoC4/BLE_gatt.c ****     { 0x0002u, (void *)&cyBle_attValues[97] }, /* Report Reference */
 255:Generated_Source\PSoC4/BLE_gatt.c ****     { 0x0004u, (void *)&cyBle_attValues[99] }, /* HID Information */
 256:Generated_Source\PSoC4/BLE_gatt.c ****     { 0x0001u, (void *)&cyBle_attValues[103] }, /* HID Control Point */
 257:Generated_Source\PSoC4/BLE_gatt.c ****     { 0x0001u, (void *)&cyBle_attValues[104] }, /* Protocol Mode */
 258:Generated_Source\PSoC4/BLE_gatt.c ****     { 0x0008u, (void *)&cyBle_attValues[105] }, /* Boot Keyboard Input Report */
 259:Generated_Source\PSoC4/BLE_gatt.c ****     { 0x0002u, (void *)&cyBle_attValuesCCCD[4] }, /* Client Characteristic Configuration */
 260:Generated_Source\PSoC4/BLE_gatt.c ****     { 0x0001u, (void *)&cyBle_attValues[113] }, /* Boot Keyboard Output Report */
 261:Generated_Source\PSoC4/BLE_gatt.c ****     { 0x0001u, (void *)&cyBle_attValues[114] }, /* Report Out */
 262:Generated_Source\PSoC4/BLE_gatt.c ****     { 0x0002u, (void *)&cyBle_attValues[115] }, /* Report Reference */
 263:Generated_Source\PSoC4/BLE_gatt.c ****     { 0x0015u, (void *)&cyBle_attValues[117] }, /* Manufacturer Name String */
 264:Generated_Source\PSoC4/BLE_gatt.c ****     { 0x0004u, (void *)&cyBle_attValues[138] }, /* Firmware Revision String */
 265:Generated_Source\PSoC4/BLE_gatt.c ****     { 0x0007u, (void *)&cyBle_attValues[142] }, /* PnP ID */
 266:Generated_Source\PSoC4/BLE_gatt.c ****     { 0x0001u, (void *)&cyBle_attValues[149] }, /* Battery Level */
 267:Generated_Source\PSoC4/BLE_gatt.c ****     { 0x0007u, (void *)&cyBle_attValues[150] }, /* Characteristic Presentation Format */
 268:Generated_Source\PSoC4/BLE_gatt.c ****     { 0x0002u, (void *)&cyBle_attValuesCCCD[6] }, /* Client Characteristic Configuration */
ARM GAS  C:\Users\tuanngu\AppData\Local\Temp\ccwRuSog.s 			page 30


 269:Generated_Source\PSoC4/BLE_gatt.c ****     { 0x0004u, (void *)&cyBle_attValues[157] }, /* Scan Interval Window */
 270:Generated_Source\PSoC4/BLE_gatt.c ****     { 0x0001u, (void *)&cyBle_attValues[161] }, /* Scan Refresh */
 271:Generated_Source\PSoC4/BLE_gatt.c ****     { 0x0002u, (void *)&cyBle_attValuesCCCD[8] }, /* Client Characteristic Configuration */
 272:Generated_Source\PSoC4/BLE_gatt.c **** };
 273:Generated_Source\PSoC4/BLE_gatt.c **** 
 274:Generated_Source\PSoC4/BLE_gatt.c **** const CYBLE_GATTS_DB_T cyBle_gattDB[0x32u] = {
 275:Generated_Source\PSoC4/BLE_gatt.c ****     { 0x0001u, 0x2800u /* Primary service                     */, 0x00000001u /*           */, 0x00
 276:Generated_Source\PSoC4/BLE_gatt.c ****     { 0x0002u, 0x2803u /* Characteristic                      */, 0x00020001u /* rd        */, 0x00
 277:Generated_Source\PSoC4/BLE_gatt.c ****     { 0x0003u, 0x2A00u /* Device Name                         */, 0x01020001u /* rd        */, 0x00
 278:Generated_Source\PSoC4/BLE_gatt.c ****     { 0x0004u, 0x2803u /* Characteristic                      */, 0x00020001u /* rd        */, 0x00
 279:Generated_Source\PSoC4/BLE_gatt.c ****     { 0x0005u, 0x2A01u /* Appearance                          */, 0x01020001u /* rd        */, 0x00
 280:Generated_Source\PSoC4/BLE_gatt.c ****     { 0x0006u, 0x2803u /* Characteristic                      */, 0x00020001u /* rd        */, 0x00
 281:Generated_Source\PSoC4/BLE_gatt.c ****     { 0x0007u, 0x2A04u /* Peripheral Preferred Connection Par */, 0x01020001u /* rd        */, 0x00
 282:Generated_Source\PSoC4/BLE_gatt.c ****     { 0x0008u, 0x2800u /* Primary service                     */, 0x00000001u /*           */, 0x00
 283:Generated_Source\PSoC4/BLE_gatt.c ****     { 0x0009u, 0x2803u /* Characteristic                      */, 0x00200001u /* ind       */, 0x00
 284:Generated_Source\PSoC4/BLE_gatt.c ****     { 0x000Au, 0x2A05u /* Service Changed                     */, 0x01200000u /* ind       */, 0x00
 285:Generated_Source\PSoC4/BLE_gatt.c ****     { 0x000Bu, 0x2902u /* Client Characteristic Configuration */, 0x010A0301u /* rd,wr     */, 0x00
 286:Generated_Source\PSoC4/BLE_gatt.c ****     { 0x000Cu, 0x2800u /* Primary service                     */, 0x00000001u /*           */, 0x00
 287:Generated_Source\PSoC4/BLE_gatt.c ****     { 0x000Du, 0x2803u /* Characteristic                      */, 0x00020001u /* rd        */, 0x00
 288:Generated_Source\PSoC4/BLE_gatt.c ****     { 0x000Eu, 0x2A4Bu /* Report Map                          */, 0x01020003u /* rd        */, 0x00
 289:Generated_Source\PSoC4/BLE_gatt.c ****     { 0x000Fu, 0x2803u /* Characteristic                      */, 0x001A0001u /* rd,wr,ntf */, 0x00
 290:Generated_Source\PSoC4/BLE_gatt.c ****     { 0x0010u, 0x2A4Du /* Report In                           */, 0x011A0303u /* rd,wr,ntf */, 0x00
 291:Generated_Source\PSoC4/BLE_gatt.c ****     { 0x0011u, 0x2902u /* Client Characteristic Configuration */, 0x010A0301u /* rd,wr     */, 0x00
 292:Generated_Source\PSoC4/BLE_gatt.c ****     { 0x0012u, 0x2908u /* Report Reference                    */, 0x01020001u /* rd        */, 0x00
 293:Generated_Source\PSoC4/BLE_gatt.c ****     { 0x0013u, 0x2803u /* Characteristic                      */, 0x00020001u /* rd        */, 0x00
 294:Generated_Source\PSoC4/BLE_gatt.c ****     { 0x0014u, 0x2A4Au /* HID Information                     */, 0x01020003u /* rd        */, 0x00
 295:Generated_Source\PSoC4/BLE_gatt.c ****     { 0x0015u, 0x2803u /* Characteristic                      */, 0x00040001u /* wwr       */, 0x00
 296:Generated_Source\PSoC4/BLE_gatt.c ****     { 0x0016u, 0x2A4Cu /* HID Control Point                   */, 0x01040300u /* wwr       */, 0x00
 297:Generated_Source\PSoC4/BLE_gatt.c ****     { 0x0017u, 0x2803u /* Characteristic                      */, 0x00060001u /* rd,wwr    */, 0x00
 298:Generated_Source\PSoC4/BLE_gatt.c ****     { 0x0018u, 0x2A4Eu /* Protocol Mode                       */, 0x01060303u /* rd,wwr    */, 0x00
 299:Generated_Source\PSoC4/BLE_gatt.c ****     { 0x0019u, 0x2803u /* Characteristic                      */, 0x00120001u /* rd,ntf    */, 0x00
 300:Generated_Source\PSoC4/BLE_gatt.c ****     { 0x001Au, 0x2A22u /* Boot Keyboard Input Report          */, 0x01120003u /* rd,ntf    */, 0x00
 301:Generated_Source\PSoC4/BLE_gatt.c ****     { 0x001Bu, 0x2902u /* Client Characteristic Configuration */, 0x010A0301u /* rd,wr     */, 0x00
 302:Generated_Source\PSoC4/BLE_gatt.c ****     { 0x001Cu, 0x2803u /* Characteristic                      */, 0x000E0001u /* rd,wr,wwr */, 0x00
 303:Generated_Source\PSoC4/BLE_gatt.c ****     { 0x001Du, 0x2A32u /* Boot Keyboard Output Report         */, 0x010E0303u /* rd,wr,wwr */, 0x00
 304:Generated_Source\PSoC4/BLE_gatt.c ****     { 0x001Eu, 0x2803u /* Characteristic                      */, 0x000E0001u /* rd,wr,wwr */, 0x00
 305:Generated_Source\PSoC4/BLE_gatt.c ****     { 0x001Fu, 0x2A4Du /* Report Out                          */, 0x010E0303u /* rd,wr,wwr */, 0x00
 306:Generated_Source\PSoC4/BLE_gatt.c ****     { 0x0020u, 0x2908u /* Report Reference                    */, 0x01020001u /* rd        */, 0x00
 307:Generated_Source\PSoC4/BLE_gatt.c ****     { 0x0021u, 0x2800u /* Primary service                     */, 0x00000001u /*           */, 0x00
 308:Generated_Source\PSoC4/BLE_gatt.c ****     { 0x0022u, 0x2803u /* Characteristic                      */, 0x00020001u /* rd        */, 0x00
 309:Generated_Source\PSoC4/BLE_gatt.c ****     { 0x0023u, 0x2A29u /* Manufacturer Name String            */, 0x01020003u /* rd        */, 0x00
 310:Generated_Source\PSoC4/BLE_gatt.c ****     { 0x0024u, 0x2803u /* Characteristic                      */, 0x00020001u /* rd        */, 0x00
 311:Generated_Source\PSoC4/BLE_gatt.c ****     { 0x0025u, 0x2A26u /* Firmware Revision String            */, 0x01020003u /* rd        */, 0x00
 312:Generated_Source\PSoC4/BLE_gatt.c ****     { 0x0026u, 0x2803u /* Characteristic                      */, 0x00020001u /* rd        */, 0x00
 313:Generated_Source\PSoC4/BLE_gatt.c ****     { 0x0027u, 0x2A50u /* PnP ID                              */, 0x01020003u /* rd        */, 0x00
 314:Generated_Source\PSoC4/BLE_gatt.c ****     { 0x0028u, 0x2800u /* Primary service                     */, 0x00000001u /*           */, 0x00
 315:Generated_Source\PSoC4/BLE_gatt.c ****     { 0x0029u, 0x2803u /* Characteristic                      */, 0x00120001u /* rd,ntf    */, 0x00
 316:Generated_Source\PSoC4/BLE_gatt.c ****     { 0x002Au, 0x2A19u /* Battery Level                       */, 0x01120003u /* rd,ntf    */, 0x00
 317:Generated_Source\PSoC4/BLE_gatt.c ****     { 0x002Bu, 0x2904u /* Characteristic Presentation Format  */, 0x01020001u /* rd        */, 0x00
 318:Generated_Source\PSoC4/BLE_gatt.c ****     { 0x002Cu, 0x2902u /* Client Characteristic Configuration */, 0x010A0301u /* rd,wr     */, 0x00
 319:Generated_Source\PSoC4/BLE_gatt.c ****     { 0x002Du, 0x2800u /* Primary service                     */, 0x00000001u /*           */, 0x00
 320:Generated_Source\PSoC4/BLE_gatt.c ****     { 0x002Eu, 0x2803u /* Characteristic                      */, 0x00040001u /* wwr       */, 0x00
 321:Generated_Source\PSoC4/BLE_gatt.c ****     { 0x002Fu, 0x2A4Fu /* Scan Interval Window                */, 0x01040300u /* wwr       */, 0x00
 322:Generated_Source\PSoC4/BLE_gatt.c ****     { 0x0030u, 0x2803u /* Characteristic                      */, 0x00100001u /* ntf       */, 0x00
 323:Generated_Source\PSoC4/BLE_gatt.c ****     { 0x0031u, 0x2A31u /* Scan Refresh                        */, 0x01100000u /* ntf       */, 0x00
 324:Generated_Source\PSoC4/BLE_gatt.c ****     { 0x0032u, 0x2902u /* Client Characteristic Configuration */, 0x010A0301u /* rd,wr     */, 0x00
 325:Generated_Source\PSoC4/BLE_gatt.c **** };
ARM GAS  C:\Users\tuanngu\AppData\Local\Temp\ccwRuSog.s 			page 31


 326:Generated_Source\PSoC4/BLE_gatt.c **** 
 327:Generated_Source\PSoC4/BLE_gatt.c **** 
 328:Generated_Source\PSoC4/BLE_gatt.c **** #endif /* (CYBLE_GATT_ROLE_SERVER) */
 329:Generated_Source\PSoC4/BLE_gatt.c **** 
 330:Generated_Source\PSoC4/BLE_gatt.c **** #if(CYBLE_GATT_ROLE_CLIENT)
 331:Generated_Source\PSoC4/BLE_gatt.c ****     
 332:Generated_Source\PSoC4/BLE_gatt.c **** CYBLE_CLIENT_STATE_T cyBle_clientState;
 333:Generated_Source\PSoC4/BLE_gatt.c **** CYBLE_GATTC_T cyBle_gattc;
 334:Generated_Source\PSoC4/BLE_gatt.c **** CYBLE_GATT_ATTR_HANDLE_RANGE_T cyBle_gattcDiscoveryRange;
 335:Generated_Source\PSoC4/BLE_gatt.c ****     
 336:Generated_Source\PSoC4/BLE_gatt.c **** #endif /* (CYBLE_GATT_ROLE_CLIENT) */
 337:Generated_Source\PSoC4/BLE_gatt.c **** 
 338:Generated_Source\PSoC4/BLE_gatt.c **** 
 339:Generated_Source\PSoC4/BLE_gatt.c **** #if(CYBLE_GATT_ROLE_SERVER)
 340:Generated_Source\PSoC4/BLE_gatt.c **** 
 341:Generated_Source\PSoC4/BLE_gatt.c **** /****************************************************************************** 
 342:Generated_Source\PSoC4/BLE_gatt.c **** * Function Name: CyBle_GattsReInitGattDb
 343:Generated_Source\PSoC4/BLE_gatt.c **** ***************************************************************************//**
 344:Generated_Source\PSoC4/BLE_gatt.c **** * 
 345:Generated_Source\PSoC4/BLE_gatt.c **** *  Reinitializes the GATT database.
 346:Generated_Source\PSoC4/BLE_gatt.c **** * 
 347:Generated_Source\PSoC4/BLE_gatt.c **** *  \return
 348:Generated_Source\PSoC4/BLE_gatt.c **** *  CYBLE_API_RESULT_T: An API result states if the API succeeded or failed with
 349:Generated_Source\PSoC4/BLE_gatt.c **** *  error codes:
 350:Generated_Source\PSoC4/BLE_gatt.c **** 
 351:Generated_Source\PSoC4/BLE_gatt.c **** *  Errors codes                          | Description
 352:Generated_Source\PSoC4/BLE_gatt.c **** *  ------------                          | -----------
 353:Generated_Source\PSoC4/BLE_gatt.c **** *  CYBLE_ERROR_OK						 | GATT database was reinitialized successfully.
 354:Generated_Source\PSoC4/BLE_gatt.c **** *  CYBLE_ERROR_INVALID_STATE             | If the function is called in any state except CYBLE_STAT
 355:Generated_Source\PSoC4/BLE_gatt.c **** *  CYBLE_ERROR_INVALID_PARAMETER         | If the Database has zero entries or is a NULL pointer.
 356:Generated_Source\PSoC4/BLE_gatt.c **** * 
 357:Generated_Source\PSoC4/BLE_gatt.c **** ******************************************************************************/
 358:Generated_Source\PSoC4/BLE_gatt.c **** CYBLE_API_RESULT_T CyBle_GattsReInitGattDb(void)
 359:Generated_Source\PSoC4/BLE_gatt.c **** {
 1386              		.loc 1 359 0
 1387              		.cfi_startproc
 1388              		@ args = 0, pretend = 0, frame = 8
 1389              		@ frame_needed = 1, uses_anonymous_args = 0
 1390 0000 90B5     		push	{r4, r7, lr}
 1391              		.cfi_def_cfa_offset 12
 1392              		.cfi_offset 4, -12
 1393              		.cfi_offset 7, -8
 1394              		.cfi_offset 14, -4
 1395 0002 83B0     		sub	sp, sp, #12
 1396              		.cfi_def_cfa_offset 24
 1397 0004 00AF     		add	r7, sp, #0
 1398              		.cfi_def_cfa_register 7
 360:Generated_Source\PSoC4/BLE_gatt.c ****     CYBLE_API_RESULT_T apiResult;
 361:Generated_Source\PSoC4/BLE_gatt.c ****     
 362:Generated_Source\PSoC4/BLE_gatt.c ****     if(CyBle_GetState() == CYBLE_STATE_DISCONNECTED)
 1399              		.loc 1 362 0
 1400 0006 0C4B     		ldr	r3, .L5
 1401 0008 1B78     		ldrb	r3, [r3]
 1402 000a 042B     		cmp	r3, #4
 1403 000c 09D1     		bne	.L2
 363:Generated_Source\PSoC4/BLE_gatt.c ****     {
 364:Generated_Source\PSoC4/BLE_gatt.c ****         apiResult = CyBle_GattsDbRegister(cyBle_gattDB, CYBLE_GATT_DB_INDEX_COUNT, CYBLE_GATT_DB_MA
ARM GAS  C:\Users\tuanngu\AppData\Local\Temp\ccwRuSog.s 			page 32


 1404              		.loc 1 364 0
 1405 000e BC1D     		adds	r4, r7, #6
 1406 0010 0A4B     		ldr	r3, .L5+4
 1407 0012 3F22     		movs	r2, #63
 1408 0014 3221     		movs	r1, #50
 1409 0016 1800     		movs	r0, r3
 1410 0018 FFF7FEFF 		bl	CyBle_GattsDbRegister
 1411 001c 0300     		movs	r3, r0
 1412 001e 2380     		strh	r3, [r4]
 1413 0020 03E0     		b	.L3
 1414              	.L2:
 365:Generated_Source\PSoC4/BLE_gatt.c ****     }
 366:Generated_Source\PSoC4/BLE_gatt.c ****     else
 367:Generated_Source\PSoC4/BLE_gatt.c ****     {
 368:Generated_Source\PSoC4/BLE_gatt.c ****         apiResult = CYBLE_ERROR_INVALID_STATE;
 1415              		.loc 1 368 0
 1416 0022 BB1D     		adds	r3, r7, #6
 1417 0024 0422     		movs	r2, #4
 1418 0026 FF32     		adds	r2, r2, #255
 1419 0028 1A80     		strh	r2, [r3]
 1420              	.L3:
 369:Generated_Source\PSoC4/BLE_gatt.c ****     }
 370:Generated_Source\PSoC4/BLE_gatt.c ****     
 371:Generated_Source\PSoC4/BLE_gatt.c ****     return(apiResult);
 1421              		.loc 1 371 0
 1422 002a BB1D     		adds	r3, r7, #6
 1423 002c 1B88     		ldrh	r3, [r3]
 372:Generated_Source\PSoC4/BLE_gatt.c **** }
 1424              		.loc 1 372 0
 1425 002e 1800     		movs	r0, r3
 1426 0030 BD46     		mov	sp, r7
 1427 0032 03B0     		add	sp, sp, #12
 1428              		@ sp needed
 1429 0034 90BD     		pop	{r4, r7, pc}
 1430              	.L6:
 1431 0036 C046     		.align	2
 1432              	.L5:
 1433 0038 00000000 		.word	cyBle_state
 1434 003c 00000000 		.word	cyBle_gattDB
 1435              		.cfi_endproc
 1436              	.LFE2:
 1437              		.size	CyBle_GattsReInitGattDb, .-CyBle_GattsReInitGattDb
 1438              		.section	.text.CyBle_GattsWriteEventHandler,"ax",%progbits
 1439              		.align	2
 1440              		.global	CyBle_GattsWriteEventHandler
 1441              		.code	16
 1442              		.thumb_func
 1443              		.type	CyBle_GattsWriteEventHandler, %function
 1444              	CyBle_GattsWriteEventHandler:
 1445              	.LFB3:
 373:Generated_Source\PSoC4/BLE_gatt.c **** 
 374:Generated_Source\PSoC4/BLE_gatt.c **** 
 375:Generated_Source\PSoC4/BLE_gatt.c **** /****************************************************************************** 
 376:Generated_Source\PSoC4/BLE_gatt.c **** * Function Name: CyBle_GattsWriteEventHandler
 377:Generated_Source\PSoC4/BLE_gatt.c **** ***************************************************************************//**
 378:Generated_Source\PSoC4/BLE_gatt.c **** * 
 379:Generated_Source\PSoC4/BLE_gatt.c **** *  Handles the Write Request Event for GATT service.
ARM GAS  C:\Users\tuanngu\AppData\Local\Temp\ccwRuSog.s 			page 33


 380:Generated_Source\PSoC4/BLE_gatt.c **** * 
 381:Generated_Source\PSoC4/BLE_gatt.c **** *  \param eventParam: The pointer to the data structure specified by the event.
 382:Generated_Source\PSoC4/BLE_gatt.c **** * 
 383:Generated_Source\PSoC4/BLE_gatt.c **** *  \return
 384:Generated_Source\PSoC4/BLE_gatt.c **** *  CYBLE_GATT_ERR_CODE_T: An API result returns one of the following status 
 385:Generated_Source\PSoC4/BLE_gatt.c **** *  values.
 386:Generated_Source\PSoC4/BLE_gatt.c **** 
 387:Generated_Source\PSoC4/BLE_gatt.c **** *  Errors codes                          | Description
 388:Generated_Source\PSoC4/BLE_gatt.c **** *  --------------------                  | -----------
 389:Generated_Source\PSoC4/BLE_gatt.c **** *  CYBLE_GATT_ERR_NONE                   | Write is successful.
 390:Generated_Source\PSoC4/BLE_gatt.c **** * 
 391:Generated_Source\PSoC4/BLE_gatt.c **** ******************************************************************************/
 392:Generated_Source\PSoC4/BLE_gatt.c **** CYBLE_GATT_ERR_CODE_T CyBle_GattsWriteEventHandler(CYBLE_GATTS_WRITE_REQ_PARAM_T *eventParam)
 393:Generated_Source\PSoC4/BLE_gatt.c **** {
 1446              		.loc 1 393 0
 1447              		.cfi_startproc
 1448              		@ args = 0, pretend = 0, frame = 16
 1449              		@ frame_needed = 1, uses_anonymous_args = 0
 1450 0000 90B5     		push	{r4, r7, lr}
 1451              		.cfi_def_cfa_offset 12
 1452              		.cfi_offset 4, -12
 1453              		.cfi_offset 7, -8
 1454              		.cfi_offset 14, -4
 1455 0002 85B0     		sub	sp, sp, #20
 1456              		.cfi_def_cfa_offset 32
 1457 0004 00AF     		add	r7, sp, #0
 1458              		.cfi_def_cfa_register 7
 1459 0006 7860     		str	r0, [r7, #4]
 394:Generated_Source\PSoC4/BLE_gatt.c ****     CYBLE_GATT_ERR_CODE_T gattErr = CYBLE_GATT_ERR_NONE;
 1460              		.loc 1 394 0
 1461 0008 0F23     		movs	r3, #15
 1462 000a FB18     		adds	r3, r7, r3
 1463 000c 0022     		movs	r2, #0
 1464 000e 1A70     		strb	r2, [r3]
 395:Generated_Source\PSoC4/BLE_gatt.c ****     
 396:Generated_Source\PSoC4/BLE_gatt.c ****     /* Client Characteristic Configuration descriptor write request */
 397:Generated_Source\PSoC4/BLE_gatt.c ****     if(eventParam->handleValPair.attrHandle == cyBle_gatts.cccdHandle)
 1465              		.loc 1 397 0
 1466 0010 7B68     		ldr	r3, [r7, #4]
 1467 0012 9B89     		ldrh	r3, [r3, #12]
 1468 0014 0B22     		movs	r2, #11
 1469 0016 9342     		cmp	r3, r2
 1470 0018 32D1     		bne	.L8
 398:Generated_Source\PSoC4/BLE_gatt.c ****     {
 399:Generated_Source\PSoC4/BLE_gatt.c ****         /* Store value to database */
 400:Generated_Source\PSoC4/BLE_gatt.c ****         gattErr = CyBle_GattsWriteAttributeValue(&eventParam->handleValPair, 0u, 
 1471              		.loc 1 400 0
 1472 001a 7B68     		ldr	r3, [r7, #4]
 1473 001c 181D     		adds	r0, r3, #4
 1474 001e 7A68     		ldr	r2, [r7, #4]
 1475 0020 0F23     		movs	r3, #15
 1476 0022 FC18     		adds	r4, r7, r3
 1477 0024 4023     		movs	r3, #64
 1478 0026 0021     		movs	r1, #0
 1479 0028 FFF7FEFF 		bl	CyBle_GattsWriteAttributeValue
 1480 002c 0300     		movs	r3, r0
 1481 002e 2370     		strb	r3, [r4]
ARM GAS  C:\Users\tuanngu\AppData\Local\Temp\ccwRuSog.s 			page 34


 401:Generated_Source\PSoC4/BLE_gatt.c ****                         &eventParam->connHandle, CYBLE_GATT_DB_PEER_INITIATED);
 402:Generated_Source\PSoC4/BLE_gatt.c ****         
 403:Generated_Source\PSoC4/BLE_gatt.c ****         if(gattErr == CYBLE_GATT_ERR_NONE)
 1482              		.loc 1 403 0
 1483 0030 0F23     		movs	r3, #15
 1484 0032 FB18     		adds	r3, r7, r3
 1485 0034 1B78     		ldrb	r3, [r3]
 1486 0036 002B     		cmp	r3, #0
 1487 0038 1AD1     		bne	.L9
 404:Generated_Source\PSoC4/BLE_gatt.c ****         {
 405:Generated_Source\PSoC4/BLE_gatt.c ****             if(CYBLE_IS_INDICATION_ENABLED_IN_PTR(eventParam->handleValPair.value.val))
 1488              		.loc 1 405 0
 1489 003a 7B68     		ldr	r3, [r7, #4]
 1490 003c 5B68     		ldr	r3, [r3, #4]
 1491 003e 1800     		movs	r0, r3
 1492 0040 FFF7FEFF 		bl	CyBle_Get16ByPtr
 1493 0044 0300     		movs	r3, r0
 1494 0046 1A00     		movs	r2, r3
 1495 0048 0223     		movs	r3, #2
 1496 004a 1340     		ands	r3, r2
 1497 004c 9BB2     		uxth	r3, r3
 1498 004e 002B     		cmp	r3, #0
 1499 0050 07D0     		beq	.L10
 406:Generated_Source\PSoC4/BLE_gatt.c ****             {
 407:Generated_Source\PSoC4/BLE_gatt.c ****                 CyBle_ApplCallback((uint32)CYBLE_EVT_GATTS_INDICATION_ENABLED, eventParam);
 1500              		.loc 1 407 0
 1501 0052 0F4B     		ldr	r3, .L12
 1502 0054 1B68     		ldr	r3, [r3]
 1503 0056 7968     		ldr	r1, [r7, #4]
 1504 0058 8222     		movs	r2, #130
 1505 005a 5200     		lsls	r2, r2, #1
 1506 005c 1000     		movs	r0, r2
 1507 005e 9847     		blx	r3
 1508 0060 06E0     		b	.L9
 1509              	.L10:
 408:Generated_Source\PSoC4/BLE_gatt.c ****             }
 409:Generated_Source\PSoC4/BLE_gatt.c ****             else
 410:Generated_Source\PSoC4/BLE_gatt.c ****             {
 411:Generated_Source\PSoC4/BLE_gatt.c ****                 CyBle_ApplCallback((uint32)CYBLE_EVT_GATTS_INDICATION_DISABLED, eventParam);
 1510              		.loc 1 411 0
 1511 0062 0B4B     		ldr	r3, .L12
 1512 0064 1B68     		ldr	r3, [r3]
 1513 0066 7968     		ldr	r1, [r7, #4]
 1514 0068 0622     		movs	r2, #6
 1515 006a FF32     		adds	r2, r2, #255
 1516 006c 1000     		movs	r0, r2
 1517 006e 9847     		blx	r3
 1518              	.L9:
 412:Generated_Source\PSoC4/BLE_gatt.c ****             }
 413:Generated_Source\PSoC4/BLE_gatt.c ****         }
 414:Generated_Source\PSoC4/BLE_gatt.c ****         cyBle_eventHandlerFlag &= (uint8)~CYBLE_CALLBACK;
 1519              		.loc 1 414 0
 1520 0070 084B     		ldr	r3, .L12+4
 1521 0072 1B78     		ldrb	r3, [r3]
 1522 0074 DBB2     		uxtb	r3, r3
 1523 0076 0122     		movs	r2, #1
 1524 0078 9343     		bics	r3, r2
ARM GAS  C:\Users\tuanngu\AppData\Local\Temp\ccwRuSog.s 			page 35


 1525 007a DAB2     		uxtb	r2, r3
 1526 007c 054B     		ldr	r3, .L12+4
 1527 007e 1A70     		strb	r2, [r3]
 1528              	.L8:
 415:Generated_Source\PSoC4/BLE_gatt.c ****     }
 416:Generated_Source\PSoC4/BLE_gatt.c ****     return (gattErr);
 1529              		.loc 1 416 0
 1530 0080 0F23     		movs	r3, #15
 1531 0082 FB18     		adds	r3, r7, r3
 1532 0084 1B78     		ldrb	r3, [r3]
 417:Generated_Source\PSoC4/BLE_gatt.c **** }
 1533              		.loc 1 417 0
 1534 0086 1800     		movs	r0, r3
 1535 0088 BD46     		mov	sp, r7
 1536 008a 05B0     		add	sp, sp, #20
 1537              		@ sp needed
 1538 008c 90BD     		pop	{r4, r7, pc}
 1539              	.L13:
 1540 008e C046     		.align	2
 1541              	.L12:
 1542 0090 00000000 		.word	CyBle_ApplCallback
 1543 0094 00000000 		.word	cyBle_eventHandlerFlag
 1544              		.cfi_endproc
 1545              	.LFE3:
 1546              		.size	CyBle_GattsWriteEventHandler, .-CyBle_GattsWriteEventHandler
 1547              		.text
 1548              	.Letext0:
 1549              		.file 2 "Generated_Source\\PSoC4\\cytypes.h"
 1550              		.file 3 "Generated_Source\\PSoC4\\BLE_Stack.h"
 1551              		.file 4 "Generated_Source\\PSoC4\\BLE_StackGatt.h"
 1552              		.file 5 "Generated_Source\\PSoC4\\BLE_StackGattServer.h"
 1553              		.file 6 "Generated_Source\\PSoC4\\BLE_StackGattDb.h"
 1554              		.file 7 "Generated_Source\\PSoC4\\BLE.h"
 1555              		.file 8 "Generated_Source\\PSoC4\\BLE_gatt.h"
 1556              		.file 9 "Generated_Source\\PSoC4\\BLE_dis.h"
 1557              		.file 10 "Generated_Source\\PSoC4\\BLE_eventHandler.h"
